:10000000001000AB270500005DFE000000000000AE
:1000100000000000000000000000000000000000E0
:10002000022A01D2AF53A8DF3200000228100BB819
:100030000BB800020416D2AF320000022CFF7BFE88
:100040007A0079007D0A7C000232B3020403EF607B
:100050000D12316C7881E2642070F9022B25123187
:100060006C2200021812BB010689828A83E02250AA
:1000700002E722BBFE02E32289828A83E49322BB49
:10008000010689828A83F0225002F722BBFE01F327
:1000900022EF8DF0A4A8F0CF8CF0A428CE8DF0A490
:1000A0002EFE22BC000BBE0029EF8DF084FFADF0C8
:1000B00022E4CCF875F008EF2FFFEE33FEEC33FCB2
:1000C000EE9DEC984005FCEE9DFE0FD5F0E9E4CEE8
:1000D000FD22EDF8F5F0EE8420D21CFEADF075F0B7
:1000E00008EF2FFFED33FD4007985006D5F0F222C0
:1000F000C398FD0FD5F0EA22C2D5EC30E709B2D59E
:10010000E4C39DFDE49CFCEE30E715B2D5E4C39F4B
:10011000FFE49EFE120483C3E49DFDE49CFC800387
:1001200012048330D507C3E49FFFE49EFE22C5F08E
:10013000F8A3E028F0C5F0F8E58215827002158377
:10014000E038F022BB010A89828A83E0F5F0A3E05F
:1001500022500687F009E71922BBFE07E3F5F009F4
:10016000E3192289828A83E493F5F074019322BB18
:100170000110E58229F582E5833AF583E0F5F0A3E5
:10018000E0225009E92582F886F008E622BBFE0A43
:10019000E92582F8E2F5F008E222E5832AF583E911
:1001A00093F5F0A3E99322BB010DC58229C582C551
:1001B000833AC58302050E5011C58229F808E5F07F
:1001C00026F618F5F0E58236F622BBFE11C5822927
:1001D000F808E225F0F5F0F218E23582F222F8E5AF
:1001E0008229F582E5832AF58374019325F0F5F0E1
:1001F000E4933822BB010A89828A83F0E5F0A3F0F8
:10020000225006F709A7F01922BBFE06F3E5F00914
:10021000F31922F8BB0111E58229F582E5833AF54D
:1002200083E8F0E5F0A3F0225009E92582C8F6083A
:10023000A6F022BBFE09E92582C8F2E5F008F22209
:10024000EF2BFFEE3AFEED39FDEC38FC22C3EF9BBD
:10025000FFEE9AFEED99FDEC98FC22E88FF0A4CC1D
:100260008BF0A42CFCE98EF0A42CFC8AF0EDA42CDD
:10027000FCEA8EF0A4CDA8F08BF0A42DCC3825F0AC
:10028000FDE98FF0A42CCD35F0FCEB8EF0A4FEA997
:10029000F0EB8FF0A4CFC5F02ECD39FEE43CFCEAA4
:1002A000A42DCE35F0FDE43CFC2275F008758200EB
:1002B000EF2FFFEE33FECD33CDCC33CCC58233C52B
:1002C000829BED9AEC99E58298400CF582EE9BFEBC
:1002D000ED9AFDEC99FC0FD5F0D6E4CEFBE4CDFA17
:1002E000E4CCF9A88222B800C1B90059BA002DECBB
:1002F0008BF084CFCECDFCE5F0CBF97818EF2FFF53
:10030000EE33FEED33FDEC33FCEB33FB10D70399FA
:100310004004EB99FB0FD8E5E4F9FA227818EF2FA7
:10032000FFEE33FEED33FDEC33FCC933C910D705C6
:100330009BE99A4007EC9BFCE99AF90FD8E0E4C9E5
:10034000FAE4CCFB2275F010EF2FFFEE33FEED3315
:10035000FDCC33CCC833C810D7079BEC9AE8994042
:100360000AED9BFDEC9AFCE899F80FD5F0DAE4CDA4
:10037000FBE4CCFAE4C8F922EB9FF5F0EA9E42F0E8
:10038000E99D42F0EC6480C864809845F022EB9FC0
:10039000F5F0EA9E42F0E99D42F0E89C45F022E843
:1003A000600FECC313FCED13FDEE13FEEF13FFD84B
:1003B000F122E8600FEFC333FFEE33FEED33FDECC7
:1003C00033FCD8F122E6FC08E6FD08E6FE08E6FF6D
:1003D00022E0FCA3E0FDA3E0FEA3E0FF22E2FC0894
:1003E000E2FD08E2FE08E2FF22E0F8A3E0F9A3E064
:1003F000FAA3E0FB22E2FB08E2F908E2FA08E2CB0A
:10040000F822ECF608EDF608EEF608EFF622ECF02E
:10041000A3EDF0A3EEF0A3EFF022ECF208EDF2086A
:10042000EEF208EFF222D083D082E493F608740152
:1004300093F608740293F608740393F6740473A891
:10044000828583F0D083D0821208361208361208D3
:1004500036120836E473E493A3C583C5F0C583C898
:10046000C582C8F0A3C583C5F0C583C8C582C822AC
:10047000D083D082E493F208740193F2087402935B
:10048000F208740393F2740473A42582F582E5F0F4
:100490003583F58322E0FBA3E0FAA3E0F922EBF039
:1004A000A3EAF0A3E9F022E2FB08E2FA08E2F9226B
:1004B000EBF208EAF208E9F222EC8EF0A4CCC5F0E7
:1004C000CCCDF8EFA4CEC5F02DFDE43CFCE8A42E85
:1004D000C8C5F03DFDE43CFCEFA4FFE5F028FEE4D8
:1004E0003DFDE43CFC228F58E4F559F55A7873122F
:1004F00014D7EF1214CD12054FF55E85F05D7876B6
:100500001214D7EF1214CD12054FF56085F05F7805
:10051000501214D7EF1214CD12054FF55C85F05B25
:10052000784D1214D7EF1214CD1215D8D3955CEE76
:10053000955B4025EF955CFDEE955BFCD3ED94302B
:10054000EC94754008755975755A3080048C598D36
:100550005A1215A21215158054C3E55C9FFDE55B88
:100560009EFCD3ED9410EC94274008755927755ADA
:100570001080048C598D5A1215A2F583E559F0A309
:10058000E55AF030031C1215A2121527D3942CEE55
:10059000940140141215AEF5837427F0A37410F083
:1005A00080061215AE121515E4F559F55A30032DD3
:1005B0001215AE1215274E600EE55825E02445F8B9
:1005C0007613087688800CE55825E02445F87607F0
:1005D0000876D01216567606087640802EE5582505
:1005E000E02419F582E4340212152712156724DA83
:1005F000F582E434011215271215672445F8A65D2B
:1006000008A65E121656A65F08A6607B007A0079DF
:1006100059AD58122D63D3E55A9400E55994005012
:1006200003020C2B78531214D7E5581214CDE55958
:10063000855AF01205F3AE59AF5AE4FCFD7BB87A47
:1006400088F9F8C31207585006755988755AB8E5E5
:10065000581215F912152712166F404B121656E64E
:10066000FE08E6FFC3E55A9FE5599E5018AE59AF04
:100670005A7C003003047DC880027D0A1204838EF8
:10068000598F5A80221214F124A5F9740135F0FA19
:100690007B017D0A7C001232B31214F112161EF592
:1006A00083E4F0A374A6F0748C2558F8E27003027A
:1006B0000BD61214F1121598C083C0821207C9120A
:1006C000163DD082D0831207EE1214F124ABF582CE
:1006D000E43401F583E475F00112050E1214F112F1
:1006E000161E121527C394F4EE9401405F1214F104
:1006F00024ABF582E43401121527FF1215E412141D
:10070000F11215981207B11206C61214F11215BA99
:10071000121668F0E5587D031215801214F11215B7
:10072000BA121527FF121641780212077F1214F130
:100730001215BA1216681214F012159812081F003A
:100740000000001214DE12161E1215151214F112FA
:1007500015BA121527FF12166F40048E598F5A785A
:10076000531214D7E5581214CD1215D8121626E2DA
:10077000FC08E2FD12329D78731214D7E55812146A
:10078000CD12054FC39FE5F09EE558505275F00A13
:10079000A412159812081F000000001214DE121691
:1007A0001E1214EB1215BA12151578531214D7E550
:1007B000581214CD1215D8E4FCFDC0E0C0E0EEC024
:1007C000E0EFC0E0121626E2FE08E2FFD0E0FBD028
:1007D000E0FAD0E0F9D0E0F81206207801800A7D36
:1007E0000712158012163D780312077F121626EEA7
:1007F000F208EFF2800A121626E559F208E55AF2DD
:1008000012151CFFE55825E02470F8E22FF55A1860
:10081000E23EF559D3E55A9430E559947540067592
:100820005975755A30E5DB54047051786C1214D741
:10083000E5581214CDE559855AF01205F3E55A240E
:10084000A8FFE5593461FE78668026E5DB54047024
:100850002B78661214D7E5581214CD1215D07853A0
:100860001214D7E5581214CD12164712151CFF7832
:100870006C1214D7E5581214CD12154D22E4F55C14
:10088000122579506D12255212080600002710E536
:100890005C1225DF5057AF5C12326B7F021225834A
:1008A000902E10E020E20575870180F41225EB9070
:1008B00032D29333333354F8FE902E047835122518
:1008C000391225F6902E10E4F07F02123115E55C06
:1008D00025E02489F9E3700219E3701178351225B7
:1008E000431225C32488F8E5F0F208EFF2055C0214
:1008F0000C60E4F55BE55B12257B4003020DF1E43F
:10090000F55C1225794003020DECE55B2401FFE460
:1009100033FEE55C9032CC93FDD3EF9D7480F86E8E
:10092000984003020DE7AF5C123218AF5C122583CA
:10093000902E10E020E20575870180F41225EB90DF
:1009400032D69333333354F8FEE55C9032C9937555
:10095000F002902E0012086978321225391225F61D
:10096000AF5C123115AF5C122E417838122543125C
:10097000054FFDACF0AF5C12245C783B12254312AE
:1009800025CC1225461225A0E48F698E68F567F5FF
:1009900066855C6AFF121F72783E1225431225CCD1
:1009A000122552C0E01207A5ECC0E0EDC0E0EEC099
:1009B000E0EFC0E0783E1225431225C32449F8E653
:1009C000FC08E6FDC3EF9DFFE5F09CFEEFFBEEFAB1
:1009D0003395E0F9F8D0E0FFD0E0FED0E0FDD0E0C4
:1009E000FC120620D0E0F81207E2902E15E4F0E5A4
:1009F0005C75F002A4FF783E120887E92FF9EA350A
:100A0000F0FAAF5C122763055C020CE2055B020C96
:100A1000D5E4F55C1225794003020EBD1225521271
:100A200007A5E47B507AC3F9F8C3120758500C129B
:100A300025521208060000C35080141225521207D6
:100A4000A5EC33500A1225521208060000000012CD
:100A500025521207A578411225431225CC7844125D
:100A6000254312054F45F0700A784112254312259F
:100A7000A0803E78441225431225A07C007D0212FE
:100A80000899ECC0E0EDC0E0EEC0E0EFC0E07841D6
:100A90001225431225A0E4FCFDD0E0FBD0E0FAD003
:100AA000E0F9D0E0F8120620E47B03FAF9F8120628
:100AB000C678441225431225F6E55C25E02485F925
:100AC000E3700219E3701178441225431225C32400
:100AD00084F8E5F0F208EFF2055C020DF4228F597C
:100AE000E4F55AF55B748C2FF8E270030210CAEF3C
:100AF000121CD2121C2D4E70199001F0E0FEA3E0E2
:100B0000FF121CD0121C9B121C00121C13E5F002D9
:100B10000F94121CD0121C2DFF9001F0E0FCA3E0FA
:100B2000FD12329D121D05F583EEF0A3EF121C3469
:100B3000E06003020F9A121D05121C2D121D2D409C
:100B400006121C357401F0121C14E0FEA3E0FF1223
:100B50001C00FDACF012329D121D11121C9B121DC7
:100B600011121C2D121D2D5015E559902DDD9330BD
:100B7000E111121C00C39458E5F094025005121CB8
:100B800035E4F0121C00FFAEF0E4FCC0E0C0E0EE83
:100B9000C0E0EFC0E0121C14E0FEA3E0FF7D0312F2
:100BA0000899D0E0FBD0E0FAD0E0F9D0E0121D1DAA
:100BB000121C14EEF0A3EFF0801AE559902DDD938E
:100BC00030E111121C00C39458E5F0940250051254
:100BD0001C35E4F0121C35E070030210E0121C1406
:100BE000E0FEA3E0121D2650030210E0784D121C17
:100BF00002FFAEF07850121C02C39FE5F09E501722
:100C00007850121C02FFAEF0784D121C02ACF0C3FB
:100C10009FF55BEC9EF55A121C14E0FCA3E0FDAFBF
:100C20005BAE5A12329D121BFCFFAEF0121C14E098
:100C3000FCA3E0FDD39FEC9E400BD3E55D94C8E59B
:100C40005C94005011C3ED9FEC9E5012E55D94C87A
:100C5000E55C94004008121C35E4121C5422121C5E
:100C600000FFAEF012329D121BFC121C13E0FCA31D
:100C7000E0D39FEC95F0403AD3E55D940AE55C94AF
:100C800000402F121C6A121C2DD394E0EE64809455
:100C900031401F7850121CA5E559A4F58285F083D8
:100CA00074FF75F0F6121C67F58374FF75F0F61289
:100CB000050E121C00121C13E0FCA3E0C39FEC9570
:100CC000F0503DE55D940AE55C94004033785012A5
:100CD0001CA5E559A4F58285F083E475F00A121C81
:100CE00067F583E475F00A02050E121C6AF583E4C9
:100CF000F0A3121C54121C14E4F0A3121C34E4F0F0
:100D0000228F58748C2FF8E2702178531214D7EF89
:100D10001214CD12054FFFE5581215C2E5F09C5094
:100D20000A900193E07002A3E0603A12154624563F
:100D3000F9E4FA7BFE7D08FC1232B3900193E07077
:100D400002A3E070030212DA784D1214D7E55812AC
:100D500014CD1215D878501214D7E5581214CDEED0
:100D60008FF00205F31215462456F8C0E01207BDB5
:100D7000ECC0E0EDC0E0EEC0E0EFC0E0784D121452
:100D8000D7E5581214CD12054FAEF01215E4D0E09D
:100D9000FFD0E0FED0E0FDD0E0FC120620D0E0F86D
:100DA0001207FA121546245AF808E22401F218E252
:100DB0003400121545245DF9C3E394E819E3940364
:100DC00050030212DA1215462456F8C0E01207BD8D
:100DD000ECC0E0EDC0E0EEC0E0EFC0E0121546244C
:100DE0005A1215DFD0E0FFD0E0FED0E0FDD0E0FCED
:100DF0001206C6D0E0F81207FA74512558F8E664D6
:100E000001603B78731214D7E5581214CD12054FC8
:100E100025E0FFE5F033FE784D1214D7E5581214A3
:100E2000CD12054F2FFFEE35F0FE78501214D7E5A6
:100E3000581214CD12054FD39FE5F09E4020121595
:100E4000462456F81207BD78501214D7E5581214EC
:100E5000CD12154D74512558F8E4F60212BA7850A7
:100E60001214D7E5581214CD12054FFBAAF0121533
:100E7000462456F81207BDC3EB9FF55AEA9EF55972
:100E800074542558F582E43401F583E02BFFE43AED
:100E9000FEE4FCFD1215462456F81207D5D31207BE
:100EA0006EAE59AF5AE5584005902DD78003902D6E
:100EB000D593FD7C001204D88E598F5A78501214A5
:100EC000D7E558A429F9EA35F0FA120524C3955A52
:100ED000FFE5F095598FF01205D41215462456F807
:100EE00012085000000000121546245AF8E4F208D7
:100EF000121545245CF8E4F208F2228F58748C2F06
:100F0000F8E2FF601B121C83F583E0FCA3E04C7049
:100F10000F121CDD121C83F583ECF0A3EDF0802B87
:100F2000EF70287876120887E558121C07FFAEF09C
:100F3000121CA3E558121C0AC39FE5F09E500C1228
:100F40001C83121C60121CED121C60121C83121CEC
:100F50002DFF121D2650030213E3121CDD12329DD9
:100F6000121CAC121C9B121CAC121C2DD3940AEE4A
:100F7000940050030213E3121CA3E558121C0AFF4D
:100F8000AEF0D394E8EE940340797C007D0A12041D
:100F9000837802EFC333CE33CED8F9F55A8E591287
:100FA0001C22C3955AEE95595059755B04E4F55CC3
:100FB000F55D121CA3E558121C0AD39440E5F09489
:100FC0001F4003755B14121CACF583E0FCA3E0FD2D
:100FD000AF5B7E001204718E5C8F5DD3E55D955A28
:100FE000E55C9559400685595C855A5D121C22C303
:100FF000955DEE955C500C121CEDF583E55CF0A35D
:10100000E55DF0748C2558F8E260030214AC121C04
:1010100048121C2D121CDCC3EF9DEE9C4004EF4EC9
:10102000700A121C48F583ECF0A3EDF0121C771245
:101030001C2D121D264025121C8F121C2DC3940A34
:10104000EE94004017121CB8E07011121CB8E004B6
:10105000121C76F5837401F0A374F4F0121C77125D
:101060001C2D4E705C121C48121C2D121CDCD3EF80
:101070009DEE9C400EEF9DFFEE9CFE121C8F121CFD
:101080009B8006121C8F121C60121C8F121C2D12CA
:101090001D2D4017121CC4F5837413F0A37488F03F
:1010A000121CF9F583E4F0A37496F0121CB8E41254
:1010B0001C76F5837403F0A374E8F0121C41121C33
:1010C0009B121CC4121C2D4E7014800C121C411259
:1010D0001C9B121CC4121C60121CF9121C6022E41E
:1010E00093FE740193FF120887ED75F002A4F58258
:1010F00085F08322FFAEF012088775F00222E558D2
:1011000075F00AA424ABF582E43401F583E4F0A37E
:10111000F0E55875F00AA422120887120524FF9002
:1011200001BB02087575F00AE55A120869E55975A0
:10113000F00AA42583F583E4F0A3F022E55825E026
:10114000241FF582E43402F583E0FEA3E022E55D8E
:1011500025E025E02427F582E43402F58375F002CA
:10116000E558020869F2E55875F008A422EE8FF000
:101170000205F3E5F08FF00205F374252558F5829A
:10118000E43402F583E022FF255EF55EEE355DF581
:101190005DEF2560F560EE355FF55FE55825E022EF
:1011A00025E0246FF8E2FE08E2FF7C00120899ECCB
:1011B000F8EDF9EEFAEFFB2224A7F582E43401F50D
:1011C0008322E55825E0249DF582E4340122E55888
:1011D00025E024A1F582E434012224ADF582E43433
:1011E000012225E02445F8E6FC08E6FDC3EF9D2238
:1011F000746175F0A80205F312054FFFAEF022F8F6
:10120000E2FE08E2FBEEFAE4F9F822E56425E024C8
:1012100095F582E4340122E55825E02499F582E42D
:10122000340122ED75F008A424C9F582E4342DF5CB
:1012300083E49322E55AC39401748094802224A508
:10124000F582E4340122E55825E0246FF822ED759B
:10125000F008A424C5F582E4342DF58322AE59AFFD
:101260005AE4FCFD020620E4F5F00205F3F87401EF
:1012700093FFED25E022E55825E0244DF82225E0F6
:10128000246FF8E4F208F222F583EEF0A3EF22D304
:101290009400EE94002212041E1232E87A0179DEE4
:1012A0007D2E12180A7F0112042EE4FDEDC3940274
:1012B00074809480501FED25E02488F8E4F208F251
:1012C000ED25E02484F8E4F208F278441214C61202
:1012D00016470D80D77B007A0079217D127C0012A1
:1012E00032B37BFE7A0079567D107C001232B37ADD
:1012F0000279257D0212180A7A0279277D107C0076
:101300001232B3E4FDED12161640030217C27866DE
:101310001214C61215D078691214C61215D0ED1227
:10132000165E786C1214C6121647748C2DF8E4F20F
:10133000ED902DD993FF74542DF582E43401F5839B
:10134000EFF012162E78731214BF12154DED75F0D2
:1013500008A424C7F582E4342DF58378791214BFEC
:1013600012154D121603FE740193FF78761214C6FF
:1013700012154DED75F008A424CBF582E4342DF55B
:1013800083E493FE740193FF787C1214C612154D0A
:1013900012162EE49312164D2445C8F608EFF612E5
:1013A000160312164D244DC8F608EFF6ED9032D60E
:1013B0009333333354F8F8ED25E02449C8F608E4B4
:1013C000F6ED25E0240EF582E43404F583E493FE83
:1013D00012164E24C2F582E43401121668F00D0292
:1013E00016E5E4900223F0A3F0C3900194E094F496
:1013F000900193E0940150077401F0A374F4F07B22
:10140000017A0179C67D147C001232B37F03122267
:1014100080784A1208878B5E8A5F896075610075E3
:10142000620478501208870230217B017C0012325E
:10143000B322C0E0C0F0C083C082C0D0E8C0E0D218
:10144000AFD3900194E09400900193E094004003A6
:101450001226101226505003122696C378651226C3
:10146000535003122696D3900196E0940090019574
:10147000E094004003122610D3900198E09400906D
:101480000197E094004003122610D390019AE09453
:1014900000900199E094004003122610D390019C23
:1014A000E0940090019BE094004003122610122665
:1014B00065500312268F122673500312268FD39085
:1014C00001A2E094009001A1E094004003122610D4
:1014D000D39001A4E094009001A3E0940040031293
:1014E0002610D39001BAE094009001B9E094004036
:1014F00003122610122681500312268FD39001BFAB
:10150000E094019001BEE094004003122610D390B5
:1015100001C1E094019001C0E09400400312261044
:10152000D39001D9E094009001D8E09400400312D8
:101530002610D390021EE0940190021DE09400401A
:1015400003122610D3900203E09400900202E0946C
:10155000004003122610D3900205E094009002048C
:10156000E094004003122610D3900207E09400900C
:101570000206E094004003122610D3900209E09482
:1015800000900208E094004003122610D0E0F8D04A
:10159000D0D082D083D0F0D0E0327B017A0079CCF9
:1015A00078321208907A0079C878351208907A005B
:1015B00079D078381208907A0079D4783B12089064
:1015C0007A0079D8783E1208907A0079DC78411256
:1015D00008907A0079E078441208907A0079E478EB
:1015E000471208907A0079E8784A1208907A0079D0
:1015F000EC784D1208907A0079F078501208907AC1
:101600000079F478531208907A0079AA7866120863
:10161000907A0079A6786C1208907A0079AE786991
:101620001208907A0079A0782E1208907A00799AA0
:1016300090019012087E7A0079B278731208907A3D
:101640000079B678761208907A0079C47879120811
:10165000907A0079BA787C1208907A01790090012A
:10166000BB12087E902DE0E493900092F0902DE262
:10167000E493900095F0902DE3E493900094F09023
:101680002DE4E493900183F09000977401F09000B2
:10169000997410F0E490018EF09000987420F0900E
:1016A00000BE7430F09000C1741BF09000BF743025
:1016B000F09000C2741BF09000C07430F09000C332
:1016C000741BF0E4900223F0A3F09001937407F0F0
:1016D000A374D0F0E490018FF0900098E0F50D2213
:1016E000EFFBEEFA9001931225FC40069001931255
:1016F0002606122650500808E22BF218E23AF27839
:1017000065122652500808E22BF218E23AF29001D4
:10171000951225FC40089001951226068007E4905A
:101720000195F0A3F09001971225FC4008900197D5
:101730001226178007E4900197F0A3F09001991208
:1017400025FC40089001991226178007E490019922
:10175000F0A3F090019B1225FC400890019B1226FB
:10176000218007E490019BF0A3F01226655003123C
:1017700026A112267350031226A19001A11225FC66
:1017800040069001A11226219001A31225FC4006DB
:101790009001A312262B12268150031226A190013C
:1017A000BE12263540069001BE12265B9001C01283
:1017B000263540069001C012265B9001D81225FC08
:1017C00040069001D812262BEB2401FFE43AFE904C
:1017D000021D12263C400CED9BFEEC9A90021DF07F
:1017E000A3CEF09002021225FC40069002021226BF
:1017F000469002041225FC400690020412264690F0
:1018000002061225FC40069002061226A790020846
:101810001225FC40069002081226A7228E5C8F5DDE
:101820007853120887E55975F002A4F58285F08394
:1018300002054FFFE55925E024E4F582E43401F583
:101840008322E55825E02419F582E43402F583E08B
:10185000FEA3E022F074DE2559F582E43401F5831D
:10186000227882E2FE08E2FFE55825E024FAF582BC
:10187000E4340122F0E55925E024E0F582E4340166
:10188000F583E4F0A3F022120587E55925E024EC66
:10189000F582E4340122F0E55825E02402F582E4E3
:1018A000340222E55825E02411F582E4340222E5D1
:1018B0005825E024FEF582E4340122F583EEF0A3FE
:1018C000EFF022785312088775F00222E55825E0E0
:1018D0002415F582E4340222740A2558F582E43492
:1018E00002F58322E55825E02406F582E43402223D
:1018F000E55925E024E0F582E4340122FF7882E214
:10190000FC08E2FD227882E2FE08E2FF22E558258B
:10191000E02419F582E4340222E55825E024DAF5C2
:1019200082E4340122E55925E0240CF582E43402F6
:1019300022E55925E024E8F582E4340122F8120674
:1019400020780202077FD39400EE940022D39414EF
:10195000EE940022E4F558FFF559F55AAE5A748C0E
:101960002EF8E2601C74DB255AF582742D3559F58A
:1019700083E493FD4258748E2EF8E26004EDCF4F5D
:10198000CF055AE55A700205596401455970CD904A
:101990000099E06420700B900223E558F0A3EFF06B
:1019A0008007E4900223F0A3F0900223E0FF900070
:1019B00090E0FE6F700F900224E0FD900091E06DCA
:1019C0007003021E5DEE6FF558E4F559F55AAF5AF3
:1019D000748C2FF8E27063C8EFC8E558088002C322
:1019E00013D8FC30E054E55A25E0FFE55933FE7882
:1019F0006C1208878F828E83121647E55A12165E84
:101A000078661208878F828E831215D09001AD12EE
:101A100015059001A775F00AE55A120869E5597590
:101A2000F00AA42583F58312081F0000000090012E
:101A3000AB1215059001A5121505055AE55A70025D
:101A40000559640145597086900223E0900090F09A
:101A5000900224E0900091F09001B9E4F0A3746446
:101A6000F0E4F588D39001BAE094009001B9E094D5
:101A7000004007308AEEE4F0A3F075880422E47891
:101A800031F2755EFF755F317560B7F56175620E95
:101A90007B017A2E7910123021E4F557C3E5579473
:101AA00003748094805047E5579032C99375F007CE
:101AB000A42420F9742E35F0FA7B01EBC0E0EAC0D3
:101AC000E0E9C0E0E55775F007A424C5F9743135A5
:101AD000F0755EFFF55F8960756100756207D0E0A3
:101AE000F9D0E0FAD0E0FB123021055780AE902EFD
:101AF0000AE4F0A3F0902E0EF07F021231937F02E1
:101B0000123141782E120887900004122C93E4F5CC
:101B100057C3E557122C7E5068E557122C28E4F085
:101B2000A3F0E557122C857401F0121F67122C43A5
:101B3000122C93E5579032D4936407603F122C43E4
:101B400012054FFFAEF090000412054F24DCFDE5B6
:101B5000F03405FCC3ED9FEC9E50217831E2FFAEDE
:101B600057EEF87401088002C333D8FC4F7831F285
:101B7000121F67122C6B122C48122C930557021E51
:101B8000F1902E15E4F022AF57123193AF57123176
:101B900041228F65EF75F00AA42400122EA4E2F50D
:101BA0006BEF122E9E1207BDE4FBFAF9F8C3120781
:101BB0006E7009122EC5122E9C1207FA122E9C125C
:101BC00007BD780812077FAC68AD6912329D8E6C34
:101BD0008F6D122EC58F698E688D678C66AF6B7E98
:101BE00000EF7012122EE924F6F582E43432122E40
:101BF000BB122EDE401DD3EF9400EE648094804033
:101C000017122EE924F8F582E43432122EBB122E7C
:101C1000DE5005756B05800DD3E56B9400748094E0
:101C2000804002156BE56B600F8569718568708572
:101C3000676F85666E02205B122EAEE493F87E001D
:101C40007401088005C333CE33CED8F924FFFFEEEC
:101C500034FFFE3395E0FDFC122E9C1207D51206D0
:101C60003BEF2569FFEE3568FEED3567FDEC356627
:101C7000FC122EAEE493F9F8122ED2AF71AE70AD15
:101C80006FAC6E122E9C1207FAAF71AE70AD6FACD6
:101C90006E7808122ED2122EE92400122EA4E56BC3
:101CA000F222EFFD902E1AE0755D00F55E7401F0F2
:101CB00075F002ED122C2F7410F0A3E4F0902E10AA
:101CC000F0FCECC3940D748094804003022188ECF6
:101CD00004F87E10E4088006CEA2E713CE13D8F8ED
:101CE000F55C8E5B455B7005F55B755C019031B70B
:101CF000E4934403902E10F0902E10E030E2F9753A
:101D0000F002ED902E00120869E0FEA3E02400FF2F
:101D1000EE3408FED3EF94FEEE64809487403B756A
:101D2000F002ED122C2FE0FEA3E0255CFFE55B3E08
:101D3000FEC3EF94FFEE941F75F002ED902E065057
:101D40000D120869E55B855CF012050E80511208E2
:101D500069741FF0A374FFF0804575F002ED122C3A
:101D60002FE0FEA3E0D3955CEE955B402775F00273
:101D7000ED122C2FC083C082C3A3E0955CFF0582C7
:101D8000D5820215831582E0955BD082D083F0A3C3
:101D9000EFF0800B75F002ED122C2FE4F0A3F09021
:101DA0002E10E4F00C0220A2902E1AE55EF0228F95
:101DB0005874252F12155EFFC394047480948050CC
:101DC00020784A1214D7E5581214CD12054FFDACF5
:101DD000F0EF121530ECF0A3EDF012155A04F0807C
:101DE00050755D01C3E55D940474809480502112A8
:101DF000152EE0FEA3E0FFE55D25E025E02423F5B8
:101E000082E4340212153BEEF0A3EFF0055D80D4BE
:101E1000784A1214D7E5581214CD12054FFFE55831
:101E200025E02433F582E43402F583E5F0F0A3EFF6
:101E3000F0E4F55CF55BF55AF559F55D12155AFFBE
:101E4000E55DC39F502612152EE0FEA3E0FFE4FCE3
:101E5000FDE55C2FFFE55B3EFEED355AFDEC3559A7
:101E60008F5C8E5B8D5AF559055D80D0AF5CAE5BA3
:101E7000AD5AAC59ECC0E0EDC0E0EEC0E0EFC0E020
:101E800012155AFBE4FAF9F8D0E0FFD0E0FED0E0FA
:101E9000FDD0E0FC1206C68F5C8E5B8D5A8C5922F9
:101EA0008F58E4F559E559C39558400302232D1284
:101EB0000C5DE4F55A1216144003022328E5592458
:101EC00001FFE433FEE55A9032D893FDD3EF9D74C1
:101ED00080F86E98506D7844120887E55A1214CA3B
:101EE00012054F78471214D4E55A1214CD12154D2D
:101EF000E55A75F012A4FF2421F9E4C0E0C0E0E93E
:101F0000C0E074232FF9E4F55EF55F8960F5617533
:101F10006206D0E0F9D0E0FAD0E0FB123021784739
:101F20001214D7E55A1214CD1215D8E55A75F012CD
:101F3000A4241FF8E55A9032D89325E028F8EEF64D
:101F400008EFF6055A0222950559022285E4F55A52
:101F50001216145038AF5A1228BB784A1214D7E51B
:101F60005A1214CD12154D78441214D7E55A121492
:101F7000CD12054F5403FFE55A25E0241FF582E4F6
:101F80003402F583E4F0A3EFF0055A80C3228F58A2
:101F9000D3900194E09400900193E09400400302F8
:101FA000245B78531214D7EF1214CD1215D8E558CC
:101FB0001215C2EE9C5015748C2558F8E26020E58D
:101FC0005825E0244D1215C6EE9C40131215F71249
:101FD00015274E702B748C2558F87401F28021124D
:101FE00015F7F583E4F0A37496F0748C2558F8E4A3
:101FF000F2748E2558F8E4F2E5581215ED12151515
:10200000748C2558F8E26073E558F87E0074010876
:102010008005C333CE33CED8F9FF90018EE0FDEFBB
:102020005D605178791214D7E5581214CD12054F1E
:1020300078531214D4E5581214CD12054FFDACF0AC
:10204000C39FEC9E5025748E2558F8E26026ED243F
:1020500032FFE43CFE78791214D7E5581214CD1201
:10206000054FFDC3EF9DEE95F04009748E2558F89D
:102070007401F222748E2558F8E4F222EF75F01202
:10208000A4241AF8ECF208EDF2E4FBEBC394087414
:102090008094805051EF75F012A4240BF8EB25E0EA
:1020A00028F9E3700219E3700A1231DAECF208ED54
:1020B000F2801BEF75F012A4240C1231E1E2F583DB
:1020C00008E2F5821231DAE583F208E582F2123194
:1020D000DAE2F58308E2F582EB25E02465F8A683D1
:1020E00008A6820B80A5E4FBEBC39408748094805F
:1020F0005046E4FAEAC39407748094805037123152
:10210000E8E6FC08E6C39FEC9E50271231F3E6FE9A
:1021100008E6FFE48F788E77F576F5751231E8EEF4
:10212000F608EFF6AF78EA25E02465F8E577F608DB
:10213000EFF60A80BF0B80B0AE6DAF6EEFFBEEFA2C
:10214000E4F9F8AE6FAF70FCFD1206200812077FAD
:102150008F788E778D768C7522E0FCA3E02400FFCB
:10216000EE3CFE120887E55C75F002A4F58285F06E
:102170008322E55C25E025E0245DF822E56525E085
:1021800025E024CEF582E43401F58322F074D625CF
:1021900065F582E43401F58322E55CC39401748023
:1021A0009480221230E943A8209031B7E49344038D
:1021B000902E10F022783212088775F002E5652221
:1021C00012054FFFAEF022E56525E024CAF582E452
:1021D0003401F58322E56525E024C6F582E4340167
:1021E000F5832212054FFFE55C25E022EE8FF00219
:1021F00005F3AB66AA67A968120524FFAEF022902A
:1022000032CE93C394037480948022902E10E4F015
:1022100053A8DFE55C22EE8FF00205F3E0FEA3E0B9
:10222000FFD39BEE9A22EF9BFFEE9AF0A3EFF022F2
:1022300074FFF5F002050EEF9BFFEE9AF0A3EFF0AE
:1022400022EF9BFFEE9AF0A3EFF022EF9BFFEE9AB6
:10225000F0A3EFF022EB2401FFE43AFEE0FCA3E060
:10226000FDD39FEC9E22EF9BFFEE9AF0A3EFF022AE
:10227000785DC3E294E818E2940322ED9BFEEC9AA9
:10228000F0A3CEF022C39001A6E094F49001A5E063
:10229000940122C39001B0E094F49001AFE0940166
:1022A00022C39001F9E094649001F8E0940022E4E4
:1022B00075F00102050E08E22401F218E23400F282
:1022C00022EA8BF002050EEF9BFFEE9AF0A3EFF0EF
:1022D000229001F21207C9E8C0E0E9C0E0EAC0E0DC
:1022E000EBC0E0121CE5E4FCFDD0E0FBD0E0FAD04E
:1022F000E0F9D0E0F81206209001F21207EE90010A
:10230000F6E475F00112050EC39001F9E0946490B3
:1023100001F8E09400406B9001F21207B1ECC0E0CC
:10232000EDC0E0EEC0E0EFC0E09001F6E0FEA3E01B
:10233000FBEEFAE4F9F8D0E0FFD0E0FED0E0FDD00B
:10234000E0FC1206C69001F21207EE9001F21207AD
:10235000B19001F0EEF0A3EFF0A312081F0000000F
:1023600000E49001F6F0A3F0A3F0A3F0F558C3E564
:10237000589401748094805009AF58120EBE0558CD
:1023800080EC228F658B668A678968EF12255EC0B4
:1023900083C0821207C9E8C0E0E9C0E0EAC0E0EB10
:1023A000C0E01225D2E4FCFDD0E0FBD0E0FAD0E0A2
:1023B000F9D0E0F8120620D082D0831207EE122561
:1023C0006DE00412256CE0FFD3940A748094804081
:1023D00025EFFBE4FAF9F812255C1207B11206C6E4
:1023E0001225A7EEF0A3EF12256CE4F012255C1283
:1023F000081F000000009001D8E07002A3E0702FD9
:102400001225A7E0FCA3E0FD1225D212329D122571
:10241000B5EEF0A3EFF01225B5E0FEA3E0D39428CB
:10242000EE9400400A9001D8740BF0A374B8F02227
:10243000C0E0C083C082C0D075D018D2AFE5DB3019
:10244000E41CD204C201E5DB30E10E1232DAE0F521
:10245000DFEF7061758804805CC2000228AFE5DBA5
:1024600030E532900180E064AA701D75DBFF758A4B
:1024700010F5DAC2AFF5BAF5A8F5A9F58B758E029D
:10248000758DC0438D2080FED202300104C20180D0
:102490003EC204803AC201E5DB30E11EE5DB30E0FC
:1024A0002E1232DAE0F5DFEF600824EF7007D20574
:1024B0008003758804780E068015780E200008A623
:1024C000DFD200D2018008E61232DEE5DFF00675C9
:1024D000DBFFD0D0D082D083D0E0328F5BE4F560D8
:1024E000F55FF55EF55D7560A8755F61F55EF55D9C
:1024F000F55CE55B9032D893FFE55CC39F5052E5F5
:102500005B75F012A42421F8E55C25E028F8E6FECE
:1025100008E6FFE4C0E0C0E0EEC0E0EFC0E0E55B4D
:1025200025E024841215DFD0E0FFD0E0FED0E0FDEE
:10253000D0E0FC12062DE5602FFFE55F3EFEE55E74
:102540003DFDE55D3C8F608E5F8D5EF55D055C80D9
:10255000A1E47F607EEAFDFCAB60AA5FA95EA85D96
:10256000D31207584009E4756060755FEA800BACD0
:102570005DEC335009E4F560F55FF55EF55DAE5F47
:10258000AF6022900097E064016003022A0090018E
:1025900093E07002A3E06003022A009001BEE070A5
:1025A00002A3E0707B9001C0E07002A3E07071F5BF
:1025B000BAD2AF758B409001D8E0FCA3E0FD4C602F
:1025C00005758E198003758E46758D90438D204359
:1025D000A808200239200436E5DB54047030758ADF
:1025E0008420042AE5DB540470247587030000006E
:1025F000758A10AF8EEF25E0FFE433FE4F700CEDCF
:102600004C7E0060047F3280027F8C121AC0758B72
:1026100001758A1053A8F7538D7F538DEF123284C2
:102620002278FFE4F6D8FD9000007F007E03E4F0FE
:10263000A3DFFCDEFA758178022A59020000022F1E
:102640008DE493A3F8E493A34003F68001F208DF3E
:10265000F48029E493A3F85407240CC8C333C4546A
:102660000F4420C8834004F456800146F6DFE4801E
:102670000B01020408102040809031FAE47E01939F
:1026800060BCA3FF543F30E509541FFEE493A360F0
:10269000010ECF54C025E060A840B8E493A3FAE44B
:1026A00093A3F8E493A3C8C582C8CAC583CAF0A39C
:1026B000C8C582C8CAC583CADFE9DEE780BE8F58B5
:1026C000EF122C37E0FEA3E064014E7019900096E3
:1026D0007410F0E4FFEF122C7D5069EF122C37E4F8
:1026E000F0A3F00F80EF784412088775F002E558E8
:1026F000122C4D12054FFFAEF0E55825E02484F86A
:10270000E2FC08E2FDD39FEC9E4032ED9FFFEC9E81
:10271000FEE55825E024C2F582E43401F583E0FCAF
:10272000A3E0C39FEC9E5015122C35E0FEA3E04EB3
:102730007012122C357403F0A374E8F022122C35B9
:10274000E4F0A3F022121CE54E700E787FE2FD0843
:10275000E27882CDF208EDF222787FE2FC08E2FD19
:1027600012329DD3EF940AEE9400402618E2FE0840
:10277000E2FF7883E29F18E29E500B08E22401F208
:1027800018E23400F2227883E224FFF218E234FFE8
:10279000F222121CE57C007D03120899ECC0E0EDEA
:1027A000C0E0EEC0E0EFC0E0787FE2FE08E2FFE4C8
:1027B000FCFDD0E0FBD0E0FAD0E0F9D0E0121D1D26
:1027C0007882EEF208EFF222E5DB20E2787835122B
:1027D00014F8E5F08FF01205D478321214F8900056
:1027E0000212155378381214F89000041215537819
:1027F0003B1214F8900006121553783E1214F8900C
:102800000008121553784D1214F890000A1215534F
:1028100078501214F890000C12155378531214F8D3
:1028200090000E1215537882E2FF08E2900010CF5C
:102830008FF01205F39001C6E0FFA3E0900012CFE5
:102840008FF01205F322E5589032C99375F002908B
:102850002E06020869E55825E024BEF582E434011D
:10286000F58322782E120887E55775F002A4F582C9
:1028700085F08322120899E47B0AFAF9F81206C659
:10288000EF255DF55DEE355CF55C22782E1208874C
:1028900090000412054F2FFFEE35F0FE22C3940185
:1028A00074809480229032C993240CF582E4342EF3
:1028B000F58322EE8FF00205F330056220035FC23C
:1028C00005E4F558C3E558122C7E5052122C26E030
:1028D000F559A3E0F55AAF58123193E558F87E0048
:1028E0007401088005C333CE33CED8F9FF7831E2C6
:1028F000FDEF5DAF586008123141122C6B80081259
:102900003141782E120887E558122C4A122C931266
:102910002C26E559F0A3E55AF00558022CA422C054
:10292000E0C0F0C083C082C0D0E8C0E0E9C0E0EA07
:10293000C0E0EBC0E0EFC0E0D2AF7881E26410709D
:102940002885B50B85B40CAB08AA09A90A12052481
:10295000FF787FE5F0F208EFF2758D0075B2007533
:102960008B0153A8F7087420F2D0E0FFD0E0FBD031
:10297000E0FAD0E0F9D0E0F8D0D0D082D083D0F027
:10298000D0E0328B618A6289638D64748C2564F82F
:10299000E26051120524FFED25E0244DF8E6FC0825
:1029A000E6FDD3EF9DE5F09C400D1215EBF583E4B9
:1029B000F0A37496F080261215EB12152712166FED
:1029C000401B78531214D7E5641214CD12054FFF43
:1029D000AB61AA62A963E5F08FF01205D4745125AA
:1029E00064F8760122019003E8012C006401900351
:1029F000E8012C006408081010646401020202005F
:102A00000527AB1001900092E064AA7003122FD941
:102A1000900190120875120524641045F07003129D
:102A20002F3F123069200608900096E0641070165F
:102A3000C2069000967411F0E490018FF09001931B
:102A400004F0A374F4F0900193E07002A3E090000E
:102A50009670057420F080037411F0300202C202F7
:102A6000228F657881E2642070F9122B25E56512CA
:102A700025DF50337835120887E5651225481205A1
:102A80004FFBE56525E02488F8E2FE08E2FFC3EF8E
:102A90009BFFEE95F0FE12259512254B12054F2F48
:102AA000FFEE35F0FE800912259512254B1225A068
:102AB000783812259712254B1225CC22E56575F042
:102AC0000AA42401F8E56A75F005A428F822E56552
:102AD00075F00AA424F5F582E43432F58375F00527
:102AE000E56A020869AF69AE68AD67AC667808024E
:102AF000079212077F8F718E708D6F8C6E22C37458
:102B00000193956DE493956C22E56575F00AA42216
:102B1000E4FF12042E7F011222801226B1E4F55741
:102B2000E557121616502FAF5712218F784D1214F9
:102B3000D7E5571214CD12154DAF571212DBAF5710
:102B40001208C6AF5712236EAF571210E1AF5712DB
:102B50002A9E055780CA121D34122C99022BA87583
:102B60008A100012323675EA81E4F5F675F304F541
:102B7000F275EB0700E5EC30E7FBAFE6EF7F00FE18
:102B8000ADE5EDCFEFCFE4CECE9037FF93FDC3EFB1
:102B90009DFFEE9400FE900190120875EE8FF012EA
:102BA00005D4E4F5EC75EB30758A10002253A87F4C
:102BB00012325212197A1230AE1232FF43A880E458
:102BC000F58D122DE590018FE014601214601A2427
:102BD0000270EC121E5E90018F7401F080E11216FB
:102BE0007690018F7402F080D6122EF0900097E05C
:102BF000640170CB12296380C67F007E047557374D
:102C00007558DFE4F9FBFA758A1000EF2BF582EEB8
:102C10003AF583E493FDC969C90BBB00010ABA33D5
:102C2000EABBDFE7855882855783E4936970089093
:102C300000927405F08005E4900092F0758A10000F
:102C4000228B638A648965855E66855F67856068B7
:102C5000E56245616032AB66AA67A968120446ABBB
:102C600063AA64A96512045F74012565F565E435FE
:102C700064F56474012568F568E43567F567E56215
:102C8000156270CC156180C822900098E0FF650D38
:102C9000600C8F0D90021D7401F0A374F4F090028B
:102CA0001DE07004A3E064017023AF0DFEEF64101B
:102CB0007002D203EF64204E7002C203900097E0CE
:102CC00064026002D206E490021DF0A3F022539148
:102CD000FE439201E4FFFE0FBF00010EBE02F8BFEB
:102CE000BCF530880875D74075D640800675D74248
:102CF00075D6425392FE43910175D98075DA5843D7
:102D0000A80275B80275F80222EFFDF87E00740182
:102D1000088005C333CE33CED8F9FF7831E2FBEF1C
:102D20005B6011EDC39402748094805007902E155F
:102D3000E04420F022EFFDF87E007401088005C316
:102D400033CE33CED8F9FF7831E2FBEF5B6011ED83
:102D5000C39402748094805007902E15E054DFF0E5
:102D6000228F5BE4F55CF55DEF122C28E0FEA3E01A
:102D7000FF7C007D19122C54E55B122C85E0FF7E50
:102D8000007C1A7D5E122C54FEAF5D22758D20E40E
:102D9000F5B275B6FF75B7FF75B2A2538DFE758E8D
:102DA0001F758DA0758B3878817410F275B2A343AE
:102DB000A80822EFFA122C7D50051232188005E483
:102DC000FF12326BEAFF1230E9EA9032C993FF1228
:102DD0002082EAFF02311540B80C0008002084016F
:102DE000F8014000003C301B0000000010301B00C8
:102DF00000000010301B00000000EF75F012A4244A
:102E00000AF8EB25E028F822EA25E02465F8E6FE3A
:102E100008E6FFEA25E02467F822C105C100C102E7
:102E2000C101010E00C104C103010D00C106025120
:102E30000000030800000B00EF9032C993FEF87405
:102E400001088002C333D8FC902E15F0EF9032D6E3
:102E500093902E1AF02274AA7583F5758255A57485
:102E6000557583FA7582AAA574A57583F575825583
:102E7000A522758A10758F0875ACFFE4F5927591DF
:102E8000FF7588DC5391E743881822902E1574044F
:102E9000F0EF9032D293902E1AF0EF9032D09390C0
:102EA0002E2EF022E5BA54016006E5A95404700CF8
:102EB00075BA8275BEF943BA0143A90422D3EF9DC6
:102EC000EE9C4007EF9DFFEE9CFE22C3ED9FFFECC2
:102ED0009EFE22ED4C6011E412045F0429F9E43AED
:102EE000FAED1D70EE1C80EB2201000201010202CE
:102EF00014140606070706030303780EE6FF249062
:102F0000F582E43400F583227BFE7A00790A7D2481
:102F10007C000232B303001E001903001E00197565
:102F2000B30802328400000000000000000000002E
:102F30000000000000000000000000000000000091
:102F40000000000000000000000000000000000081
:102F50000000000000000000000000000000000071
:102F60000000000000000000000000000000000061
:1033F0000000000000000000000000000000007E4F
:1034000000000000000000000000000000000000BC
:1034100000000000000000000000000000000000AC
:00000001FF
