:10000000001300AB39020000526E00000000000037
:1000100000000000000000000000000000000000E0
:10002000022A08D2AF53A8DF32000002281705DCED
:1000300005DC00020416D2AF320000022D0F7BFE59
:100040007A0079007D0A7C000232C7020403EF6067
:100050000D1231667881E2642070F9022BB31231FF
:10006000662200021823BB010689828A83E022509F
:1000700002E722BBFE02E32289828A83E49322BB49
:10008000010689828A83F0225002F722BBFE01F327
:1000900022EF8DF0A4A8F0CF8CF0A428CE8DF0A490
:1000A0002EFE22BC000BBE0029EF8DF084FFADF0C8
:1000B00022E4CCF875F008EF2FFFEE33FEEC33FCB2
:1000C000EE9DEC984005FCEE9DFE0FD5F0E9E4CEE8
:1000D000FD22EDF8F5F0EE8420D21CFEADF075F0B7
:1000E00008EF2FFFED33FD4007985006D5F0F222C0
:1000F000C398FD0FD5F0EA22C2D5EC30E709B2D59E
:10010000E4C39DFDE49CFCEE30E715B2D5E4C39F4B
:10011000FFE49EFE120483C3E49DFDE49CFC800387
:1001200012048330D507C3E49FFFE49EFE22C5F08E
:10013000F8A3E028F0C5F0F8E58215827002158377
:10014000E038F022BB010A89828A83E0F5F0A3E05F
:1001500022500687F009E71922BBFE07E3F5F009F4
:10016000E3192289828A83E493F5F074019322BB18
:100170000110E58229F582E5833AF583E0F5F0A3E5
:10018000E0225009E92582F886F008E622BBFE0A43
:10019000E92582F8E2F5F008E222E5832AF583E911
:1001A00093F5F0A3E99322BB010DC58229C582C551
:1001B000833AC58302050E5011C58229F808E5F07F
:1001C00026F618F5F0E58236F622BBFE11C5822927
:1001D000F808E225F0F5F0F218E23582F222F8E5AF
:1001E0008229F582E5832AF58374019325F0F5F0E1
:1001F000E4933822BB010A89828A83F0E5F0A3F0F8
:10020000225006F709A7F01922BBFE06F3E5F00914
:10021000F31922F8BB0111E58229F582E5833AF54D
:1002200083E8F0E5F0A3F0225009E92582C8F6083A
:10023000A6F022BBFE09E92582C8F2E5F008F22209
:10024000EF2BFFEE3AFEED39FDEC38FC22C3EF9BBD
:10025000FFEE9AFEED99FDEC98FC22E88FF0A4CC1D
:100260008BF0A42CFCE98EF0A42CFC8AF0EDA42CDD
:10027000FCEA8EF0A4CDA8F08BF0A42DCC3825F0AC
:10028000FDE98FF0A42CCD35F0FCEB8EF0A4FEA997
:10029000F0EB8FF0A4CFC5F02ECD39FEE43CFCEAA4
:1002A000A42DCE35F0FDE43CFC2275F008758200EB
:1002B000EF2FFFEE33FECD33CDCC33CCC58233C52B
:1002C000829BED9AEC99E58298400CF582EE9BFEBC
:1002D000ED9AFDEC99FC0FD5F0D6E4CEFBE4CDFA17
:1002E000E4CCF9A88222B800C1B90059BA002DECBB
:1002F0008BF084CFCECDFCE5F0CBF97818EF2FFF53
:10030000EE33FEED33FDEC33FCEB33FB10D70399FA
:100310004004EB99FB0FD8E5E4F9FA227818EF2FA7
:10032000FFEE33FEED33FDEC33FCC933C910D705C6
:100330009BE99A4007EC9BFCE99AF90FD8E0E4C9E5
:10034000FAE4CCFB2275F010EF2FFFEE33FEED3315
:10035000FDCC33CCC833C810D7079BEC9AE8994042
:100360000AED9BFDEC9AFCE899F80FD5F0DAE4CDA4
:10037000FBE4CCFAE4C8F922EB9FF5F0EA9E42F0E8
:10038000E99D42F0EC6480C864809845F022EB9FC0
:10039000F5F0EA9E42F0E99D42F0E89C45F022E843
:1003A000600FECC313FCED13FDEE13FEEF13FFD84B
:1003B000F122E8600FEFC333FFEE33FEED33FDECC7
:1003C00033FCD8F122E6FC08E6FD08E6FE08E6FF6D
:1003D00022E0FCA3E0FDA3E0FEA3E0FF22E2FC0894
:1003E000E2FD08E2FE08E2FF22E0F8A3E0F9A3E064
:1003F000FAA3E0FB22E2FB08E2F908E2FA08E2CB0A
:10040000F822ECF608EDF608EEF608EFF622ECF02E
:10041000A3EDF0A3EEF0A3EFF022ECF208EDF2086A
:10042000EEF208EFF222D083D082E493F608740152
:1004300093F608740293F608740393F6740473A891
:10044000828583F0D083D0821208361208361208D3
:1004500036120836E473E493A3C583C5F0C583C898
:10046000C582C8F0A3C583C5F0C583C8C582C822AC
:10047000D083D082E493F208740193F2087402935B
:10048000F208740393F2740473A42582F582E5F0F4
:100490003583F58322E0FBA3E0FAA3E0F922EBF039
:1004A000A3EAF0A3E9F022E2FB08E2FA08E2F9226B
:1004B000EBF208EAF208E9F222EC8EF0A4CCC5F0E7
:1004C000CCCDF8EFA4CEC5F02DFDE43CFCE8A42E85
:1004D000C8C5F03DFDE43CFCEFA4FFE5F028FEE4D8
:1004E0003DFDE43CFC228F58E4F559F55A7873122F
:1004F00014D8EF1214CE12054FF55E85F05D7876B4
:100500001214D8EF1214CE12054FF56085F05F7803
:10051000501214D8EF1214CE12054FF55C85F05B23
:10052000784D1214D8EF1214CE1215E6D3955CEE66
:10053000955B4025EF955CFDEE955BFCD3ED94302B
:10054000EC94754008755975755A3080048C598D36
:100550005A1215B01215198054C3E55C9FFDE55B76
:100560009EFCD3ED9410EC94274008755927755ADA
:100570001080048C598D5A1215B0F583E559F0A3FB
:10058000E55AF030031C1215B012152BD3942CEE43
:10059000940140141215BCF5837427F0A37410F075
:1005A00080061215BC121519E4F559F55A30032DC1
:1005B0001215BC12152B4E600EE55825E02445F8A7
:1005C0007613087688800CE55825E02445F87607F0
:1005D0000876D01216607606087640802EE55825FB
:1005E000E02419F582E4340212152B12156B24DA7B
:1005F000F582E4340112152B12156B2445F8A65D23
:1006000008A65E121660A65F08A6607B007A0079D5
:1006100059AD58122D73D3E55A9400E55994005002
:1006200003020C2F78531214D8E5581214CEE55952
:10063000855AF01205F3AE59AF5AE4FCFD7BB87A47
:1006400088F9F8C31207585006755988755AB8E5E5
:100650005812160712152B121684404B121660E61C
:10066000FE08E6FFC3E55A9FE5599E5018AE59AF04
:100670005A7C003003047DC880027D0A1204838EF8
:10068000598F5A80221214F224A5F9740135F0FA18
:100690007B017D0A7C001232C71214F2121622F579
:1006A00083E4F0A374A6F0748C2558F8E27003027A
:1006B0000BDA1214F212159CC083C0821207C91201
:1006C0001647D082D0831207EE1214F224ABF582C3
:1006D000E43401F583E475F00112050E1214F212F0
:1006E000162212152BC394F4EE9401405F1214F2FB
:1006F00024ABF582E4340112152BFF1215F212140B
:10070000F212159C1207B11206C61214F21215C885
:1007100012167DF0E5587D031215841214F212159D
:10072000C812152BFF12164B780212077F1214F213
:100730001215C812167D1214F112159C12081F0012
:100740000000001214DF1216221215191214F212F0
:1007500015C812152BFF12168440048E598F5A7833
:10076000531214D8E5581214CE1215E612162AE2C6
:10077000FC08E2FD1232B1EEFCEFFD78731214D8E2
:10078000E5581214CE121668C3EF9DEE9CE5585042
:100790005275F00AA412159C12081F0000000012E6
:1007A00014DF1216221214EC1215C8121519785300
:1007B0001214D8E5581214CE1215E6E4FCFDC0E080
:1007C000C0E0EEC0E0EFC0E012162AE2FE08E2FF51
:1007D000D0E0FBD0E0FAD0E0F9D0E0F812062078C3
:1007E00001800A7D07121584121647780312077FCD
:1007F00012162AEEF208EFF2800A12162AE559F2D2
:1008000008E55AF2121520FFE55825E02470F8E2B9
:100810002FF55A18E23EF559D3E55A9430E559942C
:10082000754006755975755A30E5DB54047051787A
:100830006C1214D8E5581214CEE559855AF01205F9
:10084000F3E55A24A8FFE5593461FE78668026E571
:10085000DB5404702B78661214D8E5581214CE12AB
:1008600015DE78531214D8E5581214CE1216511210
:100870001520FF786C1214D8E5581214CE121558B2
:1008800022E4F55C122573506D12255912080600FA
:10089000002710E55C1225E65057AF5C12327F7FCF
:1008A0000212258A902E10E020E20575870180F45F
:1008B0001225F29032E69333333354F8FE902E042F
:1008C00078351225401225FD902E10E4F07F02129B
:1008D000313DE55C25E02489F9E3700219E37011EC
:1008E000783512254A1225CA2488F8E5F0F208EF77
:1008F000F2055C020C64E4F55BC3E55B9401748073
:1009000094804003020DF9E4F55C12257340030264
:100910000DF4E55B2401FFE433FEE55C9032E093E7
:10092000FDD3EF9D7480F86E984003020DEFAF5C2D
:10093000123212AF5C12258A902E10E020E205756B
:10094000870180F41225F29032EA9333333354F85E
:10095000FEE55C9032DD9375F002902E001208697E
:1009600078321225401225FDAF5C12313DAF5C128A
:100970002E41783812254A12054FFDACF0AF5C12BB
:100980002476783B12254A1225D312254D1225A72D
:10099000E48F698E68F567F566855C6AFF121F8CC7
:1009A000783E12254A1225D3122559C0E01207A518
:1009B000ECC0E0EDC0E0EEC0E0EFC0E0783E122514
:1009C0004A1225CA2449F8E6FC08E6FDC3EF9DFF5C
:1009D000E5F09CFEEFFBEEFA3395E0F9F8D0E0FF8E
:1009E000D0E0FED0E0FDD0E0FC120620D0E0F8120E
:1009F00007E2902E15E4F0E55C75F002A4FF783E66
:100A0000120887E92FF9EA35F0FAAF5C12276A0578
:100A10005C020CEA055B020CD9E4F55C122573401C
:100A200003020EC51225591207A5E47B507AC3F9BB
:100A3000F8C3120758500C1225591208060000C3BB
:100A40005080141225591207A5EC33500A1225596B
:100A5000120806000000001225591207A57841125D
:100A6000254A1225D3784412254A12054F45F070C5
:100A70000A784112254A1225A7803E784412254A59
:100A80001225A77C007D02120899ECC0E0EDC0E0C1
:100A9000EEC0E0EFC0E0784112254A1225A7E4FC41
:100AA000FDD0E0FBD0E0FAD0E0F9D0E0F81206206B
:100AB000E47B03FAF9F81206C6784412254A122597
:100AC000FDE55C25E02485F9E3700219E3701178F7
:100AD0004412254A1225CA2484F8E5F0F208EFF200
:100AE000055C020DFC228F59E4F55AF55B748C2FDE
:100AF000F8E270030210D2EF121CE0121C3B4E70A1
:100B0000199001F0E0FEA3E0FF121CDE121CA912F6
:100B10001C0E121C21E5F0020F9C121CDE121C3B65
:100B2000FF9001F0E0FCA3E0FD1232B1121D13F5BD
:100B300083EEF0A3EF121C42E06003020FA2121D2D
:100B400013121C3B121D3B4006121C437401F01291
:100B50001C22E0FEA3E0FF121C0EFDACF01232B12D
:100B6000121D1F121CA9121D1F121C3B121D3B50EF
:100B700015E5599032649330E111121C0EC394585C
:100B8000E5F094025005121C43E4F0121C0EFFAE77
:100B9000F0E4FCC0E0C0E0EEC0E0EFC0E0121C22D8
:100BA000E0FEA3E0FF7D03120899D0E0FBD0E0FA5D
:100BB000D0E0F9D0E0121D2B121C22EEF0A3EFF0D2
:100BC000801AE5599032649330E111121C0EC394DF
:100BD00090E5F094015005121C43E4F0121C43E030
:100BE00070030210E8121C22E0FEA3E0121D345034
:100BF000030210E8784D121C10FFAEF07850121C62
:100C000010C39FE5F09E50177850121C10FFAEF0F5
:100C1000784D121C10ACF0C39FF55BEC9EF55A1298
:100C20001C22E0FCA3E0FDAF5BAE5A1232B1121CF5
:100C30000AFFAEF0121C22E0FCA3E0FDD39FEC9E65
:100C4000400BD3E55D94C8E55C94005011C3ED9F63
:100C5000EC9E5012E55D94C8E55C94004008121CBF
:100C600043E4121C6222121C0EFFAEF01232B112CB
:100C70001C0A121C21E0FCA3E0D39FEC95F0403A43
:100C8000D3E55D940AE55C9400402F121C78121C99
:100C90003BD394E0EE64809431401F7850121CB333
:100CA000E559A4F58285F08374FF75F0F6121C7582
:100CB000F58374FF75F0F612050E121C0E121C213E
:100CC000E0FCA3E0C39FEC95F0503DE55D940AE5A0
:100CD0005C940040337850121CB3E559A4F582852A
:100CE000F083E475F00A121C75F583E475F00A02CE
:100CF000050E121C78F583E4F0A3121C62121C226C
:100D0000E4F0A3121C42E4F0228F58748C2FF8E216
:100D1000702178531214D8EF1214CE12054FFFE54C
:100D2000581215D0E5F09C500A900193E07002A390
:100D3000E0603A12154A2456F9E4FA7BFE7D08FC7D
:100D40001232C7900193E07002A3E070030212DB3D
:100D5000784D1214D8E5581214CE1215E6785012B8
:100D600014D8E5581214CEEE8FF00205F312154A8E
:100D70002456F8C0E01207BDECC0E0EDC0E0EEC0C4
:100D8000E0EFC0E0784D1214D8E5581214CE1205E9
:100D90004FAEF01215F2D0E0FFD0E0FED0E0FDD073
:100DA000E0FC120620D0E0F81207FA12154A245A85
:100DB000F808E22401F218E23400121549245DF922
:100DC000C3E394E819E3940350030212DB12154ABB
:100DD0002456F8C0E01207BDECC0E0EDC0E0EEC064
:100DE000E0EFC0E012154A245A1215EDD0E0FFD012
:100DF000E0FED0E0FDD0E0FC1206C6D0E0F812071D
:100E0000FA74512558F8E66401603478731214D8E6
:100E1000E5581214CE121668784D1214D8E55812FF
:100E200014CE12054F2FFFEE35F0FE78501214D875
:100E3000E5581214CE12054FD39FE5F09E402012C4
:100E4000154A2456F81207BD78501214D8E55812E6
:100E500014CE12155874512558F8E4F60212BB78D6
:100E6000501214D8E5581214CE12054FFBAAF012F6
:100E7000154A2456F81207BDC3EB9FF55AEA9EF5B2
:100E80005974542558F582E43401F583E02BFFE4CE
:100E90003AFEE4FCFD12154A2456F81207D5D31287
:100EA000076EAE59AF5AE558400590325E80039008
:100EB000325C93FD7C001204D88E598F5A78501200
:100EC00014D8E558A429F9EA35F0FA120524C39597
:100ED0005AFFE5F095598FF01205D412154A2456A1
:100EE000F81208500000000012154A245AF8E4F2E3
:100EF00008121549245CF8E4F208F2228F58748C29
:100F00002FF8E2FF601B121C91F583E0FCA3E04C7C
:100F1000700F121CEB121C91F583ECF0A3EDF08026
:100F20002BEF70287876120887E558121C15FFAE53
:100F3000F0121CB1E558121C18C39FE5F09E500C2E
:100F4000121C91121C6E121CFB121C6E121C9112B0
:100F50001C3BFF121D3450030213E4121CEB12322F
:100F6000B1121CBA121CA9121CBA121C3BD3940A4F
:100F7000EE940050030213E4121CB1E558121C1841
:100F8000FFAEF0D394E8EE940340797C007D0A1222
:100F900004837802EFC333CE33CED8F9F55A8E5995
:100FA000121C30C3955AEE95595059755B04E4F5FF
:100FB0005CF55D121CB1E558121C18D39440E5F0A5
:100FC000941F4003755B14121CBAF583E0FCA3E088
:100FD000FDAF5B7E001204718E5C8F5DD3E55D9585
:100FE0005AE55C9559400685595C855A5D121C305E
:100FF000C3955DEE955C500C121CFBF583E55CF02F
:10100000A3E55DF0748C2558F8E260030214AD127C
:101010001C56121C3B121CEAC3EF9DEE9C4004EFD1
:101020004E700A121C56F583ECF0A3EDF0121C85ED
:10103000121C3B121D344025121C9D121C3BC394F4
:101040000AEE94004017121CC6E07011121CC6E094
:1010500004121C84F5837401F0A374F4F0121C854F
:10106000121C3B4E705C121C56121C3B121CEAD325
:10107000EF9DEE9C400EEF9DFFEE9CFE121C9D121C
:101080001CA98006121C9D121C6E121C9D121C3B7A
:10109000121D3B4017121CD2F5837413F0A3748801
:1010A000F0121D07F583E4F0A37496F0121CC6E459
:1010B000121C84F5837403F0A374E8F0121C4F1221
:1010C0001CA9121CD2121C3B4E7014800C121C4F17
:1010D000121CA9121CD2121C6E121D07121C6E22A9
:1010E000E493FE740193FF120887ED75F002A4F5F6
:1010F0008285F08322FFAEF012088775F00222E5A8
:101100005875F00AA424ABF582E43401F583E4F0C9
:10111000A3F0E55875F00AA4221208879000021285
:10112000054FFF9001BB02087575F00AE55A1208D9
:1011300069E55975F00AA42583F583E4F0A3F0224C
:10114000E55825E0241FF582E43402F583E0FEA390
:10115000E022E55D25E025E02427F582E43402F570
:101160008375F002E558020869F2E55875F008A4A5
:1011700022E5F08FF00205F3EE8FF00205F37425FF
:101180002558F582E43402F583E022FF255EF55E02
:10119000EE355DF55DEF2560F560EE355FF55FE5F9
:1011A0005825E02225E0246FF8E2FE08E2FF7C00EB
:1011B000120899ECF8EDF9EEFAEFFB2224A7F5827C
:1011C000E43401F58322E55AC394027480948022AA
:1011D000E55825E0249DF582E4340122E55825E018
:1011E00024A1F582E434012224ADF582E434012205
:1011F00025E02445F8E6FC08E6FDC3EF9D22746176
:1012000075F0A80205F312054FFFAEF022F8E2FEDA
:1012100008E2FBEEFAE4F9F822E56425E02495F50E
:1012200082E4340122E55825E02499F582E4340172
:1012300022ED75F008A42450F582E43432F583E4FD
:10124000932224A5F582E4340122E55825E0246F99
:10125000F822120887020524ED75F008A4244CF545
:1012600082E43432F58322AE59AF5AE4FCFD020623
:1012700020E4F5F00205F3F8740193FFED25E02278
:10128000E55825E0244DF82212054F25E0FFE5F052
:1012900033FE2225E0246FF8E4F208F222F583EE13
:1012A000F0A3EF22D39400EE94002212041E123217
:1012B000FC7A0179DE7D2E12181B7F0112042EE4C8
:1012C000FDED1215A8501FED25E02488F8E4F20882
:1012D000F2ED25E02484F8E4F208F278441214C711
:1012E0001216510D80DB7B007A0079217D127C0083
:1012F0001232C77BFE7A0079567D107C001232C70D
:101300007A0279257D0212181B7A0279277D107CDA
:10131000001232C7E4FDED1215A840030217D3787E
:10132000661214C71215DE78691214C71215DEEDA5
:10133000121673786C1214C7121651748C2DF8E4BF
:10134000F2ED90326093FF74542DF582E43401F590
:1013500083EFF012163878731214C0121558ED7519
:10136000F008A4244EF582E43432F583787912141F
:10137000C0121558121611FE740193FF78761214DC
:10138000C7121558ED75F008A42452F582E43432E2
:10139000F583E493FE740193FF787C1214C7121551
:1013A00058121638E4931216572445C8F608EFF67B
:1013B000121611121657244DC8F608EFF6ED9032AA
:1013C000EA9333333354F8F8ED25E02449C8F6089E
:1013D000E4F6ED25E0240EF582E43404F583E4938D
:1013E000FE12165824C2F582E4340112167DF00D67
:1013F0000216F6E4900223F0A3F0C3900194E09467
:10140000F4900193E0940150077401F0A374F4F098
:101410007B017A0179C67D147C001232C77F0312EA
:10142000229A784A1208878B5E8A5F89607561000C
:1014300075620478501208870230217B017C00120B
:1014400032C722C0E0C0F0C083C082C0D0E8C0E094
:10145000D2AFD3900194E09400900193E0940040C7
:1014600003122617122657500312269DC3786512C1
:10147000265A500312269DD3900196E094009001C5
:1014800095E094004003122617D3900198E0940051
:10149000900197E094004003122617D390019AE040
:1014A0009400900199E094004003122617D3900114
:1014B0009CE0940090019BE09400400312261712D8
:1014C000266C500312269612267A5003122696D3C3
:1014D0009001A2E094009001A1E094004003122644
:1014E00017D39001A4E094009001A3E0940040037E
:1014F000122617D39001BAE094009001B9E094004D
:1015000040031226171226885003122696D3900104
:10151000BFE094019001BEE094004003122617D36F
:101520009001C1E094019001C0E0940040031226B4
:1015300017D39001D9E094009001D8E094004003C3
:10154000122617D390021EE0940190021DE0940031
:101550004003122617D3900203E09400900202E0A9
:1015600094004003122617D3900205E094009002E5
:1015700004E094004003122617D3900207E0940081
:10158000900206E094004003122617D3900209E06F
:101590009400900208E094004003122617D0E0F86F
:1015A000D0D0D082D083D0F0D0E0327B017A0079E5
:1015B000CC78321208907A0079C878351208907A7F
:1015C0000079D078381208907A0079D4783B1208E4
:1015D000907A0079D8783E1208907A0079DC7841C8
:1015E0001208907A0079E078441208907A0079E441
:1015F00078471208907A0079E8784A1208907A00C1
:1016000079EC784D1208907A0079F07850120890B1
:101610007A0079F478531208907A0079AA786612E1
:1016200008907A0079A6786C1208907A0079AE78E2
:10163000691208907A0079A0782E1208907A0079C1
:101640009A90019012087E7A0079B278731208900D
:101650007A0079B678761208907A0079C47879128F
:1016600008907A0079BA787C1208907A0179009013
:1016700001BB12087E902DE0E493900092F0902D33
:10168000E2E493900095F0902DE3E493900094F0C1
:10169000902DE4E493900183F09000977401F09012
:1016A00000997410F0E490018EF09000987420F08E
:1016B0009000BEF09000C17418F09000BF742CF040
:1016C0009000C27420F09000C07417F09000C30422
:1016D000F0E4900223F0A3F09001937407F0A37458
:1016E000D0F0E490018FF0900098E0F50D22EFFB30
:1016F000EEFA900193122603400690019312260DF4
:10170000122657500808E22BF218E23AF2786512D6
:101710002659500808E22BF218E23AF2900195128D
:101720002603400890019512260D8007E49001954C
:10173000F0A3F0900197122603400890019712261B
:101740001E8007E4900197F0A3F090019912260300
:10175000400890019912261E8007E4900199F0A399
:10176000F090019B122603400890019B12262880CE
:1017700007E490019BF0A3F012266C50031226A8F8
:1017800012267A50031226A89001A11226034006C1
:101790009001A11226289001A31226034006900171
:1017A000A312263212268850031226A89001BE12D8
:1017B000263C40069001BE1226629001C012263CD3
:1017C00040069001C01226629001D81226034006FE
:1017D0009001D8122632EB2401FFE43AFE90021D5C
:1017E000122643400CED9BFEEC9A90021DF0A3CE16
:1017F000F0900202122603400690020212264D903B
:101800000204122603400690020412264D9002069E
:1018100012260340069002061226AE9002081226F7
:101820000340069002081226AE228E5C8F5D78532C
:10183000120887E55975F002A4F58285F083020548
:101840004FFFE55925E024E4F582E43401F58322D5
:10185000E55825E02419F582E43402F583E0FEA37F
:10186000E022F074DE2559F582E43401F583227814
:1018700082E2FE08E2FFE55825E024FAF582E4342E
:101880000122F0E55925E024E0F582E43401F583F6
:10189000E4F0A3F022120587E55925E024ECF58257
:1018A000E4340122F0E55825E02402F582E4340214
:1018B00022E55825E02411F582E4340222E558257A
:1018C000E024FEF582E4340122F583EEF0A3EFF08C
:1018D00022785312088775F00222E55825E0241576
:1018E000F582E4340222740A2558F582E43402F5C4
:1018F0008322E55825E02406F582E4340222E559E6
:1019000025E024E0F582E4340122FF7882E2FC083D
:10191000E2FD227882E2FE08E2FF22E55825E0247B
:1019200019F582E4340222E55825E024DAF582E450
:10193000340122E55925E0240CF582E4340222E545
:101940005925E024E8F582E4340122F812062078D3
:101950000202077FD39400EE940022D39414EE94F5
:101960000022E4F558FFF559F55AAE5A748C2EF85A
:10197000E2601C7462255AF58274323559F583E4AD
:1019800093FD4258748E2EF8E26004EDCF4FCF05E0
:101990005AE55A700205596402455970CD90009974
:1019A000E06420700B900223E558F0A3EFF080076D
:1019B000E4900223F0A3F0900223E0FF900090E077
:1019C000FE6F700F900224E0FD900091E06D7003B7
:1019D000021E6BEE6FF558E4F559F55AAF5A748C48
:1019E0002FF8E27063C8EFC8E558088002C313D827
:1019F000FC30E054E55A25E0FFE55933FE786C12DF
:101A000008878F828E83121651E55A1216737866F4
:101A10001208878F828E831215DE9001AD12150990
:101A20009001A775F00AE55A120869E55975F00AA0
:101A3000A42583F58312081F000000009001AB125B
:101A400015099001A5121509055AE55A70020559A4
:101A5000640245597086900223E0900090F0900255
:101A600024E0900091F09001B9E4F0A37464F0E4F4
:101A7000F588D39001BAE094009001B9E094004059
:101A800007308AEEE4F0A3F0758804788DE225E053
:101A9000FF18E24F9000FFF022E47831F2755EFF0C
:101AA000755F317560B1F56175620E7B017A2E79D3
:101AB00010123021E4F557C3E557940374809480E5
:101AC0005047E5579032DD9375F007A42420F97450
:101AD0002E35F0FA7B01EBC0E0EAC0E0E9C0E0E5BA
:101AE0005775F007A424BFF9743135F0755EFFF522
:101AF0005F8960756100756207D0E0F9D0E0FAD0C7
:101B0000E0FB123021055780AE902E0AE4F0A3F0DE
:101B1000902E0EF07F0212318D7F021230E9782E66
:101B2000120887900004122CA3E4F557C3E557125E
:101B30002C8E5067E557122C38E4F0A3F0E55712CD
:101B40002C95E4F0121F81122C53122CA3E5579010
:101B500032E8936407603F122C5312054FFFAEF03A
:101B600090000412054F24E8FDE5F03403FCC3EDBA
:101B70009FEC9E50217831E2FFAE57EEF8740108D9
:101B80008002C333D8FC4F7831F2121F81122C7BB4
:101B9000122C58122CA30557021F0C902E15E4F09E
:101BA00022AF5712318DAF571230E9228F65EF7592
:101BB000F00AA42400122EA4E2F56BEF122E9E125E
:101BC00007BDE4FBFAF9F8C312076E7009122EC5BF
:101BD000122E9C1207FA122E9C1207BD78081207CB
:101BE0007FAC68AD691232B18E6C8F6D122EC58FCD
:101BF000698E688D678C66AF6B7E00EF7012122E57
:101C0000E924D6F582E4342D122EBB122EDE401DBF
:101C1000D3EF9400EE648094804017122EE924D80C
:101C2000F582E4342D122EBB122EDE5005756B05A5
:101C3000800DD3E56B9400748094804002156BE5B1
:101C40006B600F85697185687085676F85666E0248
:101C50002075122EAEE493F87E007401088005C34F
:101C600033CE33CED8F924FFFFEE34FFFE3395E0B8
:101C7000FDFC122E9C1207D512063BEF2569FFEEE4
:101C80003568FEED3567FDEC3566FC122EAEE4934B
:101C9000F9F8122ED2AF71AE70AD6FAC6E122E9CF1
:101CA0001207FAAF71AE70AD6FAC6E7808122ED21B
:101CB000122EE92400122EA4E56BF222EFFD902EE5
:101CC0001AE0755D00F55E7401F075F002ED122CFE
:101CD0003F7410F0A3E4F0902E10F0FCECC3940DD0
:101CE0007480948040030221A2EC04F87E10E40882
:101CF0008006CEA2E713CE13D8F8F55C8E5B455B69
:101D00007005F55B755C019031B1E4934403902E4E
:101D100010F0902E10E030E2F975F002ED902E00F8
:101D2000120869E0FEA3E02400FFEE3408FED3EFC2
:101D300094FEEE64809487403B75F002ED122C3FD8
:101D4000E0FEA3E0255CFFE55B3EFEC3EF94FFEE03
:101D5000941F75F002ED902E06500D120869E55B98
:101D6000855CF012050E8051120869741FF0A3748F
:101D7000FFF0804575F002ED122C3FE0FEA3E0D3AA
:101D8000955CEE955B402775F002ED122C3FC08309
:101D9000C082C3A3E0955CFF0582D582021583153E
:101DA00082E0955BD082D083F0A3EFF0800B75F0DA
:101DB00002ED122C3FE4F0A3F0902E10E4F00C02A0
:101DC00020BC902E1AE55EF0228F5874252F121534
:101DD00062FFC39404748094805020784A1214D80F
:101DE000E5581214CE12054FFDACF0EF121534EC8D
:101DF000F0A3EDF012155E04F08050755D01C3E5AF
:101E00005D9404748094805021121532E0FEA3E0AA
:101E1000FFE55D25E025E02423F582E43402121578
:101E20003FEEF0A3EFF0055D80D4784A1214D8E5B8
:101E3000581214CE12054FFFE55825E02433F582E1
:101E4000E43402F583E5F0F0A3EFF0E4F55CF55B34
:101E5000F55AF559F55D12155EFFE55DC39F5026F5
:101E6000121532E0FEA3E0FFE4FCFDE55C2FFFE588
:101E70005B3EFEED355AFDEC35598F5C8E5B8D5A1D
:101E8000F559055D80D0AF5CAE5BAD5AAC59ECC086
:101E9000E0EDC0E0EEC0E0EFC0E012155EFBE4FA5A
:101EA000F9F8D0E0FFD0E0FED0E0FDD0E0FC120673
:101EB000C68F5C8E5B8D5A8C59228F58E4F559E59C
:101EC00059C395584003022347120C61E4F55A1296
:101ED00015A64003022342E5592401FFE433FEE541
:101EE0005A9032EC93FDD3EF9D7480F86E98506D4C
:101EF0007844120887E55A1214CB12054F7847121E
:101F000014D5E55A1214CE121558E55A75F012A4DC
:101F1000FF2421F9E4C0E0C0E0E9C0E074232FF918
:101F2000E4F55EF55F8960F561756206D0E0F9D091
:101F3000E0FAD0E0FB12302178471214D8E55A12AB
:101F400014CE1215E6E55A75F012A4241FF8E55ACE
:101F50009032EC9325E028F8EEF608EFF6055A02E9
:101F600022AF055902229FE4F55A1215A65038AF48
:101F70005A1228C2784A1214D8E55A1214CE1215F1
:101F80005878441214D8E55A1214CE12054F54054D
:101F9000FFE55A25E0241FF582E43402F583E4F0DE
:101FA000A3EFF0055A80C3228F58D3900194E09498
:101FB00000900193E09400400302247578531214BA
:101FC000D8EF1214CE1215E6E5581215D0EE9C503B
:101FD00015748C2558F8E26020E55825E0244D1250
:101FE00015D4EE9C401312160512152B4E702B744F
:101FF0008C2558F87401F28021121605F583E4F05F
:10200000A37496F0748C2558F8E4F2748E2558F871
:10201000E4F2E5581215FB121519748C2558F8E2F4
:102020006073E558F87E007401088005C333CE3331
:10203000CED8F9FF90018EE0FDEF5D605178791206
:1020400014D8E5581214CE12054F78531214D5E562
:10205000581214CE12054FFDACF0C39FEC9E5025D4
:10206000748E2558F8E26026ED2432FFE43CFE78B9
:10207000791214D8E5581214CE12054FFDC3EF9D06
:10208000EE95F04009748E2558F87401F222748E92
:102090002558F8E4F2228C658D66EF75F012A424C1
:1020A0001AF8E565F208E566F2E4FEEEC3940874FA
:1020B000809480504DEF75F012A4240BF8EE25E0CB
:1020C00028F9E3700219E3700C1231D4E565F208C7
:1020D000E566F28017EF75F012A4240C1231DBE2F2
:1020E000FC08E2FD1231D4ECF208EDF21231D4E238
:1020F000FC08E2FDEE25E02467F8ECF608EDF60EAC
:1021000080A9E4FEEEC3940874809480503AE4FF02
:10211000EFC3940774809480502B1231E2E6F5836C
:1021200008E6F582C39DE5839C5017AA83AB821213
:1021300031E2ECF608EDF6EF25E02467F8EAF60860
:10214000EBF60F80CB0E80BCAE71AF72EFFBEEFAF8
:10215000E4F9F8AE6FAF70FCFD1206200802077FAD
:10216000E0FCA3E02400FFEE3CFE120887E55C756E
:10217000F002A4F58285F08322E55C25E025E024C9
:102180005DF822E56525E025E024CEF582E4340102
:10219000F58322C3E55C94027480948022F074D6A7
:1021A0002565F582E43401F5832212311443A82019
:1021B0009031B1E4934403902E10F022783212084B
:1021C0008775F002E5652212054FFFAEF022E56546
:1021D00025E024CAF582E43401F58322E56525E093
:1021E00024C6F582E43401F5832212054FFFE55C35
:1021F00025E022EE8FF00205F3AB66AA67A968120C
:102200000524FFAEF0229032E293C39403748094CD
:102210008022902E10E4F053A8DFE55C22EE8FF0D0
:102220000205F3E0FEA3E0FFD39BEE9A22EF9BFFB3
:10223000EE9AF0A3EFF02274FFF5F002050EEF9B8B
:10224000FFEE9AF0A3EFF022EF9BFFEE9AF0A3EFE0
:10225000F022EF9BFFEE9AF0A3EFF022EB2401FFB8
:10226000E43AFEE0FCA3E0FDD39FEC9E22EF9BFF4F
:10227000EE9AF0A3EFF022785DC3E294E818E294BE
:102280000322ED9BFEEC9AF0A3CEF022C39001A6B0
:10229000E094F49001A5E0940122C39001B0E09491
:1022A000F49001AFE0940122C39001F9E0946490AE
:1022B00001F8E0940022E475F00102050E08E22422
:1022C00001F218E23400F222EA8BF002050EEF9BD5
:1022D000FFEE9AF0A3EFF0229001F21207C9E8C0D6
:1022E000E0E9C0E0EAC0E0EBC0E0121CF3E4FCFD72
:1022F000D0E0FBD0E0FAD0E0F9D0E0F81206209070
:1023000001F21207EE9001F6E475F00112050EC31A
:102310009001F9E094649001F8E09400406B900122
:10232000F21207B1ECC0E0EDC0E0EEC0E0EFC0E0BB
:102330009001F6E0FEA3E0FBEEFAE4F9F8D0E0FF4E
:10234000D0E0FED0E0FDD0E0FC1206C69001F21213
:1023500007EE9001F21207B19001F0EEF0A3EFF05A
:10236000A312081F00000000E49001F6F0A3F0A300
:10237000F0A3F0F558C3E558940274809480500996
:10238000AF58120EC6055880EC228F658B668A679F
:102390008968EF122565C083C0821207C9E8C0E0D2
:1023A000E9C0E0EAC0E0EBC0E01225D9E4FCFDD0D2
:1023B000E0FBD0E0FAD0E0F9D0E0F8120620D082BD
:1023C000D0831207EE12257EE00412257DE0FFD3B4
:1023D000940A748094804025EFFBE4FAF9F8122502
:1023E000631207B11206C61225AEEEF0A3EF122556
:1023F0007DE4F012256312081F000000009001D850
:10240000E07002A3E0702F1225AEE0FCA3E0FD1205
:1024100025D91232B11225BCEEF0A3EFF01225BC83
:10242000E0FEA3E0D39432EE9400400A9001D87409
:102430000BF0A374B8F022C0E0C083C082C0D07596
:10244000D018D2AFE5DB30E41CD204C201E5DB30AA
:10245000E10E1232EEE0F5DFEF7061758804805C0A
:10246000C2000228B6E5DB30E532900180E064AAC4
:10247000701D75DBFF758A10F5DAC2AFF5BAF5A8E5
:10248000F5A9F58B758E02758DC0438D2080FED227
:1024900002300104C201803EC204803AC201E5DB81
:1024A00030E11EE5DB30E02E1232EEE0F5DFEF60CA
:1024B0000824EF7007D2058003758804780E068023
:1024C00015780E200008A6DFD200D2018008E6129F
:1024D00032F2E5DFF00675DBFFD0D0D082D083D0BA
:1024E000E0328F5BE4F560F55FF55EF55D7560A841
:1024F000755F61F55EF55DF55CE55B9032EC93FF31
:10250000E55CC39F5052E55B75F012A42421F8E509
:102510005C25E028F8E6FE08E6FFE4C0E0C0E0EE57
:10252000C0E0EFC0E0E55B25E024841215EDD0E0CB
:10253000FFD0E0FED0E0FDD0E0FC12062DE5602FDC
:10254000FFE55F3EFEE55E3DFDE55D3C8F608E5F35
:102550008D5EF55D055C80A1E47F607EEAFDFCABED
:1025600060AA5FA95EA85DD31207584009E47560B0
:1025700060755FEA800BAC5DEC335009E4F560F503
:102580005FF55EF55DAE5FAF6022900097E064019D
:102590006003022A07900193E07002A3E060030247
:1025A0002A079001BEE07002A3E0707B9001C0E0BA
:1025B0007002A3E07071F5BAD2AF758B409001D86C
:1025C000E0FCA3E0FD4C6005758E198003758E4616
:1025D000758D90438D2043A808200239200436E5EC
:1025E000DB54047030758A8420042AE5DB540470BF
:1025F00024758703000000758A10AF8EEF25E0FF79
:10260000E433FE4F700CED4C7E0060047F3280029C
:102610007F8C121ACE758B01758A1053A8F7538DD3
:102620007F538DEF1232982278FFE4F6D8FD9000A8
:10263000007F007E03E4F0A3DFFCDEFA7581760202
:102640002A60020000022F8DE493A3F8E493A340D4
:1026500003F68001F208DFF48029E493A3F854071D
:10266000240CC8C333C4540F4420C8834004F45618
:10267000800146F6DFE4800B010204081020408050
:102680009031F4E47E019360BCA3FF543F30E50930
:10269000541FFEE493A360010ECF54C025E060A850
:1026A00040B8E493A3FAE493A3F8E493A3C8C582E3
:1026B000C8CAC583CAF0A3C8C582C8CAC583CADF51
:1026C000E9DEE780BE8F58EF122C47E0FEA3E064FE
:1026D000014E70199000967410F0E4FFEF122C8DEB
:1026E0005069EF122C47E4F0A3F00F80EF7844120A
:1026F000088775F002E558122C5D12054FFFAEF009
:10270000E55825E02484F8E2FC08E2FDD39FEC9E26
:102710004032ED9FFFEC9EFEE55825E024C2F58295
:10272000E43401F583E0FCA3E0C39FEC9E50151256
:102730002C45E0FEA3E04E7012122C457403F0A36A
:1027400074E8F022122C45E4F0A3F022E5DB30E23D
:1027500003022BB27835121632121502E5F08FF013
:102760001205D478351214F99000021215517832FE
:1027700012163212150290000412155178321214FA
:10278000F9900006121551783E1216321215029079
:102790000008121551783E1214F990000A121551D2
:1027A000784D12163212150290000C121551784D08
:1027B0001214F990000E121551785012163212159B
:1027C0000290001012155178501214F99000121254
:1027D000155122121CF34E700E787FE2FD08E2784C
:1027E00082CDF208EDF222787FE2FC08E2FD12329F
:1027F000B1D3EF940AEE9400402618E2FE08E2FFFF
:102800007883E29F18E29E500B08E22401F218E25E
:102810003400F2227883E224FFF218E234FFF2223D
:10282000121CF37C007D03120899ECC0E0EDC0E0BF
:10283000EEC0E0EFC0E0787FE2FE08E2FFE4FCFDDE
:10284000D0E0FBD0E0FAD0E0F9D0E0121D2B788286
:10285000EEF208EFF222E5589032DD9375F0029027
:102860002E06020869E55825E024BEF582E434010D
:10287000F58322782E120887E55775F002A4F582B9
:1028800085F08322120899E47B0AFAF9F81206C649
:10289000EF255DF55DEE355CF55C22782E1208873C
:1028A00090000412054F2FFFEE35F0FE22C3940274
:1028B00074809480229032DD93240CF582E4342ECF
:1028C000F58322EE8FF00205F330056220035FC22C
:1028D00005E4F558C3E558122C8E5052122C36E000
:1028E000F559A3E0F55AAF5812318DE558F87E003E
:1028F0007401088005C333CE33CED8F9FF7831E2B6
:10290000FDEF5DAF5860081230E9122C7B80081291
:1029100030E9782E120887E558122C5A122CA3128F
:102920002C36E559F0A3E55AF00558022CB422C024
:10293000E0C0F0C083C082C0D0E8C0E0E9C0E0EAF7
:10294000C0E0EBC0E0EFC0E0D2AF7881E26410708D
:102950002885B50B85B40CAB08AA09A90A12052471
:10296000FF787FE5F0F208EFF2758D0075B2007523
:102970008B0153A8F7087420F2D0E0FFD0E0FBD021
:10298000E0FAD0E0F9D0E0F8D0D0D082D083D0F017
:10299000D0E0328B618A6289638D64748C2564F81F
:1029A000E26051120524FFED25E0244DF8E6FC0815
:1029B000E6FDD3EF9DE5F09C400D1215F9F583E49B
:1029C000F0A37496F080261215F912152B121684B6
:1029D000401B78531214D8E5641214CE12054FFF31
:1029E000AB61AA62A963E5F08FF01205D47451259A
:1029F00064F876012203002800190300280019005A
:102A00000239AB1301900092E064AA7003122FD92F
:102A1000900190120875120524641045F07003129D
:102A20002F3F123069200608900096E0641070165F
:102A3000C2069000967411F0E490018FF09001931B
:102A400004F0A374F4F0900193E07002A3E090000E
:102A50009670057420F080037411F0300202C202F7
:102A6000228F657881E2642070F9122BB3E565123C
:102A700025E650337835120887E56512254F120593
:102A80004FFBE56525E02488F8E2FE08E2FFC3EF8E
:102A90009BFFEE95F0FE12259C12255212054F2F3A
:102AA000FFEE35F0FE800912259C1225521225A753
:102AB000783812259E1225521225D322E56575F02D
:102AC0000AA42401F8E56A75F005A428F822E56552
:102AD00075F00AA424D5F582E4342DF58375F0054C
:102AE000E56A020869AF69AE68AD67AC667808024E
:102AF000079212077F8F718E708D6F8C6E22C37458
:102B00000193956DE493956C22E56575F00AA42216
:102B1000E4FF12042E7F0112229A1226B8E4F55720
:102B2000E5571215A8502FAF571221A9784D12144E
:102B3000D8E5571214CE121558AF571212DCAF5702
:102B40001208C6AF57122388AF571210E9AF5712B9
:102B50002AA5055780CA121D42122CA9022B2C75DA
:102B60008A100012323075EA81E4F5F675F304F547
:102B7000F275EB0700E5EC30E7FBAFE6EF7F00FE18
:102B8000ADE5EDCFEFCFE4CECE9037FF93FDC3EFB1
:102B90009DFFEE9400FE900190120875EE8FF012EA
:102BA00005D4E4F5EC75EB30758A10002253A87F4C
:102BB00012326612198B1230AE12330943A880E428
:102BC000F58D122DE590018FE014601214601A2427
:102BD0000270EC121E7990018F7401F080E11216E0
:102BE0008B90018F7402F080D6122EF0900097E047
:102BF000640170CB12296A80C67F007E0475573746
:102C00007558DFE4F9FBFA758A1000EF2BF582EEB8
:102C10003AF583E493FDC969C90BBB00010ABA33D5
:102C2000EABBDFE7855882855783E4936970089093
:102C300000927402F08005E4900092F0758A100012
:102C4000228B638A648965855E66855F67856068B7
:102C5000E56245616032AB66AA67A968120446ABBB
:102C600063AA64A96512045F74012565F565E435FE
:102C700064F56474012568F568E43567F567E56215
:102C8000156270CC156180C822900098E0FF650D38
:102C9000600C8F0D90021D7401F0A374F4F090028B
:102CA0001DE07004A3E064017023AF0DFEEF64101B
:102CB0007002D203EF64204E7002C203900097E0CE
:102CC00064026002D206E490021DF0A3F022539148
:102CD000FE439201E4FFFE0FBF00010EBE02F8BFEB
:102CE000BCF530880875D74075D640800675D74248
:102CF00075D6425392FE43910175D98075DA5843D7
:102D0000A80275B80275F802228F5BE4F55CF55DE8
:102D1000EF122C38E0FEA3E0FF7C007D19122C643A
:102D2000E55B122C95E0FF7E007C1A7D5E122C6420
:102D3000FEAF5D22EFFDF87E007401088005C3330D
:102D4000CE33CED8F9FF7831E2FBEF5B600EEDC3F6
:102D50001225765007902E15E04420F022EFFDF862
:102D60007E007401088005C333CE33CED8F9FF78D6
:102D700031E2FBEF5B600EEDC31225765007902E1B
:102D800015E054DFF022758D20E4F5B275B6FF75BD
:102D9000B7FF75B2A2538DFE758E1F758DA0758B12
:102DA0003878817410F275B2A343A80822EFFA12A2
:102DB0002C8D50051232128005E4FF12327FEAFF9B
:102DC000123114EA9032DD93FF12209CEAFF0231A7
:102DD0003D40B80C000800208401F80140000028A4
:102DE000201800000000232C2000000000281718E5
:102DF00000000000EF75F012A4240AF8EE25E02888
:102E0000F822EF25E02467F8E6FC08E6FDEF25E070
:102E10002469F822C105C100C102C101010E00C12F
:102E200004C103010D00C1060251000003080000A7
:102E30000B00EF9032DD93FEF87401088002C3337B
:102E4000D8FC902E15F0EF9032EA93902E1AF022D3
:102E500074AA7583F5758255A574557583FA7582C4
:102E6000AAA574A57583F5758255A522019003E87E
:102E700001400064019003E801400064080810105C
:102E8000646401020202758A10758F0C75ACFFE450
:102E9000F5927591FF7588DC5391E743881822906D
:102EA0002E157404F0EF9032E693902E1AF0EF9006
:102EB00032E493902E2EF022E5BA54016006E5A983
:102EC0005404700C75BA8275BEF943BA0143A90463
:102ED00022D3EF9DEE9C4007EF9DFFEE9CFE22C3A8
:102EE000ED9FFFEC9EFE22ED4C6011E412045F04A6
:102EF00029F9E43AFAED1D70EE1C80EB2200010284
:102F0000010102022D320A0A020206050302780EAE
:102F1000E6FF2490F582E43400F583227BFE7A00FC
:102F2000790A7D247C000232C775B308023298000A
:102F30000000000000000000000000000000000091
:102F40000000000000000000000000000000000081
:102F50000000000000000000000000000000000071
:102F60000000000000000000000000000000000061
:1033F0000000000000000000000000000000004A83
:1034000000000000000000000000000000000000BC
:1034100000000000000000000000000000000000AC
:00000001FF
