:10000000001300AB390300004312000000000000A1
:1000100000000000000000000000000000000000E0
:10002000022C24D2AF53A8DF320000022A3305DCB1
:1000300005DC00020416D2AF320000022F417BFE25
:100040007A0079007D0A7C000234DF020403EF604D
:100050000D12337E7881E2642070F9022DE51233AF
:100060007E2200021B07BB010689828A83E02250A0
:1000700002E722BBFE02E32289828A83E49322BB49
:10008000010689828A83F0225002F722BBFE01F327
:1000900022EF8DF0A4A8F0CF8CF0A428CE8DF0A490
:1000A0002EFE22BC000BBE0029EF8DF084FFADF0C8
:1000B00022E4CCF875F008EF2FFFEE33FEEC33FCB2
:1000C000EE9DEC984005FCEE9DFE0FD5F0E9E4CEE8
:1000D000FD22EDF8F5F0EE8420D21CFEADF075F0B7
:1000E00008EF2FFFED33FD4007985006D5F0F222C0
:1000F000C398FD0FD5F0EA22C2D5EC30E709B2D59E
:10010000E4C39DFDE49CFCEE30E715B2D5E4C39F4B
:10011000FFE49EFE120483C3E49DFDE49CFC800387
:1001200012048330D507C3E49FFFE49EFE22C5F08E
:10013000F8A3E028F0C5F0F8E58215827002158377
:10014000E038F022BB010A89828A83E0F5F0A3E05F
:1001500022500687F009E71922BBFE07E3F5F009F4
:10016000E3192289828A83E493F5F074019322BB18
:100170000110E58229F582E5833AF583E0F5F0A3E5
:10018000E0225009E92582F886F008E622BBFE0A43
:10019000E92582F8E2F5F008E222E5832AF583E911
:1001A00093F5F0A3E99322BB010DC58229C582C551
:1001B000833AC58302050E5011C58229F808E5F07F
:1001C00026F618F5F0E58236F622BBFE11C5822927
:1001D000F808E225F0F5F0F218E23582F222F8E5AF
:1001E0008229F582E5832AF58374019325F0F5F0E1
:1001F000E4933822BB010A89828A83F0E5F0A3F0F8
:10020000225006F709A7F01922BBFE06F3E5F00914
:10021000F31922F8BB0111E58229F582E5833AF54D
:1002200083E8F0E5F0A3F0225009E92582C8F6083A
:10023000A6F022BBFE09E92582C8F2E5F008F22209
:10024000EF2BFFEE3AFEED39FDEC38FC22C3EF9BBD
:10025000FFEE9AFEED99FDEC98FC22E88FF0A4CC1D
:100260008BF0A42CFCE98EF0A42CFC8AF0EDA42CDD
:10027000FCEA8EF0A4CDA8F08BF0A42DCC3825F0AC
:10028000FDE98FF0A42CCD35F0FCEB8EF0A4FEA997
:10029000F0EB8FF0A4CFC5F02ECD39FEE43CFCEAA4
:1002A000A42DCE35F0FDE43CFC2275F008758200EB
:1002B000EF2FFFEE33FECD33CDCC33CCC58233C52B
:1002C000829BED9AEC99E58298400CF582EE9BFEBC
:1002D000ED9AFDEC99FC0FD5F0D6E4CEFBE4CDFA17
:1002E000E4CCF9A88222B800C1B90059BA002DECBB
:1002F0008BF084CFCECDFCE5F0CBF97818EF2FFF53
:10030000EE33FEED33FDEC33FCEB33FB10D70399FA
:100310004004EB99FB0FD8E5E4F9FA227818EF2FA7
:10032000FFEE33FEED33FDEC33FCC933C910D705C6
:100330009BE99A4007EC9BFCE99AF90FD8E0E4C9E5
:10034000FAE4CCFB2275F010EF2FFFEE33FEED3315
:10035000FDCC33CCC833C810D7079BEC9AE8994042
:100360000AED9BFDEC9AFCE899F80FD5F0DAE4CDA4
:10037000FBE4CCFAE4C8F922EB9FF5F0EA9E42F0E8
:10038000E99D42F0EC6480C864809845F022EB9FC0
:10039000F5F0EA9E42F0E99D42F0E89C45F022E843
:1003A000600FECC313FCED13FDEE13FEEF13FFD84B
:1003B000F122E8600FEFC333FFEE33FEED33FDECC7
:1003C00033FCD8F122E6FC08E6FD08E6FE08E6FF6D
:1003D00022E0FCA3E0FDA3E0FEA3E0FF22E2FC0894
:1003E000E2FD08E2FE08E2FF22E0F8A3E0F9A3E064
:1003F000FAA3E0FB22E2FB08E2F908E2FA08E2CB0A
:10040000F822ECF608EDF608EEF608EFF622ECF02E
:10041000A3EDF0A3EEF0A3EFF022ECF208EDF2086A
:10042000EEF208EFF222D083D082E493F608740152
:1004300093F608740293F608740393F6740473A891
:10044000828583F0D083D0821208361208361208D3
:1004500036120836E473E493A3C583C5F0C583C898
:10046000C582C8F0A3C583C5F0C583C8C582C822AC
:10047000D083D082E493F208740193F2087402935B
:10048000F208740393F2740473A42582F582E5F0F4
:100490003583F58322E0FBA3E0FAA3E0F922EBF039
:1004A000A3EAF0A3E9F022E2FB08E2FA08E2F9226B
:1004B000EBF208EAF208E9F222EC8EF0A4CCC5F0E7
:1004C000CCCDF8EFA4CEC5F02DFDE43CFCE8A42E85
:1004D000C8C5F03DFDE43CFCEFA4FFE5F028FEE4D8
:1004E0003DFDE43CFC228F58E4F559F55A7873122F
:1004F00015E9EF1215DB12054FF55E85F05D787694
:100500001215E9EF1215DB12054FF56085F05F78E3
:10051000501215E9EF1215DB12054FF55C85F05B03
:10052000784D1215E9EF1215DB12167CD3955CEEAF
:10053000955B4025EF955CFDEE955BFCD3ED94302B
:10054000EC94754008755975755A3080048C598D36
:100550005A1216C812162A8054C3E55C9FFDE55B4B
:100560009EFCD3ED9410EC94274008755927755ADA
:100570001080048C598D5A1216C8F583E559F0A3E2
:10058000E55AF030031C1216C812163CD3942CEE18
:10059000940140141216D4F5837427F0A37410F05C
:1005A00080061216D412162AE4F559F55A30032D96
:1005B0001216D412163C4E600EE55825E02445F87C
:1005C0007613087688800CE55825E02445F87607F0
:1005D0000876D01217787606087640802EE55825E2
:1005E000E02439F582E4340212163C12168324E228
:1005F000F582E4340112163C1216832445F8A65DF8
:1006000008A65E121778A65F08A6607B007A0079BC
:1006100059AD5812305CD3E55A9400E55994005016
:1006200003020C2F78531215E9E5581215DBE55932
:10063000855AF01205F3AE59AF5AE4FCFD7BB87A47
:1006400088F9F8C31207585006755988755AB8E5E5
:100650005812171812163C12179C404B121778E6C6
:10066000FE08E6FFC3E55A9FE5599E5018AE59AF04
:100670005A7C003003047DC880027D0A1204838EF8
:10068000598F5A802212160324ADF9740135F0FAFD
:100690007B017D0A7C001234DF121603121733F53A
:1006A00083E4F0A374A6F0748C2558F8E27003027A
:1006B0000BDA1216031216B4C083C0821207C912D5
:1006C0001752D082D0831207EE12160324B3F5829C
:1006D000E43401F583E475F00112050E12160312DD
:1006E000173312163CC394F4EE9401405F121603C4
:1006F00024B3F582E4340112163CFF1217031216DC
:10070000031216B41207B11206C61216031216E02F
:1007100012176BF0E5587D0312169C121603121681
:10072000E012163CFF121756780212077F121603CA
:100730001216E012176B1216021216B412081F00DE
:100740000000001215F012173312162A12160312A7
:1007500016E012163CFF12179C40048E598F5A78EF
:10076000531215E9E5581215DB12167C12173BE2FD
:10077000FC08E2FD1234C9EEFCEFFD78731215E9B6
:10078000E5581215DB121780C3EF9DEE9CE558501B
:100790005275F00AA41216B412081F0000000012CD
:1007A00015F01217331215FD1216E012162A78539F
:1007B0001215E9E5581215DB12167CE4FCFDC0E0C9
:1007C000C0E0EEC0E0EFC0E012173BE2FE08E2FF3F
:1007D000D0E0FBD0E0FAD0E0F9D0E0F812062078C3
:1007E00001800A7D0712169C121752780312077FA8
:1007F00012173BEEF208EFF2800A12173BE559F2AE
:1008000008E55AF2121631FFE55825E02470F8E2A7
:100810002FF55A18E23EF559D3E55A9430E559942C
:10082000754006755975755A30E5DB54047051787A
:100830006C1215E9E5581215DBE559855AF01205D9
:10084000F3E55A24A8FFE5593461FE78668026E571
:10085000DB5404702B78661215E9E5581215DB128B
:1008600016F678531215E9E5581215DB12175C12CB
:100870001631FF786C1215E9E5581215DB12166275
:10088000228F59E4F55AF55B748C2FF8E27003025D
:100890000ED4EF1219DA1219984E70209001F8E078
:1008A000FEA3E0FF1219D81219B1121969FF12192B
:1008B0007FE5F0F0A3EF1219C5020D241219D8122A
:1008C0001998120F06121AD41219B11219B9E07040
:1008D00073121AD4121998D3940AEE940040061297
:1008E00019B97401F012197FE0FEA3E0FF12196933
:1008F000FDACF01234C9121AE01219B1121AE0124A
:100900001998D39414EE940040051219B9E4F0122A
:100910001969FFAEF0E4FCC0E0C0E0EEC0E0EFC05B
:10092000E012197FE0FEA3E0FF7D03120899D0E0FA
:10093000FBD0E0FAD0E0F9D0E0121AF712197FEEFE
:10094000F0A3EFF01219B9E07003020E5A12197FEA
:10095000E0FEA3E0121B005003020E5A784D12195C
:100960006BFFAEF0785012196BC39FE5F09E5017E5
:10097000785012196BFFAEF0784D12196BACF0C3C2
:100980009FF55BEC9EF55A12197FE0FCA3E0FDAFEA
:100990005BAE5A1234C912196512197CE0FCA3E04F
:1009A000FDD39FEC9E400BD3E55D94C8E55C9400BD
:1009B0005011C3ED9FEC9E5032E55D94C8E55C9408
:1009C0000040281219B9E4F0121A2D7402F09001B7
:1009D000F8E0FEA3E0FF121A831219B1121A39745B
:1009E00001F01219D81219D1020E5A1219691219EE
:1009F0007CE0FCA3E0FD1234C9121965FF12197FD7
:100A0000E0FCA3E0D39FEC95F04035D3E55D940A7C
:100A1000E55C9400402A1219F0121998D394E0EE84
:100A200064809431401A78501219E6121AA474FFA7
:100A300075F0F61219EDF58374FF75F0F612050ED8
:100A4000121969FF12197FE0FCA3E0C39FEC95F037
:100A50005022E55D940AE55C940040187850121924
:100A6000E6121AA4E475F00A1219EDF583E475F0A4
:100A70000A12050E121A2D7401F01219B9E0600362
:100A8000020F05121A2DE064026003020F05121A0C
:100A900083121998120F06121A471219B1121A3935
:100AA000E07015121A8F121998FF78501219E61279
:100AB0001AA4EE8FF0120587121A39121A4512196C
:100AC00098FF7C007D18120471121A8F1219B178E8
:100AD000501219E6E559A429F9EA35F0FA1205246D
:100AE000FF121A8F121AADFDC3EF9DFFE5F09C8F28
:100AF000F00205D41219F01219D11219D81219D115
:100B000012197FE4F0A3F01219B9E4F0121A83125B
:100B100019D1121A2D121A45F583E4F0A31219C542
:100B2000121A39E4F022FF9001F8E0FCA3E0FD1274
:100B300034C922E4F55C122785506D12276B120828
:100B40000600002710E55C1227F85057AF5C1234FE
:100B5000977F0212279C902E10E020E205758701F6
:100B600080F41228049034FE9333333354F8FE900B
:100B70002E04783512275212280F902E10E4F07FA1
:100B800002123356E55C25E02489F9E3700219E38B
:100B90007011783512275C1227DC2488F8E5F0F212
:100BA00008EFF2055C020F16E4F55BE55B122787A0
:100BB00040030210A7E4F55C12278540030210A24F
:100BC000E55B2401FFE433FEE55C9034F893FDD34C
:100BD000EF9D7480F86E98400302109DAF5C123454
:100BE0002AAF5C12279C902E10E020E20575870149
:100BF00080F41228049035029333333354F8FEE521
:100C00005C9034F59375F002902E001208697832EA
:100C100012275212280FAF5C123356AF5C1230010C
:100C2000783812275C12054FFDACF0AF5C122688B5
:100C3000783B12275C1227E512275F1227B9E48F51
:100C4000698E68F567F566855C6AFF12228F783ECB
:100C500012275C1227E512276BC0E01207A5ECC033
:100C6000E0EDC0E0EEC0E0EFC0E0783E12275C129D
:100C700027DC2449F8E6FC08E6FDC3EF9DFFE5F01C
:100C80009CFEEFFBEEFA3395E0F9F8D0E0FFD0E000
:100C9000FED0E0FDD0E0FC120620D0E0F81207E222
:100CA000902E15E4F0E55C75F002A4FF783E120882
:100CB00087E92FF9EA35F0FAAF5C122986055C0264
:100CC0000F98055B020F8BE4F55C12278540030249
:100CD000117312276B1207A5E47B507AC3F9F8C38E
:100CE000120758500C12276B1208060000C35080E0
:100CF0001412276B1207A5EC33500A12276B120847
:100D0000060000000012276B1207A5784112275C2D
:100D10001227E5784412275C12054F45F0700A78D7
:100D20004112275C1227B9803E784412275C1227B3
:100D3000B97C007D02120899ECC0E0EDC0E0EEC085
:100D4000E0EFC0E0784112275C1227B9E4FCFDD047
:100D5000E0FBD0E0FAD0E0F9D0E0F8120620E47B26
:100D600003FAF9F81206C6784412275C12280FE538
:100D70005C25E02485F9E3700219E37011784412D0
:100D8000275C1227DC2484F8E5F0F208EFF2055C1A
:100D90000210AA228F58748C2FF8E2FF6018121AE2
:100DA00015121AAD4C700F121A9C121A15F583EC1D
:100DB000F0A3EDF08037EF70347876120887E558AD
:100DC000121970FFAEF01219FC121AADD39FEC9EEF
:100DD000500F1219E4E558121973C39FE5F09E50A5
:100DE0000C121A151219D11219FC1219D1121A1556
:100DF000121998FF121B0050030212D9121A9C12EA
:100E000034C9121A531219B1121A53121998D394E1
:100E10000AEE940050030212D91219E4E55812198F
:100E200073FFAEF0D394E8EE940350030212D97C22
:100E3000007D0A120483EF25E0F55AEE33F55912CE
:100E4000198DC3955AEE955940030212D9755B026C
:100E5000E4F55CF55DF55EF55F1219E4E5581219ED
:100E600073D39440E5F0941F4003755B0A121A5344
:100E7000121AADFDAF5B7E001204718E5E8F5FD3E0
:100E8000E55F955AE55E9559400685595E855A5F3E
:100E9000121ABC1219984E70601219E4E558121912
:100EA00073D39440E5F0941F401C12198D24F4FF75
:100EB000EE3401121AEC400280191219FEF5837407
:100EC0000175F0F4802412198D2464FFE43E121A97
:100ED000EC400E1219FEF583E55EF0A3E55FF080AD
:100EE0000C1219FEF583E475F06412050E121ABC9B
:100EF000F583744EF0A37420F0748C2558F8E260EA
:100F0000030213A2121A5F121998121A9BC3EF9DC3
:100F1000EE9C4004EF4E700A121A5FF583ECF0A3CA
:100F2000EDF0121A09121998121B004025121A210D
:100F3000121998C3940AEE94004017121A6BE070CD
:100F400011121A6BE004121A08F5837401F0A374ED
:100F5000F4F0121A091219984E705C121A5F1219E5
:100F600098121A9BD3EF9DEE9C400EEF9DFFEE9CD6
:100F7000FE121A211219B18006121A211219D11269
:100F80001A21121998D39414EE94004017121A776C
:100F9000F5837413F0A37488F0121AC8F583E4F093
:100FA000A37496F0121A6BE4121A08F5837403F016
:100FB000A374E8F012199F121A771219984E701143
:100FC000800912199F121A771219D1121AC8121910
:100FD000D1228F58748C2FF8E2702478531215E9BF
:100FE000EF1215DB12054FFFE5581216E8E5F09CED
:100FF000500D90019BE07002A3E070030214641294
:10100000165B2456F9E4FA7BFE7D08FC1234DFE51A
:101010005825E02490F8E2FE08E2FF1215D11217DD
:10102000951234C98E5B8F5CE5581217A312163CDB
:10103000FF9001F8E0FCA3E0FD1234C9EFFDEEFCE7
:1010400090019BE07002A3E0702978761215D3120C
:10105000054FFFE5F0C313FEEF13FFC3E55C9FE50B
:101060005B9E40030215D0C3ED9405EC9400400351
:101070000215D01215D112167C78501215D3EE8FAE
:10108000F00205F312165B2456F8C0E01207BDEC1F
:10109000C0E0EDC0E0EEC0E0EFC0E01215D11205F7
:1010A0004FAEF0121703D0E0FFD0E0FED0E0FDD04D
:1010B000E0FC120620D0E0F81207FA12165B245A60
:1010C000F808E22401F218E2340012165A245DF9FD
:1010D000C3E394E819E3940350030215D012165B9E
:1010E0002456F8C0E01207BDECC0E0EDC0E0EEC051
:1010F000E0EFC0E012165B245A1216FED0E0FFD0DB
:10110000E0FED0E0FDD0E0FC1206C6D0E0F8120709
:10111000FA74512558F8E66401602378731215D3E8
:101120001217801215D112054F2FFFEE35F0FE7801
:10113000501215D312054FD39FE5F09E401B121697
:101140005B2456F81207BD78501215D3121662743C
:10115000512558F8E4F60215B078501215D312054F
:101160004FFBAAF012165B2456F81207BDC3EB9F83
:10117000F55AEA9EF559745C2558F582E43401F578
:1011800083E02BFFE43AFEE4FCFD12165B2456F8E4
:101190001207D5D312076EAE59AF5AE558400590E5
:1011A0003476800390347493FD7C001204D88E59F9
:1011B0008F5A78501215E9E558A429F9EA35F0FA62
:1011C000120524C3955AFFE5F095598FF01205D406
:1011D00012165B2456F81208500000000012165B2D
:1011E000245AF8E4F20812165A245CF8E4F208F2E1
:1011F00022784D120887E55875F002A4F58285F033
:101200008322E493FE740193FF12088775F0022293
:10121000E55875F00AA424B3F582E43401F583E4BB
:10122000F0A3F0E55875F00AA42212088790000296
:1012300012054FFF9001C302087575F00AE55A12B6
:101240000869E55975F00AA42583F583E4F0A3F055
:1012500022E55825E02443F582E43402F583E0FEDC
:10126000A3E022E55D25E025E0244BF582E434028D
:10127000F58375F002E558020869F2E55875F00843
:10128000A422EE8FF00205F3E5F08FF00205F3746F
:10129000492558F582E43402F583E02212054FFF18
:1012A000AEF022FF255EF55EEE355DF55DEF256063
:1012B000F560EE355FF55FE55825E02225E0246F07
:1012C000F8E2FE08E2FF7C00120899ECF8EDF9EE76
:1012D000FAEFFB2224AFF582E43401F58322E55ACC
:1012E000C394027480948022E55825E024A5F582F9
:1012F000E4340122E55825E024A9F582E4340122F2
:1013000024B5F582E434012225E02445F8E6FC0802
:10131000E6FDC3EF9D22746175F0A80205F3F8E2C3
:10132000FE08E2FBEEFAE4F9F822E56425E0249DEC
:10133000F582E4340122E55825E024A1F582E43465
:101340000122ED75F008A42468F582E43434F583B5
:10135000E4932224ADF582E4340122E55825E0240B
:101360006FF822ED75F008A42464F582E43434F5B6
:101370008322AE59AF5AE4FCFD020620E4F5F002E8
:1013800005F3F8740193FFED25E022F583EEF0A359
:10139000EF22120887020524E55825E0244DF822A3
:1013A00012054F25E0FFE5F033FE2225E0246FF81B
:1013B000E4F208F22212054FFDACF022D39400EEC5
:1013C00094002225E02420F582E434022212041E37
:1013D0001235147A0179E67D4612195D7F011204F7
:1013E0002EE4FDED1216C05023ED25E02488F8E42C
:1013F000F208F2ED25E02484F8E4F208F2784412D1
:101400000887ED1215D812175C0D80D77B007A0083
:1014100079217D127C001234DF7BFE7A0079567DC3
:10142000107C001234DF7A0279497D0212195D7A4C
:1014300002794B7D107C001234DFE4FDED1216C002
:10144000400302191578661215E9ED1215DB121624
:10145000F678691215E9ED1215DB1216F6ED121782
:101460008B786C1215E9ED1215DB12175C748C2D5C
:10147000F8E4F2ED90347893FF745C2DF582E43457
:1014800001F583EFF012174378731215E2ED121590
:10149000DB121662ED75F008A42466F582E434349C
:1014A000F58378791215E2ED1215DB121662121728
:1014B00022FE740193FF78761215E9ED1215DB1206
:1014C0001662ED75F008A4246AF582E43434F583DD
:1014D000E493FE740193FF787C1215E9ED1215DB9D
:1014E000121662121743E4931217622445C8F608D5
:1014F000EFF6121722121762244DC8F608EFF6ED28
:101500009035029333333354F8F8ED25E02449C87D
:10151000F608E4F6ED25E0240EF582E43404F583C4
:10152000E493FE12176324CAF582E4340112176BA8
:10153000F00D02181CE4900247F0A3F0C390019C48
:10154000E094F490019BE0940150077401F0A374BF
:10155000F4F07B017A0179CE7D147C001234DF7FB8
:10156000031224AC784A1208878B5E8A5F89607503
:101570006100756204785012088702323B7B017C5F
:10158000001234DF228E5C8F5D7853120887E55994
:1015900075F002A4F58285F08302054FFFAEF0E5F9
:1015A0005925E024ECF582E43401F58322E5582541
:1015B000E02439F582E43402F583E0FEA3E02278EA
:1015C00082E2FE08E2FFE55825E02402F582E434D9
:1015D00002F583EEF0A3EFF02274E62559F582E4DC
:1015E0003401F58322F0E55925E0241CF582E4342A
:1015F00002F583E4F0A3F022E55925E024E8F58222
:10160000E4340122785312088775F002221205870C
:10161000E55925E024F4F582E4340122E55825E07B
:101620002439F582E4340222F0E55825E0240AF555
:1016300082E4340222E55825E02431F582E43402C4
:1016400022E55825E02406F582E4340222741425AC
:1016500059F582E43402F58322741A2559F582E49F
:101660003402F58322E4F0E55925E02428F582E4EC
:10167000340222E55825E02435F582E4340222E5DF
:101680005825E02402F582E434022274122558F52C
:1016900082E43402F58322E55825E0240EF582E445
:1016A000340222E55925E02416F582E4340222E5CD
:1016B0005925E0241CF582E4340222FF7882E2FC02
:1016C00008E2FD22E559A4F58285F08322F583E046
:1016D000FCA3E0227882E2FE08E2FF22E55825E042
:1016E000243DF582E4340222E55825E024E2F58227
:1016F000E4340122E55925E0242CF582E434022269
:10170000E55925E024F0F582E4340122FED3EF957B
:101710005FEE955EE55822F8120620780202077FF8
:10172000D39400EE940022C0E0C0F0C083C082C019
:10173000D0E8C0E0D2AFD390019CE0940090019B30
:10174000E09400400312282912287350031228B98C
:10175000C3786512287650031228B9D390019EE011
:10176000940090019DE094004003122829D3900139
:10177000A0E0940090019FE094004003122829D338
:101780009001A2E094009001A1E09400400312288F
:1017900029D39001A4E094009001A3E094004003B9
:1017A00012282912288850031228B21228965003B2
:1017B0001228B2D39001AAE094009001A9E094000D
:1017C0004003122829D39001ACE094009001ABE0D3
:1017D00094004003122829D39001C2E094009001A4
:1017E000C1E0940040031228291228A450031228B3
:1017F000B2D390023EE0940090023DE0940040039A
:10180000122829D3900240E0940090023FE0940017
:101810004003122829D39001C7E094019001C6E04B
:1018200094004003122829D39001C9E0940190014B
:10183000C8E094004003122829D39001E1E094000D
:101840009001E0E094004003122829D3900242E086
:101850009401900241E094004003122829D39002A1
:101860000BE0940090020AE094004003122829D370
:1018700090020DE0940090020CE0940040031228C6
:1018800029D390020FE0940090020EE094004003F0
:10189000122829D3900211E09400900210E09400E5
:1018A0004003122829D0E0F8D0D0D082D083D0F0E5
:1018B000D0E032EFFBEEFA90019B12281540069023
:1018C000019B12281F122873500808E22BF218E21D
:1018D0003AF27865122875500808E22BF218E23ABD
:1018E000F290019D122815400890019D12281F803A
:1018F00007E490019DF0A3F090019F122815400885
:1019000090019F1228308007E490019FF0A3F0908F
:1019100001A112281540089001A11228308007E487
:101920009001A1F0A3F09001A312281540089001A6
:10193000A312283A8007E49001A3F0A3F0122888AC
:1019400050031228C412289650031228C49001A9EB
:1019500012281540069001A912283A9001AB1228CE
:101960001540069001AB12284490023D1228154004
:101970000690023D12284490023F1228154006901E
:10198000023F12284E1228A450031228C49001C608
:1019900012285840069001C612287E9001C81228CD
:1019A0005840069001C812287E9001E01228154088
:1019B000069001E012284EEB2401FFE43AFE90026B
:1019C0004112285F400CED9BFEEC9A900241F0A37F
:1019D000CEF090020A122815400690020A122869D9
:1019E00090020C122815400690020C1228699002F1
:1019F0000E122815400690020E1228CA90021012EC
:101A0000281540069002101228CA227B017A00791C
:101A1000D478321208907A0079D078351208907A0A
:101A20000079D878381208907A0079DC783B12086F
:101A3000907A0079E0783E1208907A0079E4784153
:101A40001208907A0079E878441208907A0079ECCC
:101A500078471208907A0079F0784A1208907A0054
:101A600079F4784D1208907A0079F878501208903D
:101A70007A0079FC78531208907A0079B27866126D
:101A800008907A0079AE786C1208907A0079B6786E
:101A9000691208907A0079A8782E1208907A007955
:101AA000A290019812087E7A0079BA787312089091
:101AB0007A0079BE78761208907A0079CC7879121B
:101AC00008907A0079C2787C1208907A017908909F
:101AD00001C312087E902DE0E49390009AF0902DBF
:101AE000E2E49390009DF0902DE3E49390009CF04D
:101AF000902DE4E49390018BF090009F7401F0909E
:101B000000A17410F0E4900196F09000A07420F011
:101B10009000C6F09000C97418F09000C7742CF0C3
:101B20009000CA7420F09000C87417F09000CB04A5
:101B3000F0E4900247F0A3F090019B7407F0A374C7
:101B4000D0F0E4900197F09000A0E0F50D22E4F5CC
:101B500058FFF559F55AAE5A748C2EF8E2601C7491
:101B60007A255AF58274343559F583E493FD425849
:101B7000748E2EF8E26004EDCF4FCF055AE55A700F
:101B80000205596402455970CD9000A1E0642070AF
:101B90000B900247E558F0A3EFF08007E49002476E
:101BA000F0A3F0900247E0FF900098E0FE6F700F06
:101BB000900248E0FD900099E06D7003022057EE1E
:101BC0006FF558E4F559F55AAF5A748C2FF8E27056
:101BD00063C8EFC8E558088002C313D8FC30E0544E
:101BE000E55A25E0FFE55933FE786C1208878F82AD
:101BF0008E8312175CE55A12178B78661208878F4E
:101C0000828E831216F69001B512161A9001AF75E6
:101C1000F00AE55A120869E55975F00AA42583F51A
:101C20008312081F000000009001B312161A9001E1
:101C3000AD12161A055AE55A700205596402455943
:101C40007086900247E0900098F0900248E0900083
:101C500099F09001C1E4F0A37464F0E4F588D390A6
:101C600001C2E094009001C1E094004007308AEE88
:101C7000E4F0A3F0758804788DE225E0FF18E24FC8
:101C8000900107F0228F58D390019CE094009001BE
:101C90009BE09400400302217B78531215E9EF1278
:101CA00015DB12167CE5581216E8EE9C5015748C64
:101CB0002558F8E26020E55825E0244D1216ECEE98
:101CC0009C401312171612163C4E7057748C2558F0
:101CD000F87401F2804D121716F583E4F0A37496A0
:101CE000F0748C2558F8E4F2748E2558F8E4F2E587
:101CF0005812170C12162A78501215E9E5581215C9
:101D0000DB12054FFFE55825E02490F8E5F0F208D6
:101D1000EFF29001F8E0FEA3E0FFE5581217A312DE
:101D2000176BF0748C2558F8E26070E558F87E0067
:101D30007401088005C333CE33CED8F9FF900196E5
:101D4000E0FDEF5D604E78791215E9E5581215DB7C
:101D500012167C78531215E9E5581215DB12179507
:101D6000C39FEC9E5025748E2558F8E26026ED2422
:101D700032FFE43CFE78791215E9E5581215DB12C2
:101D8000054FFDC3EF9DEE95F04009748E2558F880
:101D90007401F222748E2558F8E4F222E47831F2CC
:101DA000755EFF755F337560C9F56175620E7B0105
:101DB0007A2E791012323BE4F557C3E55794037439
:101DC0008094805047E5579034F59375F007A4242C
:101DD00020F9742E35F0FA7B01EBC0E0EAC0E0E9AF
:101DE000C0E0E55775F007A424D7F9743335F075D2
:101DF0005EFFF55F8960756100756207D0E0F9D01C
:101E0000E0FAD0E0FB12323B055780AE902E0AE498
:101E1000F0A3F0902E0EF07F021233A57F02123352
:101E200003782E120887900004122ED5E4F557C3CC
:101E3000E557122EC05067E557122E6AE4F0A3F062
:101E4000E557122EC7E4F0122284122E85122ED5E9
:101E5000E557903500936407603F122E8512054FB9
:101E6000FFAEF090000412054F24E8FDE5F03403C6
:101E7000FCC3ED9FEC9E50217831E2FFAE57EEF8A7
:101E80007401088002C333D8FC4F7831F2122284E7
:101E9000122EAD122E8A122ED5055702220F902E29
:101EA00015E4F022AF571233A5AF57123303228F38
:101EB00065EF75F00AA424001230BEE2F56BEF1254
:101EC00030B81207BDE4FBFAF9F8C312076E7009C7
:101ED0001230DF1230B61207FA1230B61207BD7890
:101EE0000812077FAC68AD691234C98E6C8F6D1211
:101EF00030DF8F698E688D678C66AF6B7E00EF7008
:101F00001212310324D7F582E4342D1230D5123069
:101F1000F8401DD3EF9400EE648094804017123196
:101F20000324D9F582E4342D1230D51230F850054F
:101F3000756B05800DD3E56B94007480948040022E
:101F4000156BE56B600F85697185687085676F85B6
:101F5000666E0223781230C8E493F87E007401089C
:101F60008005C333CE33CED8F924FFFFEE34FFFE15
:101F70003395E0FDFC1230B61207D512063BEF2573
:101F800069FFEE3568FEED3567FDEC3566FC123015
:101F9000C8E493F9F81230ECAF71AE70AD6FAC6E6F
:101FA0001230B61207FAAF71AE70AD6FAC6E780832
:101FB0001230EC12310324001230BEE56BF222EF36
:101FC000FD902E1AE0755D00F55E7401F075F0026B
:101FD000ED122E717410F0A3E4F0902E10F0FCECD2
:101FE000C3940D7480948040030224A5EC04F87E11
:101FF00010E4088006CEA2E713CE13D8F8F55C8E65
:102000005B455B7005F55B755C019033C9E49344F7
:1020100003902E10F0902E10E030E2F975F002EDF2
:10202000902E00120869E0FEA3E02400FFEE3408C1
:10203000FED3EF94FEEE64809487403B75F002ED92
:10204000122E71E0FEA3E0255CFFE55B3EFEC3EFD0
:1020500094FFEE941F75F002ED902E06500D1208BD
:1020600069E55B855CF012050E8051120869741FEA
:10207000F0A374FFF0804575F002ED122E71E0FEC2
:10208000A3E0D3955CEE955B402775F002ED122E30
:1020900071C083C082C3A3E0955CFF0582D5820234
:1020A00015831582E0955BD082D083F0A3EFF0809A
:1020B0000B75F002ED122E71E4F0A3F0902E10E4F7
:1020C000F00C0223BF902E1AE55EF0228F58E4F543
:1020D00059E559C395584003022559120F13E4F5E9
:1020E0005A1216BE4003022554E5592401FFE43379
:1020F000FEE55A90350493FDD3EF9D7480F86E98F9
:10210000506D78441215E9E55A1215DB12167C78E9
:10211000471215E9E55A1215DB121662E55A75F0F9
:1021200012A4FF2421F9E4C0E0C0E0E9C0E0742378
:102130002FF9E4F55EF55F8960F561756206D0E020
:10214000F9D0E0FAD0E0FB12323B78471215E9E50E
:102150005A1215DB12167CE55A75F012A4241FF8EA
:10216000E55A9035049325E028F8EEF608EFF605D9
:102170005A0224C105590224B1E4F55A1216BE5080
:1021800038AF5A122ADE784A1215E9E55A1215DBE1
:1021900012166278441215E9E55A1215DB12054F42
:1021A0005405FFE55A25E02443F582E43402F58323
:1021B000E4F0A3EFF0055A80C3228F5874492F1220
:1021C0001673FFC3940474809480501D784A1215CE
:1021D000E9E5581215DB121795EF121645ECF0A33E
:1021E000EDF012166F04F08050755D01C3E55D944B
:1021F00004748094805021121643E0FEA3E0FFE5B2
:102200005D25E025E02447F582E43402121650EE05
:10221000F0A3EFF0055D80D4784A1215E9E5581275
:1022200015DB12054FFFE55825E02457F582E4340D
:1022300002F583E5F0F0A3EFF0E4F55CF55BF55A09
:10224000F559F55D12166FFFE55DC39F5026121616
:1022500043E0FEA3E0FFE4FCFDE55C2FFFE55B3E11
:10226000FEED355AFDEC35598F5C8E5B8D5AF55974
:10227000055D80D0AF5CAE5BAD5AAC59ECC0E0ED13
:10228000C0E0EEC0E0EFC0E012166FFBE4FAF9F830
:10229000D0E0FFD0E0FED0E0FDD0E0FC1206C68F1B
:1022A0005C8E5B8D5A8C59228C658D66EF75F012B1
:1022B000A4241AF8E565F208E566F2E4FEEEC3949C
:1022C0000874809480504DEF75F012A4240BF8EE42
:1022D00025E028F9E3700219E3700C1233ECE56590
:1022E000F208E566F28017EF75F012A4240C1233A1
:1022F000F3E2FC08E2FD1233ECECF208EDF21233EB
:10230000ECE2FC08E2FDEE25E02467F8ECF608EDCF
:10231000F60E80A9E4FEEEC3940874809480503ACF
:10232000E4FFEFC3940774809480502B1233FAE6D5
:10233000F58308E6F582C39DE5839C5017AA83AB1D
:10234000821233FAECF608EDF6EF25E02467F8EA9E
:10235000F608EBF60F80CB0E80BCAE71AF72EFFBD0
:10236000EEFAE4F9F8AE6FAF70FCFD120620080239
:10237000077FE0FCA3E02400FFEE3CFE120887E5A7
:102380005C75F002A4F58285F08322E55C25E025EA
:10239000E0245DF822E56525E025E024D6F582E419
:1023A0003401F58322E55CC394027480948022F0AA
:1023B00074DE2565F582E43401F5832212332E4361
:1023C000A8209033C9E4934403902E10F022783271
:1023D00012088775F002E5652212054FFFAEF02264
:1023E000E56525E024D2F582E43401F58322E56534
:1023F00025E024CEF582E43401F5832212054FFF57
:10240000E55C25E022EE8FF00205F3AB66AA67A932
:1024100068120524FFAEF0229034FA93C39403743B
:1024200080948022902E10E4F053A8DFE55C22EE29
:102430008FF00205F3E0FEA3E0FFD39BEE9A22EFBC
:102440009BFFEE9AF0A3EFF02274FFF5F002050E69
:10245000EF9BFFEE9AF0A3EFF022EF9BFFEE9AF0D6
:10246000A3EFF022EF9BFFEE9AF0A3EFF022EF9B99
:10247000FFEE9AF0A3EFF022EB2401FFE43AFEE036
:10248000FCA3E0FDD39FEC9E22EF9BFFEE9AF0A30E
:10249000EFF022785DC3E294E818E2940322ED9B0A
:1024A000FEEC9AF0A3CEF022C39001AEE094F4903B
:1024B00001ADE0940122C39001B8E094F49001B71B
:1024C000E0940122C3900201E09464900200E09441
:1024D0000022E475F00102050E08E22401F218E280
:1024E0003400F222EA8BF002050EEF9BFFEE9AF029
:1024F000A3EFF0229001FA1207C9E8C0E0E9C0E0BA
:10250000EAC0E0EBC0E0121AB4E4FCFDD0E0FBD07E
:10251000E0FAD0E0F9D0E0F81206209001FA1207B4
:10252000EE9001FEE475F00112050EC3900201E089
:102530009464900200E09400406B9001FA1207B19D
:10254000ECC0E0EDC0E0EEC0E0EFC0E09001FEE0E6
:10255000FEA3E0FBEEFAE4F9F8D0E0FFD0E0FED015
:10256000E0FDD0E0FC1206C69001FA1207EE9001E1
:10257000FA1207B19001F8EEF0A3EFF0A312081FD2
:1025800000000000E49001FEF0A3F0A3F0A3F0F53A
:1025900058C3E5589402748094805009AF58120CC7
:1025A00061055880EC228F658B668A678968EF1217
:1025B0002777C083C0821207C9E8C0E0E9C0E0EA1B
:1025C000C0E0EBC0E01227EBE4FCFDD0E0FBD0E084
:1025D000FAD0E0F9D0E0F8120620D082D0831207BA
:1025E000EE122790E00412278FE0FFD3940A748044
:1025F00094804025EFFBE4FAF9F81227751207B131
:102600001206C61227C0EEF0A3EF12278FE4F012D5
:10261000277512081F000000009001E0E07002A37F
:10262000E0702F1227C0E0FCA3E0FD1227EB12346C
:10263000C91227CEEEF0A3EFF01227CEE0FEA3E002
:10264000D39432EE9400400A9001E0740BF0A3742E
:10265000B8F022C0E0C083C082C0D075D018D2AF1D
:10266000E5DB30E41CD204C201E5DB30E10E1235BB
:1026700006E0F5DFEF7061758804805CC200022A15
:10268000D2E5DB30E532900188E064AA701D75DB8D
:10269000FF758A10F5DAC2AFF5BAF5A8F5A9F58B82
:1026A000758E02758DC0438D2080FED202300104EC
:1026B000C201803EC204803AC201E5DB30E11EE582
:1026C000DB30E02E123506E0F5DFEF600824EF7016
:1026D00007D2058003758804780E068015780E20D1
:1026E0000008A6DFD200D2018008E612350AE5DF35
:1026F000F00675DBFFD0D0D082D083D0E0328F5B84
:10270000E4F560F55FF55EF55D7560A8755F61F5F0
:102710005EF55DF55CE55B90350493FFE55CC39F7A
:102720005052E55B75F012A42421F8E55C25E02801
:10273000F8E6FE08E6FFE4C0E0C0E0EEC0E0EFC06F
:10274000E0E55B25E024841216FED0E0FFD0E0FE39
:10275000D0E0FDD0E0FC12062DE5602FFFE55F3EE6
:10276000FEE55E3DFDE55D3C8F608E5F8D5EF55D57
:10277000055C80A1E47F607EEAFDFCAB60AA5FA9F6
:102780005EA85DD31207584009E4756060755FEA82
:10279000800BAC5DEC335009E4F560F55FF55EF558
:1027A0005DAE5FAF602290009FE064016003022C89
:1027B0002390019BE07002A3E06003022C239001B0
:1027C000C6E07002A3E0707B9001C8E07002A3E055
:1027D0007071F5BAD2AF758B409001E0E0FCA3E0D8
:1027E000FD4C6005758E198003758E46758D90437E
:1027F0008D2043A808200239200436E5DB540470FC
:1028000030758A8420042AE5DB540470247587031C
:10281000000000758A10AF8EEF25E0FFE433FE4F15
:10282000700CED4C7E0060047F3280027F8C121CA5
:1028300093758B01758A1053A8F7538D7F538DEFD5
:102840001234B02278FFE4F6D8FD9000007F007EBD
:1028500003E4F0A3DFFCDEFA758176022C7C020033
:10286000000231A7E493A3F8E493A34003F68001A8
:10287000F208DFF48029E493A3F85407240CC8C3BA
:1028800033C4540F4420C8834004F456800146F6F4
:10289000DFE4800B010204081020408090340CE437
:1028A0007E019360BCA3FF543F30E509541FFEE452
:1028B00093A360010ECF54C025E060A840B8E49314
:1028C000A3FAE493A3F8E493A3C8C582C8CAC58356
:1028D000CAF0A3C8C582C8CAC583CADFE9DEE780DB
:1028E000BEE5DB30E203022D4E785012177212164D
:1028F00013E5F08FF01205D4784D121772121613EB
:10290000900002121668785012160A9000041216EF
:1029100068784D12160A90000612166890022CE094
:10292000FFA3E0900008CF8FF01205F39001F8E0CC
:10293000FFA3E090000ACF8FF01205F37832121750
:102940007212161390000C12166878351217721254
:10295000161390000E121668783212160A900010A4
:10296000121668783512160A900012121668228F15
:1029700058EF122E79E0FEA3E064014E701990002A
:102980009E7410F0E4FFEF122EBF5069EF122E7903
:10299000E4F0A3F00F80EF784412088775F002E5A9
:1029A00058122E8F12054FFFAEF0E55825E0248413
:1029B000F8E2FC08E2FDD39FEC9E4032ED9FFFEC75
:1029C0009EFEE55825E024CAF582E43401F583E053
:1029D000FCA3E0C39FEC9E5015122E77E0FEA3E00F
:1029E0004E7012122E777403F0A374E8F022122EA8
:1029F00077E4F0A3F022030028001903002800194F
:102A00000339AB1301121AB44E700E787FE2FD0841
:102A1000E27882CDF208EDF222787FE2FC08E2FD56
:102A20001234C9D3EF940AEE9400402618E2FE084F
:102A3000E2FF7883E29F18E29E500B08E22401F245
:102A400018E23400F2227883E224FFF218E234FF25
:102A5000F222121AB47C007D03120899ECC0E0ED5A
:102A6000C0E0EEC0E0EFC0E0787FE2FE08E2FFE405
:102A7000FCFDD0E0FBD0E0FAD0E0F9D0E0121AF78C
:102A80007882EEF208EFF222E5589034F59375F073
:102A900002902E06020869E55825E024C6F582E476
:102AA0003401F58322782E120887E55775F002A4C9
:102AB000F58285F08322120899E47B0AFAF9F8126C
:102AC00006C6EF255DF55DEE355CF55C22782E12CD
:102AD000088790000412054F2FFFEE35F0FE22C349
:102AE000940274809480229034F593240CF582E44F
:102AF000342EF58322EE8FF00205F33005622003B9
:102B00005FC205E4F558C3E558122EC05052122E8C
:102B100068E0F559A3E0F55AAF581233A5E558F827
:102B20007E007401088005C333CE33CED8F9FF7818
:102B300031E2FDEF5DAF586008123303122EAD8015
:102B400008123303782E120887E558122E8C122EA5
:102B5000D5122E68E559F0A3E55AF00558022EE685
:102B600022C0E0C0F0C083C082C0D0E8C0E0E9C0AD
:102B7000E0EAC0E0EBC0E0EFC0E0D2AF7881E26411
:102B800010702885B50B85B40CAB08AA09A90A12E8
:102B90000524FF787FE5F0F208EFF2758D0075B23D
:102BA00000758B0153A8F7087420F2D0E0FFD0E045
:102BB000FBD0E0FAD0E0F9D0E0F8D0D0D082D083DA
:102BC000D0F0D0E03290009AE064AA70031231F3A2
:102BD000900198120875120524641045F0700312D4
:102BE000315912328320060890009EE0641070165E
:102BF000C20690009E7411F0E4900197F090019B42
:102C000004F0A374F4F090019BE07002A3E0900044
:102C10009E70057420F080037411F0300202C2022D
:102C2000228F657881E2642070F9122DE5E5651246
:102C300027F850337835120887E5651227611205A9
:102C40004FFBE56525E02488F8E2FE08E2FFC3EFCC
:102C50009BFFEE95F0FE1227AE12276412054F2F50
:102C6000FFEE35F0FE80091227AE1227641227B955
:102C700078381227B01227641227E5228B618A6206
:102C800089638D64748C2564F8E26049120524FF21
:102C9000ED25E0244DF8E6FC08E6FDD3EF9DE5F0D8
:102CA0009C400C12170AF583E4F0A37496F02212EC
:102CB000170A12163C12179C401B78531215E9E5AF
:102CC000641215DB12054FFFAB61AA62A963E5F040
:102CD0008FF01205D422E56575F00AA42401F8E509
:102CE0006A75F005A428F822E56575F00AA424D6D3
:102CF000F582E4342DF58375F005E56A020869AFC5
:102D000069AE68AD67AC66780802079212077F8FDC
:102D1000718E708D6F8C6E22C3740193956DE493E8
:102D2000956C22E56575F00AA422E4FF12042E7F5B
:102D3000011224AC1228D4E4F557E5571216C050FE
:102D40002FAF5712259A784D1215E9E5571215DB6A
:102D5000121662AF57121174AF571208C6AF57124E
:102D60002065AF571213B2AF57122D4F055780CAC7
:102D7000121F2E122EDB022CC1758A10001234484D
:102D800075EA81E4F5F675F304F5F275EB0700E5F5
:102D9000EC30E7FBAFE6EF7F00FEADE5EDCFEFCF28
:102DA000E4CECE9037FF93FDC3EF9DFFEE9400FE7F
:102DB000900198120875EE8FF01205D4E4F5EC75C9
:102DC000EB30758A10002253A87F12347E121DEB5F
:102DD0001232C812352143A880E4F58D122FA59038
:102DE0000197E014601214601A240270EC12217C26
:102DF0009001977401F080E11217AD900197740271
:102E0000F080D612310A90009FE0640170CB122B43
:102E10008680C67F007E047557377558DFE4F9FB5E
:102E2000FA758A1000EF2BF582EE3AF583E493FDF4
:102E3000C969C90BBB00010ABA33EABBDFE7855891
:102E400082855783E49369700890009A7403F08038
:102E500005E490009AF0758A1000228B638A6489D9
:102E600065855E66855F67856068E562456160329D
:102E7000AB66AA67A968120446AB63AA64A9651287
:102E8000045F74012565F565E43564F56474012516
:102E900068F568E43567F567E562156270CC156121
:102EA00080C8229000A0E0FF650D600C8F0D90029D
:102EB000417401F0A374F4F0900241E07004A3E0C7
:102EC00064017023AF0DFEEF64107002D203EF6453
:102ED000204E7002C20390009FE064026002D2069E
:102EE000E4900241F0A3F0225391FE439201E4FFEB
:102EF000FE0FBF00010EBE02F8BFBCF5308808759A
:102F0000D74075D640800675D74275D6425392FE9B
:102F100043910175D98075DA5843A80275B80275D6
:102F2000F802228F5BE4F55CF55DEF122E6AE0FE9D
:102F3000A3E0FF7C007D19122E96E55B122EC7E000
:102F4000FF7E007C1A7D5E122E96FEAF5D22EFFDA5
:102F5000F87E007401088005C333CE33CED8F9FF64
:102F60007831E2FBEF5B600DED1227875007902E62
:102F700015E04420F022EFFDF87E00740108800582
:102F8000C333CE33CED8F9FF7831E2FBEF5B600D6F
:102F9000ED1227875007902E15E054DFF022758D33
:102FA00020E4F5B275B6FF75B7FF75B2A2538DFE7A
:102FB000758E1F758DA0758B3878817410F275B27F
:102FC000A343A80822EFFA122EBF500512342A801C
:102FD00005E4FF123497EAFF12332EEA9034F5939A
:102FE000FF12239FEAFF02335640B80C000800206E
:102FF0008401F80140000023201800000000232C69
:10300000200000000028171800000000EF75F012E3
:10301000A4240AF8EE25E028F822EF25E02467F83A
:10302000E6FC08E6FDEF25E02469F822C105C100B1
:10303000C102C101010E00C104C103010D00C1069E
:1030400002510000030800000B00EF9034F593FEDE
:10305000F87401088002C333D8FC902E15F0EF906D
:10306000350293902E1AF02274AA7583F575825555
:10307000A574557583FA7582AAA574A57583F5752F
:103080008255A522019003E801400064019003E805
:103090000140006404042020646401020202758A75
:1030A00010758F0C75ACFFE4F5927591FF7588DC97
:1030B0005391E743881822902E157404F0EF903452
:1030C000FE93902E1AF0EF9034FC93902E2EF02267
:1030D000E5BA54016006E5A95404700C75BA82750E
:1030E000BEF943BA0143A90422D3EF9DEE9C4007E9
:1030F000EF9DFFEE9CFE22C3ED9FFFEC9EFE22EDB6
:103100004C6011E412045F0429F9E43AFAED1D70F1
:10311000EE1C80EB2200010202010202323C080A8E
:10312000020205050302780EE6FF2498F582E434D6
:1031300000F583227BFE7A00790A7D247C0002342C
:10314000DF75B3080234B00000000000000000008A
:10315000000000000000000000000000000000006F
:10316000000000000000000000000000000000005F
:10317000000000000000000000000000000000004F
:10318000000000000000000000000000000000003F
:1033F00000000000000000000000000000000016B7
:1034000000000000000000000000000000000000BC
:1034100000000000000000000000000000000000AC
:00000001FF
