:10000000C017030021590200295902002D5902008E
:10001000715A020069650200A1650200000000003B
:10002000000000000000000000000000A5650200C4
:10003000A965020000000000A16B0000511A020037
:10004000AD650200B5A30000000000000000000044
:100050000000000000000000B16502000000000088
:10006000000000000000000000000000E7AE0000FB
:10007000000000005DB200003FB0000057A2000089
:10008000000000001DA800001DA8000000000000E6
:100090000000000000000000000000000000000060
:1000A0000000000000000000000000000000000050
:1000B0000000000000000000000000000000000040
:1000C0000000000000000000000000000000000030
:1000D0000000000000000000000000000000000020
:1000E0000000000000000000000000000000000010
:1000F0000000000000000000000000000000000000
:1001000000000000000000000000000000000000EF
:1001100000000000000000000000000000000000DF
:1001200000000000000000000000000000000000CF
:1001300000000000000000000000000000000000BF
:1001400000000000000000000000000000000000AF
:10015000000000000000000000000000000000009F
:10016000000000000000000000000000000000008F
:10017000000000000000000000000000000000007F
:10018000000000000000000000000000000000006F
:10019000000000000000000000000000000000005F
:1001A000000000000000000000000000000000004F
:1001B000000000000000000000000000000000003F
:1001C000000000000000000000000000000000002F
:1001D000000000000000000000000000000000001F
:1001E000000000000000000000000000000000000F
:1001F00000000000000000000000000000000000FF
:100200004E616E6F687562204F5300000000000061
:100210007F3D3401000000000000000000000000ED
:10022000207302000074020000F80200680200005F
:1002300000F80200C0EF030000000000000004000E
:1002400000000000000000000000000000000000AE
:10025000000000000000000050000000002000002E
:1002600000000000000000004150324348554200A9
:100270000000000000000000030000000400000077
:1002800005000000000000008000000000000000E9
:100290000800000000000000020000000200000052
:1002A000000000000100000001000000010000004B
:1002B0004348554232415000000000000000000059
:1002C0000600000007000000080000000900000010
:1002D0000C0300008000000010000000010000007E
:1002E0000200000001000000010000000200000008
:1002F0000000000002000000733565333833300021
:100300007F3D34014D61792033302032303233204B
:1003100031333A33333A323100000000000000003C
:1003200032B588B0044602A80FF2B421142200F0BE
:1003300071F900F01DFBCDE90001704D2A46012145
:10034000352000F0D3FC022208A9281D00F052F944
:10035000BDF820202146A81D00F04CF9082269466E
:10036000BDF820004019801D00F044F9BDF82000C0
:100370000E30ADF80D00294602A801F089FA09B047
:1003800030BD0EB410B5BFB004466846FC2101F084
:10039000BBFA41AB2246F921684602F055FA68469D
:1003A00002F0C6FA401C00216A46821802F8011CBD
:1003B000014689B26846FFF7B3FF3FB010BC5DF855
:1003C00010FBF0B593B010A80FF238110CC90CC097
:1003D000002425E010A8275C384600F0B7FE00286E
:1003E0001DD0002319460D460E462C30027AD0F857
:1003F00004C0BCF1000F00D00123002B03D0DCF8B7
:100400000C10DCF810500068002800D0C668029676
:100410000195009139460FF2F400FFF7B2FF641C1A
:10042000072CD7DB08A80FF2301191EC080B80ECF9
:10043000080B00F070F9089002F027FB099000F01B
:10044000DAF98DF828000DF12A0000F0B0FA0CA8B6
:1004500000F084FA00F08CFA9DF92820002A01D1DE
:1004600025A301E00FF27013DDE90C45CDE9064547
:10047000CDE90401BDF92E0003909DF92C000290F6
:100480009DF92B0001909DF92A000090099A089986
:100490000FF2E400FFF775FF13B0F0BD80B5082838
:1004A00006D1002904D00878012801D1FFF789FF7F
:1004B000002002BD80B51249082002F047FB002051
:1004C00002BD0020704700207047002070470020C8
:1004D000704700207047094901F584728262352215
:1004E0000270032202710222C2704FF484724282AF
:1004F000416100207047000072756E00FC1F030010
:100500009D04000001020405081083006964282589
:1005100064292C20746F74616C282564292C206553
:10052000787465726E616C282564292C20655F7370
:10053000616D706C696E67282564292C20655F7277
:1005400065706F7274282564292C20666173746548
:1005500073742825642900000000000000000000DA
:10056000000000000000000000000000000000008B
:10057000000000000000000076657273696F6E284D
:100580002564292C2072617465282564292C20613A
:10059000705F7374617465282573292C2074696DEC
:1005A0006528253032643A253032643A2530326489
:1005B0002E25303264292C2074735F6875622825DB
:1005C0006C6C64292C20626173655F74735F6B28A7
:1005D000256C6C642900000073757370656E64008F
:1005E0000500000000000000000000000000000006
:1005F0000000000062B38B0708D0521E11F8013BC7
:1006000000F8013B00F024808B07F6D1830740F00F
:10061000208000BF103A07D330B4B1E83810103A48
:10062000A0E83810F9D230BC530724BFB1E8081055
:10063000A0E8081044BF51F8043B40F8043BD2073F
:1006400024BF31F8022B20F8022B44BF0B78037033
:100650007047083A07D3B1E80810083A40F8043B5D
:1006600040F804CBF7D25307E4E7F0B401684468DC
:100670008368091801EB5402E40748BF4B440C306F
:1006800091422BD011F8014B14F0030504BF11F86F
:10069000015BED1C26090F2E07D111F8016B0F36F7
:1006A00003E011F8017B03F8017B6D1EF9D1002EE8
:1006B000E6D0A40811F8015B04F00304032C08BF82
:1006C00011F8014B05EB04241C1BB51CD8D014F801
:1006D000016B03F8016B6D1EF9D1D1E7F0BC7047D7
:1006E00080B50020DFF8081548718DF800006946D4
:1006F0000A2002F012FA0FF2405002F055FA01BD42
:1007000080B54FF42F72DFF8E414DFF80C0502F027
:10071000CEFB002002BDDFF80405704710B596B08F
:10072000044610A8142101F0EFF806A8282101F0D2
:10073000EBF86846182101F0E7F8FFF7ECFF0690A8
:10074000684600F040FF1822694607A8FFF762FFDD
:1007500001200D9065200E900F900F22214610A8C9
:10076000FFF748FF2820ADF8450006A910A801F0C2
:100770008FF816B010BD10B588B0044602A8142139
:1007800001F0C2F800200090ADF8040001A968460D
:1007900000F06CFF009800280FD00F22214602A81D
:1007A000FFF728FFBDF80400ADF80D00009902A87E
:1007B00001F06EF8009802F0FBFB08B010BD10B518
:1007C000DFF82C4460702078012804D16078042878
:1007D00001D100F0A6FE6078032802D1012020702C
:1007E00003E0042801D100202070611C0920BDE82D
:1007F000104002F092B9DFF8F80300787047DFF894
:10080000F003C0787047DFF8E803407970472DE9BE
:10081000F84F2DED048B82B0060000F09A80DFF8CF
:10082000D073D7E90401002901D1002810D0D6F8EF
:100830000720D6F80B30101A63EB0101DFF8B42360
:100840000123994204D8C0F084809042C0F0818096
:1008500002F00AFD04460D46D7E90489B9F1000FFC
:1008600002D1B8F1000F6CD0D7E906ABBBF1000F95
:1008700002D1BAF1000F64D0D6F80700D6F80B10F9
:10088000B0EB080061EB090102F0F8FCCDE90001D2
:10089000B4EB0A0065EB0B0102F0F0FC02460B46DC
:1008A000DDE9000102F00AFD41EC180BDFF84823F6
:1008B000DFF8483302F02EFE2BD8D14AD14B02F09C
:1008C00041FE26D297ED089B53EC192B0020CE4910
:1008D00002F050FE02D187ED088B11E0CB48CC49E5
:1008E00002F058FE8046894653EC182BC748C94988
:1008F00002F050FE42464B4602F01EFFC7E90801D7
:10090000D6F80700D6F80B10C7E90401C7E9064579
:100910001FE0D6F80700D6F80B10B0EB080061EB2B
:100920000901BF4A0623994213D301D8904210D33C
:10093000D6F80700D6F80B10C7E90401C7E9064549
:1009400007E0D6F80700D6F80B10C7E90401C7E99D
:10095000064502B0BDEC048BBDE8F18FA449D1E996
:100960000423C0E90023D1E90623C0E9022370472C
:1009700070B502F079FC9E4ED6E90623801A9941A3
:10098000D6E9044502F07AFCD6E9082302F002FE1B
:1009900002F046FF2018694170BD954902780A723D
:1009A00042784A72807888720020888170470622D7
:1009B0009C49FFF71FBEF0B5044616461F468C4DF6
:1009C000D5E90A01301A67EB0101974A002302F0CA
:1009D00053FF00B2B0F57A7F00D32046A9894018B2
:1009E000A88100B2B0F57A7F05DBA0F57A70A88106
:1009F000A87A401CA87295F90A003C2804DB3C3810
:100A0000A872687A401C687295F909003C2804DBDA
:100A10003C386872287A401C287295F9080018281A
:100A200001DB00202872C5E90A67F0BD80B50A28FD
:100A300001DA052002BDF02801D1F02002BDA12875
:100A400001DBA02002BD0A2190FBF1F002F08CFF37
:100A500041EC100B02F0A0FF51EC100B02F0A6FFCE
:100A600002F082FF41EC110B9FED700B03F00DFAC9
:100A700051EC100B02F09AFF00EB8001480002BD20
:100A800038B50446A0780146491E012926D9091F18
:100A900001292BD9891E012934D9891E012939D967
:100AA00013390BD00D390ED00F3911D0491E5DD03E
:100AB000491E01293BD9891E5ED05FE000210C2030
:100AC00002F02BF85AE0D4F80F00FFF766FF55E06C
:100AD000D4F80F000078FFF772FE4FE0012801D133
:100AE000002000E001204249087047E0052801D1BC
:100AF000012000E000203E4DE870E91C082002F0D3
:100B00000CF83BE0072801D1012000E00020384923
:100B1000087133E0364D092802D10020A87001E0A9
:100B20000120A870A91C0B2001F0F7FF26E0304D32
:100B30003A2812D13FA002F037F80120687105F180
:100B4000300002F0EBF90FF2FC0002F02DF8D4F8BF
:100B50000F100A2001F0E1FF10E005F1300002F073
:100B6000B2F90FF2F00002F01FF807E0D4F80F100E
:100B7000012003F002FC01E002F06DF8A0781438C7
:100B8000032801D915380FD1832000F0DFFA0300C4
:100B90000AD0D4F80F20B4F80510A0789B6A1B691E
:100BA00001B0BDE83040184731BD81780C2904D030
:100BB0001B2903D03C2902D07047AFE5DBE502F0EA
:100BC000ABB880B500208DF80000052902D10120C6
:100BD0008DF8000006489DF800108279914204D0FB
:100BE00081716946072001F098FF01BDE106000010
:100BF000D818030000F2052A3AEE940ED6FFEF3F14
:100C0000E388B5F81400F03F0000F03F9A999999F5
:100C10009999E93F9999C93F08190300C8C25F0132
:100C200001AC23FCE018030040420F00000000006C
:100C3000000000404D4F4E004D4F4646204342219C
:100C4000000000004D4F544F522053544152542144
:100C5000000000004D4F544F522053544F5021007C
:100C60002DE9F0410024C046C0462546DFF8607AF1
:100C70001EE0052002F0BEF90020B16A096888472D
:100C8000002804D02046441CC0B20228F1DBE4B2A4
:100C9000032C0BDB0020317847F82100307857F81F
:100CA0002000C8F80400304602F082F96D1C0024D0
:100CB000212D18DA382002F063F906462246382141
:100CC00003F088FBDFF8048A304658F8351088476F
:100CD000307847F8206008EBC508307857F82000D6
:100CE000C8F80400C8E72046BDE8F08102B5134605
:100CF00037211970587002226946981CFFF77AFC58
:100D000001BD02B510460121017002226946401C56
:100D1000FFF770FC01BD01220A704A7080388870AC
:100D20007047008A022801DB0120704700207047CD
:100D30002DE9F04389B0044603F029FD002848D08E
:100D40002746DFF88C0950F82700458A382F02DA49
:100D50004FF0040801E04FF0030808EB050002F033
:100D60000FF9064602A80FF6E4111422FFF752FC11
:100D700008EB0500ADF80D0008EB0609382F13DA73
:100D80004946204603F0F1FCFFF7F2FDCDE90001F2
:100D900008226946A8190838FFF72CFC32460121C1
:100DA0002046FFF7A3FF0DE006EB4801204603F0C5
:100DB000DCFC49462046FFF7AEFF32462946204676
:100DC000FFF79FFF314602A800F062FD304602F0B7
:100DD000EFF809B0BDE8F08310B50C46C1780129E1
:100DE0000ED100216160FFF79CFF002805D0A068AC
:100DF000002802D0FFF71AFE00E00020A06010BD1E
:100E00008068002804D0FFF711FEA060606010BD6C
:100E10006068FFF70BFE6060A06010BDDFF8B018DF
:100E2000D1F8E012082807D1002903D091F8340046
:100E3000002803D1012070470029FBD10020704712
:100E400038B500206FF00044254616E0DFF87C2816
:100E500002EBC101496800290ED0CA6A002A0BD0F2
:100E6000CB78002B08D1D2680978052901D1142A42
:100E700002DB954200DD1546401C40B201462129A7
:100E8000E4DBA02D05D12A2000F073FB012800D15E
:100E90005025A54200D10025284632BD2DE9FF4747
:100EA00004461746A246DFF8280850F82A5008786A
:100EB0008DF800004868019088680290C868039027
:100EC000002D01D103204BE069462846FFF784FF3F
:100ED000694605F12C0003F08DFD05F12806307BF5
:100EE000012815D102F0C0F980468946204603F05A
:100EF00066FC05F1100003F00BFE00203168496824
:100F0000884742464B462146002001F024FF0EE070
:100F10009DF8000000280AD105F1100003F0F8FD4B
:100F2000E81C4078012802D12046FFF701FF3A462D
:100F30000021482033681B699847E878002802D1CF
:100F4000022001F0ACFDB068002801D0012300E0D0
:100F50000023327B51460FF2887001F025FE0020FD
:100F600004B0BDE8F0872DE9FF4106461446B046BF
:100F7000DFF85C0750F8285008788DF800004868C2
:100F8000019088680290C8680390002D1AD09DF8DF
:100F9000000000280BD105F12807B868002811D0FF
:100FA000102200F108016846FFF734FB03E06946B0
:100FB0002846FFF711FF694605F12C0003F03CFDC0
:100FC000002801D0032029E005F12807387B0028FC
:100FD0000ED102F049F904460D4600203968C9686F
:100FE000884722462B463146022001F0B4FE05E038
:100FF0002246002149203B681B699847022001F0E6
:101000004EFDB868002801D0012300E000233A7BA0
:1010100041460FF2D86001F0C7FD002004B0BDE8E2
:10102000F08130B589B00546DFF8A40650F82540B8
:1010300008788DF810004868059088680690C868A0
:10104000079010788DF80000506801909068029029
:10105000D0680390002C03D008781178884201D022
:10106000032046E004A92046FFF7B6FE6946204665
:10107000FFF7B2FE05980199884209D106980299B6
:10108000884205D107980399884201D1002030E0B9
:10109000039900290ED0079888420BD00FF25860B0
:1010A00001F082FD00200146A26A92689047CEA01E
:1010B00001F07AFD694604F12C0003F0BDFC002824
:1010C00001D0032015E004A904F12C0003F092FCE8
:1010D000002211464A20A36A1B699847022001F0AA
:1010E000DEFC059B019A29460FF2146001F05CFDBD
:1010F000002009B030BD10B50C4611461A46DFF885
:10110000D03553F82030002B01D1012010BD2046EE
:101110009B6A1B699847002010BD10B50C4611460C
:101120001A46DFF8AC3553F82030002B01D10120EE
:1011300010BD192C04D1012100F0C0F9002010BD10
:1011400020469B6A5B699847002010BD0146CF2965
:1011500001DA002801D100207047DFF8740550F84B
:101160002100704710B582B0694600220A60082845
:1011700006D010281FD0202830D0402854D013BDCE
:101180006A4603214B20DFF848355B689B6A5B6940
:1011900098479DF80000800703D50021012001F049
:1011A000BCFC9DF80000400742D50DF10101022072
:1011B00001F0B3FC13BD6A4603214B20DFF8103564
:1011C0005B689B6A5B6998479DF8000000072FD514
:1011D0000DF10101032001F0A0FC13BD082000F077
:1011E000C8F9012804D00FF2285001F0DDFC13BD2E
:1011F000DFF8DC04046AE078002810D0FFF7B8FBC1
:10120000A26A92689047002812D1206B002806D06D
:101210000069002803D10021082000F04FF90021C7
:10122000084601F07AFC13BD1146062001F075FC5A
:1012300013BD2DE9F04106460F46D6F82C8002F08A
:1012400013F804460D46B06800280AD1B8F1000F23
:1012500019D0D8F81800C01B012807DBD8F8048083
:10126000F4E7D8F81800C01B01280CDAFFF780FB60
:10127000B26A9268904722462B4631780120BDE839
:10128000F04101F068BDBDE8F0812DE9F843044666
:101290000D4604F1100003F0C5FC064604F11000F1
:1012A00003F0C7FC07462078382802DA4FF004081C
:1012B00001E04FF00308002F43D040F2FF1008EB8D
:1012C0000601814203DB2046BDE8F243BAE0B5F8EF
:1012D000051016FA81F2DFF8F49308EB020181425F
:1012E0000DDB0FF234410FF2444001F05DFC09F5D3
:1012F0008471284600F0CCFA0020A5F80500B5F866
:101300000500484400F584722078382803DA39460D
:10131000FFF7ECFC02E03146FFF7F3FC3A4604F13C
:101320001001B5F8050018FA80F0484400F5847003
:1013300003F030FCB5F8050008EB06010818A5F825
:101340000500BDE8F18338B504461546206B00283A
:101350000FD0C069401A01280BDAFFF74CFA0128B8
:1013600002D1207B002804D029462046BDE8344025
:101370008BE731BD70B586B068460FF2E4311422B8
:10138000FFF748F901F081FB044600251BE0CF4937
:1013900001EBC0004668002E14D096F834000028F7
:1013A00010D0F07800280DD121463046FFF741FFDC
:1013B0006A4621463046FFF7C6FF214606F12C005B
:1013C00003F05AFB6D1CEDB228462128DFDBBDF887
:1013D0000500002803D0BF49684600F059FA0020F4
:1013E00006B070BD000000006372650038B5B849F2
:1013F00051F82040002C18D0B7480178491C0170E2
:10140000E56A09E005F108012046FFF7E5FCE86818
:10141000A8612869E8616D68002DF3D103F02EFD05
:101420000220BDE8324001F03ABB31BDA84951F875
:101430002000C178022904D10021C170022001F0EE
:101440002EBB70472DE9F04385B0044668460FF285
:1014500024311422FFF7DEF825784FF4FD70618AFD
:1014600090FBF1F6B6B204F1100003F0E2FB074680
:10147000DFF8689219E0B8464A4641462846FFF729
:1014800035FC424604F1100109F1040003F082FB2F
:10149000608A00FB08F0001DADF80500494668466B
:1014A00000F0F6F9A7EB0807BFB2002F03D0B74250
:1014B000E1DBB046E0E705B0BDE8F083F0B587B00A
:1014C00004460D462646824F00F06FF800280CD0E7
:1014D0007CA001F069FB0020014657F82620926AA3
:1014E0009268904778A001F05FFB57F82600FFF75D
:1014F000A9FF002D13D001A80FF28C211422FFF7B1
:1015000089F868460FF294210A6802608DF802405B
:101510000320ADF80900694601A800F0B9F907B049
:10152000F0BD30B583B068460FF218210CC90CC06D
:1015300000240FE066486946615C50F82150002D98
:1015400007D02846FFF7EDFB002802D02846FFF71A
:1015500079FF641C052CEDDB37BD5D4951F8200097
:10156000002804D0006B002801D001207047002023
:101570007047574951F82000002802D14FF0FF3042
:10158000704790F83410481E8041C043C00F40B2ED
:1015900070474F4951F82000002804D0C06A002845
:1015A00001D0C068704700207047494951F82000B9
:1015B000C16A00E04968002903D048690028F9D0D1
:1015C0007047002070472DE9F0410446012510E0E6
:1015D0003F4850F8250000280AD0D4E900670120D0
:1015E00000212A4603F0FEFC30433943C4E90001E0
:1015F0006D1C382DECDB04F1080681271EE0344811
:1016000050F82700002818D0A7F18002501102EBF3
:1016100090604FEAA0185FFA88F806EBC800D0E99E
:10162000004501200021A2EB881203F0DBFC2043DF
:10163000294306EBC802C2E900017F1CCF2FDEDB85
:10164000BDE8F08138B5044601250CE0204850F88B
:101650002530002B06D02246002153209B6A5B696F
:1016600098472E346D1C382DF0DB31BD70B5044623
:101670000D4600260120164A00E0401CC0B201467B
:10168000382906DA52F821100029F6D0761CF6B275
:10169000F3E730462E2111FB00F0401C28802888FB
:1016A00001F06EFC206000280AD00022298803F097
:1016B000ABFC206806702068401CBDE87040C1E7A4
:1016C00070BD000066730000666500009C2D03007D
:1016D000E0990300A42E0300201903001C9D0300C1
:1016E00023612025642C25642C2564002372202589
:1016F000642C25642C25640063727320256C6400BF
:1017000023632025642C256C643E256C6400000056
:10171000233E452D494E5400617272616E67655FCC
:10172000646174615F7061636B65740025733A2056
:1017300074785F646174612069732066756C6C28CD
:1017400025642900010E06120800000005000000B3
:101750000000000000000000000000000000000089
:101760000500000000000000000000000000000074
:101770000000000005000000000000000000000064
:101780000000000000000000050000000000000054
:101790000000000000000000000000000501000043
:1017A0002DE9F04705460E46B5F805704C4C2078FB
:1017B000401C2070802080F3118800BF00BF60783B
:1017C000401C60702878052809D1B5F80500B5F8E7
:1017D0000310884203D101F01EFA804601E04FF069
:1017E000000808EB070000F10F0A504601F0C8FBA3
:1017F0008146B9F1000F11D151460FF2EC0001F012
:10180000D3F96078401E6070C0B2002802D1002079
:1018100080F31188BDE8F04703F030BBB5F8050050
:101820004044A5F80500B5F803004044A5F80300BE
:101830000F2229464846FEF7DDFE3A46314609F1B9
:101840000F00FEF7D7FEB8F1000F04D007EB090038
:101850000F3001F0E9F9B5F8050000F10F0189B288
:10186000484601F0A5FC6078401E6070C0B20028B8
:1018700002D1002080F3118803F000FBB9F1000FC2
:1018800004D04846BDE8F04701F092BBBDE8F087C0
:1018900070B504460D46B4F80560A4F8036001F085
:1018A000E3FCC4F80700C4F80B100FE03046A4F8BE
:1018B0000500B4F80500361AB6B229462046FFF7EF
:1018C0006FFF002E02D0B4F805004519002E05D098
:1018D000B6F5FF7FEADD4FF4FF70E8E770BD00006A
:1018E0002019030001F05EBC74786275666665724B
:1018F000206973206E6F7420616C6C6F6361746516
:101900006428256429212100002202F067BD00001F
:101910009A4200D250547047704738B505460800C7
:1019200031D090F85010002904D0816C002901D0EA
:1019300003F0E4FB00F14804A1883D2923D20D54B3
:10194000A188491CA18089B23D291CD10A220A54D0
:101950000021A2881218517003F0DDFB207A0028C4
:1019600011D0012003F084FB002809D0217A00F176
:101970004F025170491C5170E1791170206031BDE6
:1019800000202072206031BD024600E0521C137816
:10199000002B03D00B46591E002BF7D1101A7047AD
:1019A00030380A288041C00F704738B504460025FA
:1019B00008E02068411C216005EB85010078303883
:1019C00000EB410520680078FFF7EAFF0028F0D11E
:1019D000284632BD2DE9F84F04460D4617461E46EF
:1019E0000097DDF82CA0DDF83080DDF8349019F098
:1019F000030F0BD1D34607E033463A462946202051
:101A0000A0477F1C0BF1010BC345F5D3DDF828B0CF
:101A100008E0AAF1010A33463A4629461AF80B00B3
:101A2000A0477F1CBAF1000FF3D15FEA897006D49A
:101A300009E033463A4629462020A0477F1C0098FB
:101A4000381A4045F5D33846BDE8F28F2DE9F0430A
:101A500085B00C9DDDF834E00E9C109EDDF844C08E
:101A6000129F5FEA877827D4BCF1000F10D05FEA9D
:101A7000C7780DD5002C02D117F00C0F08D0ACF1AF
:101A8000010C05E04FF030080EF805800EF1010E54
:101A9000B64502D2BEF1200FF4D35FEAC7780BD56A
:101AA000E64509D2BEF1200F06D24FF030080EF8FD
:101AB00005800EF1010EF0E75FEAC76842D5DDF858
:101AC0003C805FEA47590ED4BEF1000F0BD0B645FB
:101AD00001D0E64507D1BEF1010E04D0B8F1100FD8
:101AE00001D1AEF1010EB8F1100F0AD1BE0608D433
:101AF000BEF1200F05D278260EF805600EF1010E1A
:101B000018E0B8F1100F0AD1BE0608D5BEF1200FBB
:101B100005D258260EF805600EF1010E0AE0B8F164
:101B2000020F07D1BEF1200F04D262260EF8056025
:101B30000EF1010EBEF1200F04D230260EF8056022
:101B40000EF1010EBEF1200F16D2002C05D02D246F
:101B50000EF805400EF1010E0EE07C0705D52B2492
:101B60000EF805400EF1010E06E03C0704D52024D6
:101B70000EF805400EF1010E0397CDF808C0CDF820
:101B800004E00095FFF726FF05B0BDE8F0832DE9DE
:101B9000F04190B00025DDF858C01B9CBCF1000F4F
:101BA00001D124F01004189E670502D5BCF1000F86
:101BB00024D0BCFBF6F706FB17CE5FFA8EFEAC46D0
:101BC0000CF10105F046B8F10A0F02DA0EF1300E01
:101BD0000AE05FEA846802D54FF0410801E04FF067
:101BE0006108C644AEF10A0E0DF11C080CF808E0BD
:101BF000BC46BCF1000F01D0202DDAD306941A9C0C
:101C00000594199C04940396179C0294019507ACC3
:101C10000094FFF71BFF10B0BDE8F0812DE9F34FF2
:101C20008FB0934698464FF00009DDE91A45DDF87C
:101C300088A0002D03D1002C01D12AF0100ADDE983
:101C40001E675FEA4A5003D5002D01D1002C22D037
:101C50002046294632463B4601F00EFE06FB104365
:101C6000DBB24A4602F101091C460A2C01DA303384
:101C700007E05FEA8A6401D5412400E061241B1972
:101C80000A3B07AC135504460D0001D1002C02D0CD
:101C9000B9F1200FDCD3CDF818A021980590209839
:101CA000049003961C980290CDF8049007A8009029
:101CB00043465A4610990F98FFF7C8FE11B0BDE889
:101CC000F08F2DE9F74F2DED068B8CB09A46B0EED4
:101CD000408AF0EE608A00251F9CDDF8808053EC7E
:101CE000182B51EC180B01F045FC0DD0CDF80C80F1
:101CF000029403200190A1A000905346149A1399D6
:101D00001298FFF767FE32E14FF0FF326FF4801355
:101D100001F018FC0ED2CDF80C8002940420019042
:101D20000FF6A83000905346149A13991298FFF7B3
:101D300051FE1CE12A46DFF8243B01F0EBFB18D8EA
:101D40005FEA487001D5042000E003205FEA487193
:101D500002D50FF6803100E089A1CDF80C80029405
:101D6000019000915346149A13991298FFF732FE8E
:101D7000FDE01E9E0122DFF8E83A01F0CBFB05D919
:101D80002A46DFF8E03A01F0DDFB0AD2CDF8088000
:101D9000019400965346149A1399129800F0F2F8A1
:101DA000E5E09346134601F0CDFB05D24FF0010B61
:101DB00081F0004141EC180B5FEA485006D406263A
:101DC00004E0302004A968546D1C761E202D01D239
:101DD0000A2EF6D251EC180B01F0E8FD07460FF67B
:101DE000003000EBC60090ED009B384601F0BCFDD2
:101DF00002460B4651EC180B03F0DEF953EC192B9D
:101E000001F0C8FB41EC1A0B01F0E6FD814601F040
:101E1000B5FD02460B4651EC1A0B03F0CDF9012239
:101E2000DFF8443A01F076FB0DD809F10109484684
:101E300001F0A4FD53EC192B01F06CFB0FD84FF00F
:101E400000097F1C0BE0002201F07CFB07D3B9F1F5
:101E5000000F02D05FEAC97001D509F10109002E17
:101E600016D1384601F080FD02460B4651EC180BA6
:101E700003F0A2F90022DFF8F03901F063FB03D28E
:101E8000012201F047FB27D8F80725D57F1C23E066
:101E9000202D10D2761E0A20B9FBF0F0014601EB8E
:101EA0008102A9EB4201303104AAA9546D1C81467C
:101EB000B9F1000FECD1202D08D23046461E002883
:101EC00004D0302004A968546D1CF4E7202D03D2FF
:101ED0002E2004A968546D1C202D0DD20A2097FBDA
:101EE000F0F0014601EB8102A7EB4201303104AA78
:101EF000A9546D1C0700EFD108F00300012811D18F
:101F0000002C0BD0BBF1000F02D118F00C0F05D044
:101F1000641E03E0302004A968546D1CA54201D260
:101F2000202DF7D3202D16D2BBF1000F04D02D2089
:101F300004A968546D1C0EE05FEA487004D52B209C
:101F400004A968546D1C06E05FEA087003D52020E0
:101F500004A968546D1CCDF80C800294019504A866
:101F600000905346149A13991298FFF733FD0CB062
:101F7000BDEC068BBDE8FE8F000000006E616E00B8
:101F8000666E69002DE9FB4F2DED068B88B0834608
:101F90001446B0EE408AF0EE608ADDF868801C9D41
:101FA00053EC182B51EC180B01F0E4FA0CD1002281
:101FB000DFF8A83801F0AEFA06D94FF0FF326FF41F
:101FC000801301F0BFFA0BD202951B980190CDF857
:101FD0000080109B22460F995846FFF772FE6FE172
:101FE0000022134601F0AEFA02D24FF0010A00E0DF
:101FF0009246BAF1000F03D081F0004141EC180B7A
:10200000680501D44FF006088DED048BDDE904016D
:10201000342203F091F94005400DA0F2FF36DDE9CE
:102020000423DFF848180B400020DFF84418104361
:102030001943CDE90401304601F096FCDFF834285D
:10204000DFF8343801F0A6FADFF83028DFF830384E
:1020500001F072FB06460F46DDE904230020DFF89D
:10206000241801F069FBDFF82028DFF8203801F0A0
:1020700091FA32463B4601F05FFB01F097FC0646C1
:1020800001F072FCDFF80828DFF8083801F082FA66
:102090000022DFF8D43701F04FFB01F087FC074640
:1020A000304601F061FCDFF8F027DFF8F03701F08F
:1020B00071FACDE90001384601F056FCDFF8E0275F
:1020C000DFF8E03701F066FA02460B46DDE9000171
:1020D00003F072F841EC190B53EC192B01F05AFA8A
:1020E00041EC1A0B07F2FF30C117342202F07AFFDD
:1020F000CDE9040153EC192B00204FF0804101F091
:1021000049FACDE9020100204FF0804153EC192B30
:1021100003F052F8CDE9000151EC1A0B0022DFF870
:10212000883701F0CBF80022DFF8803701F004FB9C
:1021300002460B4651EC1A0B01F0C0F80022DFF802
:10214000703701F0F9FA02460B4651EC1A0B01F018
:10215000B5F8DDE9002301F0EFFA02460B46DDE9B0
:10216000020101F0ABF80022DFF8043701F0E4FAD5
:10217000DDE9042301F00EFACDE9040151EC180B5E
:10218000DDE9042301F0DEF909D2761EDDE9040160
:102190000022DFF8183701F091F8CDE9040106F1CB
:1021A0006300C72801D2042700E00527280522D5AF
:1021B00051EC180BDFF8FC26DFF8FC3601F0AAF929
:1021C00012D80022DFF8F43601F0BCF90CD24645F3
:1021D00004DAA8EB0600A0F1010800E0904645F4FF
:1021E00080651746164606E0B8F1000F03D0680573
:1021F00001D5A8F101081B98874202D2A0EB07097C
:1022000001E04FF00009A80703D5002F01D04FF0DF
:102210000009002E07D051EC180BDDE9042301F072
:102220004DF841EC180B0694BAF1000F05D051ECB3
:10223000180B81F0004141EC180B25F4006002906E
:10224000CDF80490CDF80080B0EE480AF0EE680AB0
:10225000109B22460F995846FFF733FD0446002F86
:102260002DD02246541CA80601D5452000E065204B
:10227000109B0F99D8473046C00F002E00D57642EC
:1022800005210591791E0491002103910A210291F3
:1022900001900096109B22460F995846FFF777FC55
:1022A0000446A80706D40AE0109B22460F99202076
:1022B000D847641C0698201A1B998842F4D32046FC
:1022C00008B0BDEC068BBDE8FE8F00002DE9FA4F8B
:1022D0008DB08146924600240846002801D1DFF8DF
:1022E000E095DDF8608018E0462801D145F0200532
:1022F00008F1070020F0070898ED000B08F1080826
:10230000029501960097534622460D994846FFF7DD
:10231000D8FC04460E98401C0E900E9800780028B9
:1023200000F05C82252840F04E820E98401C0E90F2
:1023300000250E98007820281CD0232821D02B2897
:1023400011D02D2808D0302822D145F001050E9853
:10235000401C0E9001201CE045F002050E98401C28
:102360000E90012015E045F004050E98401C0E90DB
:1023700001200EE045F008050E98401C0E9001204B
:1023800007E045F010050E98401C0E90012000E07B
:1023900000200028CDD100260E980078FFF700FB22
:1023A000002804D00EA8FFF700FB06460DE00E98AB
:1023B00000782A2809D158F8046B002E02D545F080
:1023C000020576420E98401C0E9000270E98007869
:1023D0002E281AD145F480650E98401C0E90007886
:1023E000FFF7DEFA002804D00EA8FFF7DEFA074652
:1023F0000BE00E9800782A2807D158F8040B012822
:1024000000DB07460E98401C0E900E980078682856
:1024100016D06A280ED06C2804D074281ED07A28D2
:102420001CD020E045F480750E98401C0E9000787A
:102430006C2818D145F400750E98401C0E9012E0DF
:1024400045F080050E98401C0E90007868280AD14F
:1024500045F040050E98401C0E9004E045F4807550
:102460000E98401C0E900E9800780146252900F029
:10247000A081452900F0FA8046293FF435AF47296D
:1024800000F0F48058291ED062291CD0632900F086
:102490000F81642917D0652900F0E88066293FF490
:1024A00023AF672900F0E28069290CD06F290AD098
:1024B000702900F06681732900F01D81752902D012
:1024C000782940F08081782801D0582801D1102245
:1024D0000AE06F2801D1082206E0622801D1022219
:1024E00002E00A2225F01005582801D145F0200508
:1024F000692803D0642801D025F00C05690501D5B1
:102500006D086D00692801D0642864D1A8052DD517
:1025100008F1070020F00708F8E80201002903DCB1
:1025200000DB01D2012300E00023002905DB01DCF0
:10253000012802D3CDE90A0104E0404261EB4101E8
:10254000CDE90A0108950796069710460021CDE9C6
:1025500004010293DDE90A01CDE900015346224658
:102560000D994846FFF75AFB044606E1E80514D5E5
:1025700058F8040B0146C90F012800DA40420595BE
:1025800004960397029201910090534622460D99BA
:102590004846FFF7FCFA0446EFE0680603D558F812
:1025A000040BC0B204E0280658F8040B00D500B2B2
:1025B0000146C90F012800DA4042059504960397A9
:1025C000029201910090534622460D994846FFF72A
:1025D000DEFA0446D1E0A8051BD508F1070020F07B
:1025E0000708F8E80201CDE90A0108950796069761
:1025F0000023CDE9042318460290DDE90A01CDE964
:102600000001534622460D994846FFF707FB044652
:10261000B3E0E80510D558F8040B05950496039728
:102620000292002101910090534622460D9948469E
:10263000FFF7ADFA0446A0E0680603D558F8040B8E
:10264000C0B204E0280658F8040B00D580B2059506
:10265000049603970292002101910090534622466E
:102660000D994846FFF793FA044686E0672801D0A3
:10267000472801D145F40065452801D0472801D1FC
:1026800045F0200508F1070020F0070898ED000B41
:1026900008F10808029501960097534622460D99C5
:1026A0004846FFF76FFC04460E98401C0E9034E637
:1026B0000127A8070AD405E0534622460D99202099
:1026C000C847641C3846471CB042F5D358F8040B81
:1026D000534622460D99C0B2C847641CA8074CD582
:1026E0003846471CB04248D2534622460D99202016
:1026F000C847641CF4E758F8040B0090002F01D081
:10270000394601E04FF0FF31FFF73EF98346680597
:1027100002D5BB4500D9BB46A8070BD405E05346FC
:1027200022460D992020C847641C584600F1010B31
:10273000B042F4D300980078002810D0680503D583
:102740003846471E00280AD0534622460D99009865
:10275000401C0090401E0078C847641CEAE7A807A8
:1027600006D40AE0534622460D992020C847641C2F
:10277000584600F1010BB042F4D30E98401C0E9065
:10278000CBE558F8040B45F021010591082104918F
:102790000397102102910021019100905346224697
:1027A0000D994846FFF7F3F904460E98401C0E9029
:1027B000B3E5534622460D992520C847641C0E9860
:1027C000401C0E90A9E5534622460D990E980078BC
:1027D000C847641C0E98401C0E909EE5544501D2DB
:1027E000224601E0AAF1010253460D990020C84794
:1027F00020460FB0BDE8F08F0EB478B50546012035
:1028000002F036FC040001D100201AE004F1400679
:1028100002F0BBFDC6E900014920B0730020F0734F
:102820000120307405A800902B464FF0FF3221465E
:102830002448FFF74BFD050002D0204602F07BFC48
:10284000284672BC5DF810FB80B5009313460A461B
:1028500001461D48FFF73AFD02BD00000000F07F71
:1028600065CDCD4165CDCDC10000E03FFFFF0F003C
:102870000000F03FFB799F501344D33FB3C8608BF7
:10288000288AC63F0000F8BF61436F63A787D23F25
:1028900071A379094F930A401655B5BBB16B02403D
:1028A000EF39FAFE422EE63F00002C4000002440A3
:1028B000000018402D431CEBE2361A3F80842E4165
:1028C000191900001B19000011190000666E692D0E
:1028D00000000000666E692B000000000000000090
:1028E000000000000000F03F000000000000244055
:1028F00000000000000059400000000000408F4030
:10290000000000000088C34000000000006AF8409A
:102910000000000080842E4100000000D0126341BE
:102920000000000084D797410000000065CDCD4134
:1029300000F10103810704D010F8011B89B1810760
:10294000FAD10268B2F10131914311F0803F04BF26
:1029500050F8042FF6E710F8011B11B110F8011B15
:10296000FBE7C01A7047000000B583B000F07CFCA4
:10297000CDE90001684600F08BF8042000F08FF8E4
:10298000484800F0A0FA07BD70B5464C2046C06824
:10299000C0460546FEF754FA0646B54212D0314607
:1029A0002846FEF70EF93146204602F03FFD002E84
:1029B000204603D0BDE8704000F085BABDE8704005
:1029C00000F0ACBA70BD30B583B000200146CDE94F
:1029D0000001022001F0D1FC324D2BE0DDE90023A3
:1029E000E868FDF7E8FF30480178491C0170FEF700
:1029F000C1FC02F043FA694605F1480002F024FDEB
:102A00000028EBD0200702D50820FEF7ABFBE0063C
:102A100002D51020FEF7A6FBA00602D52020FEF767
:102A2000A1FB600602D54020FEF79CFBA00701D564
:102A3000FFF7AAFF7E2002F025FD04466007DAD4E6
:102A4000E0E710B584B0174C04F506630822114680
:102A500004F1480002F038FD022002904FF40060BB
:102A6000019004F160000090104B50220FF24C01D5
:102A700004F1140002F034FD4FF47A720C49204640
:102A800004B0BDE8104000F012BA0648C0687047B4
:102A900080B50146074802F055FD40B202BD064927
:102AA00002F06EBD504A030020190300C729000040
:102AB00069290000984A0300644A030073656E7335
:102AC0006F725F7461736B005060026041600860F8
:102AD00070470A68F8E7486001607047016840681D
:102AE000F9E7002007E02F4901EBC00241F8302050
:102AF00011464960401C0D28F5DB704710B4026890
:102B00000B4600E01268824204D09468A342F9D1D7
:102B1000104600E0002010BC70472DE9F04104464B
:102B20000D4626461F4F57F8368008E0D8F8082093
:102B3000100002D0294620469047D8F8008007EBC5
:102B4000C6008045F2D10020BDE8F08138B50C46C2
:102B50000D2801DA210001D1032032BD114901EB1A
:102B6000C00521462846FFF7C9FF002806D10C20E2
:102B700000F006FA84602946FFF7ABFF002032BD63
:102B800010B5084A02EBC000FFF7B8FF040001D1FE
:102B9000032010BDFFF7A2FF204600F009FA002035
:102BA00010BD0000E87C03000EB430B5C0B0044690
:102BB00068464FF48071FEF7A7FE43AB22464FF400
:102BC00080716846FFF740FE6846FFF7B1FE441C7F
:102BD00000206946611801F8010C7E480178491C03
:102BE00001707D4D297808462218FA2A0DDA7B4AB1
:102BF0008018002902D00A2100F8011C22466946EB
:102C0000FDF7F8FC28782018287002F037F940B05A
:102C100030BC5DF810FB70480078002801D0801CA3
:102C200000E00020C0B2704738B56B4C2278002A13
:102C300010D000280ED0032101704270674D294644
:102C4000801CFDF7D7FC0022FA21284601F0C2FBC8
:102C50000020207031BD70B50FF28C115CA0FFF721
:102C6000A3FF5C480178491C017000245C4D5D4E57
:102C700019E0605DFEF76AFA002813D0605D56F82F
:102C8000200000280ED1552000F07AF9615D46F849
:102C900021000022552102F0B7F9605D014656F887
:102CA00021100870641C062CE3DBBDE8704002F0C4
:102CB000E5B870B586B040F2FF14204600F060F928
:102CC000050027D00022214602F09EF900260EE0E2
:102CD00044484349715C50F82110002906D0552220
:102CE000104610FB0650401CFDF784FC761C062E97
:102CF000EEDB68460FF21C111422FDF78BFCADF8D9
:102D000005400620287029466846FEF7C1FD284682
:102D100000F04EF906B070BD38B50FF2E0012CA0FE
:102D2000FFF742FFFFF7C5FF2A480178491C0170F1
:102D300001242C4D09E055F82400002804D000F0AF
:102D400037F9002045F82400641C382CF3DBBDE87B
:102D5000314002F093B870B514461D46382935DA73
:102D6000204A52F82110002930D0C0EBC00201EBFC
:102D70008200461C00F078FA001BA9413268521C00
:102D800032607268B36812184B417260B360F268C7
:102D90003369994205D801D3904202D2F26833696F
:102DA00001E002460B46F26033617269B369002BA1
:102DB00001D1002A08D07269B3698B4204D801D3CB
:102DC000824201D27069B1697061B16170BD000069
:102DD0002573000020190300D9A50300D87A030049
:102DE000481E0300D47B03007365745F73797374AA
:102DF000656D5F746573745F656E76006765745F9B
:102E000073797374656D5F746573745F72657375E0
:102E10006C74000004FF3C00000000000000000093
:102E2000000000000000000030B4544982680B6AC2
:102E30009A188260012202744A692AB902604861C4
:102E40000FF23100C8610CE001F114038468956849
:102E5000651B012D03DB13461A68002AF7D10260B7
:102E6000186048694A6A8068821A48BF486230BC64
:102E70007047000010B5044610E0A0610168616170
:102E800000210174A069816081F31188A069406804
:102E90008047802080F3118800BF00BF606928B19F
:102EA0008168226A8A1A012AE7DB616210BD30B4A8
:102EB000002300241D4638C018C01438C260826048
:102EC000416030BC704710B5802181F3118800BF8C
:102ED00000BF017C294CC1B104F1140100E011468E
:102EE0000A6892B182420ED011460A686AB18242E3
:102EF00009D011460A6842B1824204D011460A68DC
:102F00001AB18242EBD102680A60C1688160FFF7A2
:102F10008BFF607808B980F3118810BD802181F3A0
:102F2000118800BF00BF027C14490AB3002202745A
:102F300082680B6AD21A826001F1140200E01A461C
:102F4000136893B183420ED01A4613686BB1834263
:102F500009D01A46136843B1834204D01A46136855
:102F60001BB18342EBD100681060486900B9C861A9
:102F7000487808B980F311887047000020190300D1
:102F800030B5134D0446287881B020B9281D02F0D1
:102F900033FB01202870281D02F047FB204603F078
:102FA00017FA0446281D02F066FB204601B030BD2A
:102FB00030B50446064D81B0281D02F036FB204690
:102FC00003F061FB281D01B0BDE8304002F053BBA7
:102FD000A4A3030038B504460D0000BF00BF00BF26
:102FE00000BF00BF02F0D1F9A942F6D301D8A04238
:102FF000F3D331BD10B5044602F0C7F94FF47A722D
:103000006243801851EBE271BDE81040E2E770477F
:10301000704738B5FDF7ACFC894AC2E908010021C8
:103020000520FFF77AFD87480078002820D0864CDD
:103030002078401C2070854D2878401C2870102076
:10304000FFF72DFD802080F3118800BF00BF20789E
:10305000401E20702878012804D16868002801D01B
:1030600003F0FCFD2878401E2870002080F31188B2
:103070000820BDE8324003F00FBF38B5FDF778FCFB
:103080006F4AC2E906016F480078002820D06E4CD4
:103090002078401C20706D4D2878401C2870082036
:1030A000FFF7FDFC802080F3118800BF00BF20786F
:1030B000401E20702878012804D16868002801D0BB
:1030C00003F0CCFD2878401E2870002080F3118882
:1030D0000720BDE8324003F0DFBE38B5FDF748FCFD
:1030E000574AC2E9000157480078002820D0564CC2
:1030F0002078401C2070554D2878401C28702020D6
:10310000FFF7CDFC802080F3118800BF00BF20783E
:10311000401E20702878012804D16868002801D05A
:1031200003F09CFD2878401E2870002080F3118851
:1031300031BD002800D1D0E7704780B5002816D0F7
:10314000032802D0042809D001BD41480090002383
:1031500001220321072003F0C9FE01BD3D48009074
:10316000002301220321082003F0C0FE01BD3A48DC
:103170000090002301220221082003F0B7FE01BDC8
:1031800002F007B980B50846FDF741FB334804F06B
:103190009DF8002805D00FF2D400BDE80240FFF7EB
:1031A00003BD01BD00232E4A40212C4804F0F6B88F
:1031B00004F0BFB82DE9F8430C4615461E46052716
:1031C0000120C046804615F8019B20480178491C23
:1031D00001702449404604F066FE002807D100959E
:1031E000731E4A466108404604F073FE074601F02C
:1031F00045FE3846C0B2BDE8F2832DE9F04182B009
:103200000C4615461E4605270120C04680460F483D
:103210000178491C01701349404604F044FE00281F
:1032200007D10096089B2A466108404604F03CFE00
:10323000074601F023FE3846C0B2BDE8F681000023
:1032400070480300DFA50300E1A503002019030077
:103250007B30000013300000DB300000A47D030051
:1032600085310000801A060002F091B84D534720C6
:10327000426F782046756C6C00000000094200BF68
:1032800008BF00F07BBB02460846B0FA80F1504010
:103290008A40C1F12001C8415040C91E01F5846136
:1032A000090501EBD021400540EAD220520572F118
:1032B000004250F1000041F1000170472DE9F0415A
:1032C00040F2FF7581EA030C0CF0004C15EA115432
:1032D0001DBF15EA1357AC42AF42E9E0BC41C1F350
:1032E0001301C3F31303801A994143F4801304D2EA
:1032F000641E4000494180185941C90241EA5051B9
:10330000B1FBF3F603FB1611A2FB0675D7EBC02049
:10331000A94102D2761E80185941C90241EA505192
:10332000B1FBF3FE03FB1E11A2FB0E75D7EBC02011
:10333000A94103D2AEF1010E80185941890241EA38
:103340009051760546EA8E2EB1FBF3F603FB16117B
:10335000A2FB0675D7EB8020A94102D2761E801809
:103360005941C90241EA50514EEA060EB1FBF3F64B
:1033700003FB1611A2FB0675D7EBC020A94102D2B0
:10338000761E80185941C90241EA5051B1FBF3F74A
:1033900003FB1711A2FB0735D3EBC020A94167F14E
:1033A00000070CBF004247F0010766F3D5274FEA3C
:1033B0001E31B80814F5806414DDBD0775F10042B4
:1033C00050EB0E5051EB045111F5801F5CBF41EAE8
:1033D0000C01BDE8F0814CF07F6141F0E04100203C
:1033E000BDE8F081BD076D0840EA0E5041F4801140
:1033F000D4F10104B4F120060ADAC4F12006020077
:10340000E04001FA06F3E1401843B24015430EE0F4
:10341000342C14DCC6F1200445EA40056D0820FA7E
:1034200006F2154321FA06F0A1400D43002175F183
:10343000004250F1000051EB0C01BDE8F08100208A
:103440005FEA0C01BDE8F081CFB992185B41B3FA95
:1034500083F704BFB2FA82F6BF190B3FB7F120061B
:103460002FBF02FA06F3BB40C7F1200622FA06F688
:1034700038BF3343BA401CB1E419641E2FE77F42C2
:1034800031F00041B1FA81F404BFB0FA80F6A4191A
:103490000B3CB4F120062FBF00FA06F1A140C4F1A5
:1034A000200620FA06F638BF3143A0403C1B16E741
:1034B000AC421ABF05EA1357AF4214E050EA410686
:1034C0001CBF52EA4306BFE750EA41073046614657
:1034D0001CBF41EA0551BDE8F08152EA430C08BF28
:1034E000C143BDE8F08100204FF4001616EB410FF8
:1034F00098BF16EB430F08BF16EB410F24BFC14323
:1035000005E016EB430F0CBF61464CEA0551BDE8E0
:10351000F08100004FF4001C1CEB410F94BF1CEB2A
:10352000430F09E041EA030C50EA4C0C52EA0C0C40
:1035300003D28B4208BF8242704714BF9942904227
:10354000704700004FF4001C1CEB410F94BF1CEBB4
:10355000430F09E041EA030C50EA4C0C52EA0C0C10
:1035600003D2994208BF9042704714BF8B428242F7
:103570007047000090420CD141EA030C50EA4C0C19
:1035800007D0994205D14FF4001C1CEB410F38BF06
:1035900089427047B0B581EA030C0CF0004C40F250
:1035A000FF7515EA11541DBF15EA1357AC42AF421F
:1035B00039E0E41923EA455343F48013C90241F08A
:1035C000004141EA505EC7021100A7FB0202002839
:1035D0004FF00000EEFB01204FF00001E3FB07215C
:1035E00018BF42F00102401800214941E3FB0E01DF
:1035F000A4F580640F0302D252004041494154F1C6
:1036000001046CDD470872F1004250F1000051EBFB
:103610000451A1F580115CBF41EA0C01B0BD4CEA38
:1036200005510020B0BD05EA1357AC4214BFAF42AC
:1036300041E050EA410E1CBF52EA430E02E06146EF
:103640000020B0BD24423C441BD15FEA070EF6D0F7
:10365000090302BF01460020AEF1140EB1FA81F752
:10366000AEEB070401FA07FE0C37C7F1200100FAA0
:1036700007F7C8404EEA000E23EA455343F480138F
:10368000A2E733F00043B3FA83F704BFB2FA82FE35
:1036900077440B3FE41BB7F1200E2FBF02FA0EF365
:1036A000BB40C7F1200E22FA0EFE38BF43EA0E03DC
:1036B000BA40641C82E750EA410E14BF52EA430E3E
:1036C0006FF000014FF4001717EB430F8ABF194644
:1036D00017EB410FB5E74CEA05510020B0BDD4F11E
:1036E0000104B4F120070FDAC4F12007520828BF03
:1036F00042F0010210FA07F501FA07F7E1BF2A4389
:10370000E0403843E1400FE0352C98DCC7F120045D
:1037100052EA400220FA07F218BF42F0010231FAE1
:1037200007F0A1400A43002172F1004250F100006D
:1037300051EB0C01B0BD0000F0B44FF0004591EA30
:10374000030C44BF6B4001F041BD00BF841A71EB14
:10375000030603D2001BB141121973414FF4001C40
:103760001CEB410F34BF7CEB430443E00C0DA4EB96
:103770001356352E50DC45EAC323DB0A45EAC12146
:10378000C912B6F120050DDD63FA05F6EB4086EAB5
:103790000305124218BF45F00105C01851F10001A0
:1037A0000CD213E062FA06F5F2405540F3415A405C
:1037B000B340F3405A408018594107D349085FEAA3
:1037C00030005FEA350528BF45F0010501F580119D
:1037D000420875F1004250F1000041EB0451F0BC89
:1037E0004FF4001C1CEB410F38BF70470020090D3F
:1037F000090570471CEB410F10D252EA43060BD06B
:10380000BCEB410F05D80C0DAB43661E342EB5DD65
:1038100002E0AB4380185941F0BC7047F0BC7047E0
:10382000490080F0228000BF4A0DA2F580621E3A56
:103830000ADC5242202A18DA890241F0004141EAAA
:1038400050500021D0407047D2F1200210D489029C
:1038500041F0004141EA5051C002D04061FA02F308
:103860005840D14080EA0100704700200021704795
:10387000D0170100704700001B4213D1094236D116
:103880002AB18446B0FBF2F002FB10C2704704F08C
:1038900069BDFCD30022002370470B000200002109
:1038A00000207047904271EB030CF6D370B5B1FA6B
:1038B00081F4B3FA83F52C1BA340C4F1200532FA3E
:1038C00005F63343A2405FF00046E64002E05B08A5
:1038D0005FEA3202841A71EB030524BF20462946B1
:1038E0007641F4D302000B003000002170BD012AA4
:1038F000CFD970B5140C20D0B1FA81F4B2FA82F5A8
:10390000C4F120046419B4F12006D6D3B2405FF0AC
:103910000044F440002502E052085FEA3303C61A6F
:1039200071EB020E24BF3046714664416D41F3D302
:1039300002000B002000290070BD0C46B1FBF2F123
:1039400002FB11452D0445EA1045B5FBF2F402FBDC
:10395000145580B240EA0545B5FBF2F002FB105267
:1039600040EA044070BD0000010040F10980F446C7
:10397000404200F005F851F000416047010000BFEF
:1039800009D0B0FA80F18840C91CC1F584610905ED
:1039900001EBD0214005704780B54FF0FF3251EC6C
:1039A000100B04F0E1FC41EC100B01BDF446400D9E
:1039B00040EAC120490006D200F014F8004248BF96
:1039C0006FF00040604700F00DF84FF00041884272
:1039D0008CBF084640426047400D40EAC120490084
:1039E00080F00D8040F00040490DA1F58061491C38
:1039F00005D4D1F11F0154BFC840C01770474FF024
:103A000000007047000000002DE9F8452DED088BFF
:103A10000FB486B040F2FF7107989DED080B8DED55
:103A2000040BC0F30A50884208D107980024000311
:103A300005BF069800280225012512E0012807DAB3
:103A400006A804F041FE012802DB0024002508E05E
:103A5000079A40F2FE3161F31E520792441A4FF06A
:103A6000FF35002104A804F050FE1A9F06460FB14E
:103A70000020388036B9DDE9082300200021FFF757
:103A800079FD12D0002D13D524B2012C15D1DDE91A
:103A900006230020DFF88C13FFF76CFD05D0012E04
:103AA0000BD1DF49FFF766FD3ED10AB0CD49E8E111
:103AB000022D04D1DDE90601E2E1012E6FDB022EC9
:103AC00008BFDDE9080100F0DB81012D2AD107984C
:103AD0000028099806D4002854BF9FEDD50B9FED10
:103AE000D60BCBE100280ED456B94FF0FF3104A815
:103AF00004F00BFE002848BF9FEDD10B00F1BE8102
:103B00009FEDCB0BBAE156B94FF0FF3104A804F09A
:103B1000FCFD002848BF9FEDB40B00F1AF819FED85
:103B2000C60BABE1012E11D10998002824B206D4AE
:103B3000012CACBF9FEDBE0B9FEDBF0B9EE1012C96
:103B4000ACBF9FEDBD0B9FEDBA0B97E10998002824
:103B500010D466B94FF0FF3104A804F0D6FD002858
:103B600042BF079800289FEDA00B00F187819FEDD1
:103B7000B20B83E104F006FE2221016066B94FF02A
:103B8000FF3104A804F0C1FD002842BF07980028B7
:103B90009FEDAB0B00F172819FEDA50B6EE10798D5
:103BA000002848BF002E0CD504F0ECFD2121016057
:103BB0000AB04FF0FF30BDEC088B6FF00041BDE85C
:103BC000F485DDE9060100220023FFF7A3FC38BFDE
:103BD000002509D381F00041CDE906014FF0FF3106
:103BE00004A804F092FD0546012C13D1DDE906017D
:103BF0007F4A804BFFF7A6FC0CD2DDE906230020AC
:103C00004FF08041FFF7C6FCCDE9060100269FED8D
:103C10007A8B1CE0DDE9062300207949FFF7BAFC26
:103C20009FED788B53EC182BFFF786FDFFF7BEFE58
:103C3000A0F120063046FFF797FE0022734BFFF7F6
:103C4000A9FC53EC182BFFF777FD41EC180B0FF292
:103C5000582000EB461ADDE9060153EC182B01F061
:103C6000ABFADDE9062341EC190B51EC180BFFF719
:103C700063FD02460B4651EC190BFFF71FFB41ECAD
:103C80001A0B53EC1A2BFFF785FC41EC1B0B8DED47
:103C9000069B04F09BFC53EC1B2BFFF77BFCDDE940
:103CA000062301F089FA0646884600204D4953EC68
:103CB000182B01F081FA00224FF08043FFF76AFCD5
:103CC00032464346FFF738FD53EC1A2BFFF762FCF0
:103CD000DDE90623FFF730FD41EC180B4C4A4D4B54
:103CE000FFF7ECFACDE904012046FFF73DFE41EC79
:103CF000190BDAE9000153EC192BFFF71DFDDDE983
:103D00000423FFF719FDCDE90401DDE90823FFF7DE
:103D100041FCCDE9020100223F4BFFF713FCC0F04C
:103D2000938001223D4BFFF7F5FB40F2918000228A
:103D30000023FFF707FCDDE9022339BF00203849E3
:103D400000203849FFF7F8FCFFF730FE0446DDE9B4
:103D5000080153EC182BFFF71DFCCDE90201DAE94D
:103D60000223DAE90401FFF7E7FCDDE90823FFF7A6
:103D700011FC9FED2D8B53EC182BFFF70BFCDDE9AD
:103D80000223FFF7D9FCCDE90201DAE9002351EC67
:103D9000190BFFF7D1FCDDE90823FFF7FBFB064613
:103DA00088462046FFF7E0FD02460B463046414676
:103DB00001F002FA53EC182BFFF7ECFBDDE90223CC
:103DC000FFF7BAFCCDE902010FB13C80002400945A
:103DD0000022044B02A804F0DBFCA8B3012837D072
:103DE00042E000BF0000F03F000000000000008043
:103DF000CD3B7F669EA0E63F000000000000F03F44
:103E000000005040000000000000E03F0000903F34
:103E1000EF39FAFE422EE63F0000E0C00000E0402D
:103E20000000E0BF0000E03FEF39FAFE422EE63F1F
:103E3000000000000000F07F000000000000000013
:103E4000000000000000F0FF0020CDE9020007E0C4
:103E50000020014902E000BF0000F07FCDE902012F
:103E600004F090FC22210160002D1DBFDDE902015C
:103E700081F0004141EC100B9DED020B51EC100B59
:103E80000AB0BDEC088BBDE8F48580B50020009039
:103E900053EC112B51EC100BFFF7B6FD41EC100B5E
:103EA00001BD000000000000000000000000F0BFA5
:103EB0000000000000000080000000000000008002
:103EC0000000000000000000000000C05294EEBF9F
:103ED00000000048204E51BE000000F86467BCBCE2
:103EE0000000000000000000000000208133EDBF52
:103EF00000000080B3DB14BE000000506706A3BCC6
:103F00000000000000000000000000D0E9DCEBBF72
:103F100000000008C39259BE00000080B0D3B8BCB6
:103F2000000000000000000000000070F98FEABFF0
:103F3000000000C0A51028BE000000E8BFC0B0BC53
:103F4000000000000000000000000070284CE9BFE5
:103F500000000060134B42BE000000C03D20B8BC12
:103F6000000000000000000000000050FA10E8BF50
:103F7000000000C05FF62BBE000000905C71A7BC83
:103F8000000000000000000000000020FCDDE6BF93
:103F9000000000C0F8F154BE00000018E9F6B9BCFA
:103FA0000000000000000000000000D0C3B2E5BF28
:103FB00000000070E43254BE00000050DB06B4BCC8
:103FC000000000000000000000000010EF8EE4BFC1
:103FD00000000020F36252BE000000C02A879ABC95
:103FE0000000000000000000000000B02272E3BFEB
:103FF000000000F0E8E056BE00000028352DBDBCF2
:104000000000000000000000000000000A5CE2BFA9
:10401000000000B0FA8E41BE00000040AE6FBDBC93
:10402000000000000000000000000000564CE1BF4E
:10403000000000F015CD5FBE00000000141C90BC15
:10404000000000000000000000000040BD42E0BF92
:1040500000000030F93457BE000000E06C1E93BC35
:104060000000000000000000000000E0F57DDEBF61
:10407000000000B08A535EBE00000080DA77AABC60
:104080000000000000000000000000C09D81DCBFB7
:1040900000000000FFA226BE0000006057E2B0BC96
:1040A000000000000000000000000060F98FDABF8F
:1040B000000000580A8151BE000000F05F60B8BCEB
:1040C00000000000000000000000000098A8D8BF19
:1040D000000000607A7F45BE000000D05433A3BCCE
:1040E0000000000000000000000000600FCBD6BF01
:1040F000000000D091CB40BE000000406D1BA0BC72
:104100000000000000000000000000A0FBF6D4BF8B
:1041100000000098C5CE52BE000000003A397EBCB7
:104120000000000000000000000000E0FE2BD3BFF4
:104130000000004073872BBE00000000926879BC2D
:10414000000000000000000000000040C069D1BF76
:1041500000000058F16353BE00000080438D7CBC1A
:10416000000000000000000000000080D85FCFBF0A
:10417000000000181F8354BE000000B03F42A2BCE4
:1041800000000000000000000000008067FCCBBFC2
:1041900000000060FAFF53BE00000050E00DB8BC04
:1041A00000000000000000000000000098A8C8BF48
:1041B000000000607A7F35BE000000C0543393BC1D
:1041C000000000000000000000000000DC63C5BF2C
:1041D00000000058D6FF54BE00000000396490BCB7
:1041E0000000000000000000000000C0AD2DC2BFB4
:1041F00000000080A45915BE000000E0484BABBC95
:104200000000000000000000000000801A0BBEBF8C
:1042100000000050BF3C5ABE000000A0B364B6BC12
:1042200000000000000000000000008004D6B7BFBE
:1042300000000040BBCF36BE0000008076CEA8BC98
:1042400000000000000000000000008032BBB1BF91
:10425000000000402A0043BE00000028C60CBDBC80
:104260000000000000000000000000009473A7BFE1
:10427000000000182B3B59BE000000C0E55DA5BC46
:10428000000000000000000000000000EE4397BFA7
:10429000000000A0E6C340BE00000020958DB5BC24
:1042A000000000000000000000000000000000808E
:1042B00000000000000000800000000000000080FE
:1042C0000000000000000000002070470020704740
:1042D00030B58DB0050001D102204CE000200290E5
:1042E00001902C780422691C02A8FCF783F90422AF
:1042F000691D01A8FCF77EF921460FF29C00FEF72C
:1043000053FC2046FCF722FF00281FD00025006B3D
:1043100000280FD10FF294000FC803AD85E80F00FD
:104320000298049001980590002203A92046FCF70A
:10433000B5FD0125FCF75FFA012803D10420FCF745
:104340003EFA0125002D01D0002014E007A80FF24D
:104350006C011422FCF75EF968460FF274010A68DA
:1043600002608DF802400320ADF82100694607A8DD
:10437000FDF78EFA02200DB030BD002803D00228D0
:1043800005D002D305E00846A0E70846A0E70846A6
:104390009AE700207047000023234548206E6F20D5
:1043A0006576656E74282564290000000000000011
:1043B00000000000000000000000000005000000F8
:1043C00000000000000000000000000000000000ED
:1043D0000A1A000062F30F2262F31F4200B500BF09
:1043E000130096469446103928BFA0E80C50FAD81E
:1043F0005FEA417C28BF0CC048BF40F8042BC907C6
:1044000028BF20F8022B48BF00F8012B00BD000098
:10441000506002604160086070470A68F8E74860D1
:104420000160704701684068F9E7DFF82004006028
:104430004060704701281AD004281BD0052825D0D9
:10444000082829D00E281ED0252822D087282CD035
:10445000952830D0972831D09A2829D0A1280FD07C
:10446000A4281CD0BB281DD0CE2806D029E0DFF818
:10447000E0037047DFF8DC037047DFF8DC037047C8
:10448000DFF8D8037047DFF8D8037047DFF8D403AC
:104490007047DFF8D4037047DFF8D0037047DFF8C8
:1044A000D0037047DFF8CC037047DFF8CC037047C8
:1044B000DFF8C8037047DFF8C8037047DFF8C403AC
:1044C00070470020704701281AD0042818D005280A
:1044D0001AD008281CD00E2814D0252816D08728DA
:1044E0001AD095281AD0972818D09A2814D0A12825
:1044F00010D0A4280ED0BB2810D0CE280AD00FE0B0
:1045000014207047182070471C20704708207047FF
:10451000062070470C20704702207047012070472A
:10452000002070477CB50D46002401281CD00428CB
:1045300047D0052852D0082869D00E2800F0B28054
:10454000252800F08E80872800F0D3809A2800F07C
:10455000DE80A12878D0A4287CD0BB2800F09D80E4
:10456000CE2800F0CF80DEE004F095FBDFF8E062BB
:10457000B5F9000000EE900AF8EEE00A20EE800A9D
:1045800086ED000A04F087FBB5F9020000EE900A00
:10459000F8EEE00A20EE800A86ED010A04F07BFBCB
:1045A000B5F9040000EE900AF8EEE00A20EE800A69
:1045B00086ED020A2888B0816888F081A888308258
:1045C000B1E0DFF88C6220467061B061F06128884C
:1045D000308468887084A888B084A4E00520FCF743
:1045E000B5FD0079012800D10124002C07D0DFF8A7
:1045F0006002806D2968884201D1012400E0002416
:104600001C222946DFF85C02FBF7F4FF8BE0DFF8A1
:10461000406206F1780000792978884200D10124AF
:104620000122294606F17C00FBF7E4FF0222691C07
:1046300006F17E00FBF7DEFF022205F10B0106F119
:104640008000FBF7D7FF6EE00C22DFF81002FBF7CB
:10465000D1FF68E001240C22DFF81402FBF7CAFF47
:1046600061E02868009028798DF80400DFF8E061A7
:10467000716F009A914200D10124002C05D096F868
:104680007810814201D1012400E00024082269460B
:1046900006F17400FBF7BEFF45E0E878DFF8E811AB
:1046A000087640E004F00BFCDFF8A461D5ED000AC9
:1046B000F8EEE00A20EE800A86ED100A04F0FFFB17
:1046C000D5ED010AF8EEE00A20EE800A86ED110A27
:1046D00004F0F5FBD5ED020AF8EEE00A20EE800AC0
:1046E00086ED120AE868F0642869306568697065CB
:1046F00019E0574E06F1780095F903104176012133
:10470000817610E00C225448FBF774FF0BE06846FA
:1047100005F015F84E4E06F178009DF80010C176B0
:104720009DF801100177204676BD70B504460D4610
:10473000FCF70CFD064629462046FFF7F3FE002E47
:1047400012D0316B00290FD000280DD1FEF79DF952
:10475000316B8969081A012806DA294606F110002A
:10476000BDE8704000F0DCB970BD70B504460D4680
:10477000FFF760FE060009D02046FFF7A4FE0246C0
:1047800031462846BDE87040FBF734BF70BD38B5F0
:104790000446FFF74FFE05462046FFF794FE002D26
:1047A0000BD0002100E0491C89B20A46824204DA9B
:1047B000525DFF2AF7D0012032BD002032BD38B54E
:1047C0000446FFF737FE05000DD02046A1280AD089
:1047D000A42808D0FFF777FEFF2201462846BDE84F
:1047E000384000F011BC31BD026800E0126882421E
:1047F00004D093689942F9D1104670470020704761
:1048000038B50446114D21462846FFF7EDFF002834
:1048100006D10C20FEF7B4FB84602946FFF7FDFDAE
:10482000002032BD10B501460848FFF7DDFF040047
:1048300005D10FF25800FEF7B7F9032010BDFFF7BE
:10484000F1FD2046FEF7B4FB002010BDD89903000F
:104850004099030054990300689903007499030078
:104860008099030098990300B4990300BC99030050
:10487000C4990300D0990300D1990300D399030090
:10488000D5990300D6990300B8990300455F66697E
:10489000666F5F757200000038B50546002400E0C1
:1048A0006D68002D10D0287A0A789042F8D1E86817
:1048B0004A689042F4D128698A689042F0D16869C8
:1048C000CA689042ECD1012421460FF23C20FEF749
:1048D0006BF9002C00D10025284632BD38B50446BE
:1048E0002420FEF74DFB054600222421FFF772FD30
:1048F0001022214605F10800FBF78CFE6068A861D4
:10490000A068E861012085F82000284632BDF8B58E
:104910000022134601F108046A4D2E78761C2E7091
:10492000056801E02B466D68002D09D06668EF68C8
:10493000BE4204DBF6D1E6686F69BE42F2DB0122BB
:10494000002A0AD02A680A604D602A68002A01D02D
:10495000516000E00160296005E0002B02D0596041
:104960000B6000E0016000F089FA0020F2BD80B524
:10497000002801D0002901D1022002BD514A13783C
:104980005B1C13704A680B68002B01D05A6000E072
:1049900002604868002801D00A6802600846FEF7F5
:1049A00007FB00F06BFA002002BD18B40168002973
:1049B00003D0C268CB689A4200D04168002917D062
:1049C000404A13785B1C1370CA688969511AC2681F
:1049D000531A91FBF2F402FB043282610269531A0A
:1049E00091FBF2F102FB0131C16111BC00F046BA4A
:1049F00011BC704770B504460D462068FFF74CFFA8
:104A000006000BD12846FFF769FF064631462046CF
:104A1000FFF77DFF3046FFF7C8FF04E096F820005F
:104A2000401C86F82000207A401C2072307A002832
:104A300000D16660002070BD10B504462068FFF705
:104A40002BFF002801D1032010BD90F82010491E33
:104A500080F82010217A491E2172017A002901D1A3
:104A60000021616090F82010002903D10146204602
:104A7000FFF77DFF002010BD38B5124A13785B1C8C
:104A80001370006801E0C2614068002815D0826997
:104A9000531AC269521A012B05DAC4681D1993FB17
:104AA000F4F304FB13538361012AECDA0369D4188D
:104AB00092FBF3F203FB1242E5E700F0DFF900207E
:104AC00032BD00002019030080B503461046002BBC
:104AD00001D0002801D1012002BD002902D0012906
:104AE00008D00EE0196800290BD010220831FBF71E
:104AF00091FD06E05968002903D010220831FBF728
:104B000089FD002002BD00002366632025640000AB
:104B100000221346C0E904231146418101817047F8
:104B200070B504460D0034D0002C32D0B4F9080022
:104B3000B4F90A100818218890FBF1F201FB120366
:104B400060880246294666689BB200FB0360FBF75B
:104B500051FDB4F90A002188884202DA401C6081C4
:104B60000AE009D12089401C208100B2218890FBF5
:104B7000F1F201FB120020816088092809D3082284
:104B80004019A0F1080104F11000BDE87040FBF7E6
:104B900031BD70BD2DE9F04104460D461646002D8D
:104BA0003ED0002C3CD0B5F9081008462A881346A0
:104BB000374607EB000C634509DB698801FB07F208
:104BC0006B6801FB00312046FBF714FD1CE01B1A4B
:104BD000BB4201DBB04603E0A2EB01081FFA88F8F4
:104BE000698801FB08F26B6801FB00312046FBF786
:104BF00001FD6888A6EB080189B200FB01F2696833
:104C000000FB0840FBF7F6FCB5F9080038182988C6
:104C100090FBF1F201FB120028816889801B6881FA
:104C2000BDE8F081B0F90A10408811FB00F080B2B5
:104C30007047B0F90A0080B27047000030B480209D
:104C400080F3118800BF00BFDFF89413886800224A
:104C50000A7182F3118800281CBF0268002A33D031
:104C6000436954699C422FD100E022461468A4B1E4
:104C700065699D4211D12246146874B165699D42EF
:104C80000BD12246146844B165699D4205D1224684
:104C9000146814B165699D42E7D0802383F31188BD
:104CA00000BF00BF03680C69844208BF0B61016A42
:104CB0000B60196202621168016001B10862106044
:104CC00092F8290082F82800002080F3118830BC77
:104CD000704730B5DFF808430020607181B0206A6A
:104CE000E16900F18040606208001CBF20468847EF
:104CF000002080F31188E56808E0E868616A411ADD
:104D000048BF6062002080F311882D6805B38020C1
:104D100080F3118800BF00BF206920B16869216954
:104D20004969884219D3287C4007EBD5E868216A95
:104D3000401A0128E1DA284600F0BCF8802080F310
:104D4000118800BF00BF287C0028D6D101B030BD3B
:104D5000802080F3118800BF00BF01B030BD00008B
:104D600070B5DFF87C420020607001202070E06B9D
:104D700068B1802080F3118800BF00BFE06B8047DE
:104D8000002080F31188E063606384F83800A06835
:104D900000281CBFC16A002904D009680A001CBF92
:104DA0004068884794F8310040B1A06894F830100A
:104DB00080F82810207908B1FFF740FF206948B338
:104DC00004E028682061002080F31188802080F3AF
:104DD000118800BF00BF25690DB32E7CFEB170079E
:104DE0000ED5E868216A411A012905DA284600F043
:104DF00061F8287C20B90DE0616A411A48BF606201
:104E000006F0FB001028DCD1A86880684068007CB0
:104E10000028D6D1802080F3118800BF00BF6079C0
:104E200050B9206900B32069007C0028206909D0AE
:104E300080688068406805E0FFF74BFF60790028D4
:104E4000FAD1EEE7A060A068C16A21B149680A0002
:104E50001CBF40688847A06890F8280084F830009C
:104E600084F83100204670BD84F8310084F83000A9
:104E7000A060207080F31188204670BD10B5584C9A
:104E80002078401E2070C0B298B9606888B1802038
:104E900080F3118800BF00BF606830B1012020702E
:104EA000204601F0C8FE00202070607808B980F329
:104EB000118810BD30B581B08168494C41B1226A7A
:104EC000C2600A68496802B151600A6000218160CD
:104ED000017C11F00301017426D1216991B920618F
:104EE000207838B901202070204601F0A4FE00206F
:104EF000207001E0012060716078A8B980F311880A
:104F000001B030BD42694B699342E8D38142E7D09A
:104F10009A4209D103461B68002BEDD05D69AA4275
:104F2000EAD18B42F7D1DAE701B030BD30B52C4C75
:104F3000227881B04169521C227004F10C0200E019
:104F40001A461368A3B15D69A94211D21A461368C3
:104F500073B15D69A9420BD21A46136843B15D690A
:104F6000A94205D21A46136813B15D69A942E7D375
:104F700003600262106043B118625A698A420CBF32
:104F800090F82910002180F82810017C51B9802167
:104F900081F3118800BF00BFFFF78CFF607808B96C
:104FA00080F3118801B0BDE8304067E730B50C4CA4
:104FB0002578681C207081B0204601F03CFE6078A6
:104FC000257008B980F3118801B030BD00B581B0FB
:104FD00004F058FD02480121017001B000BD00003D
:104FE00020190300D2B2203A22BF00FA02F10020B9
:104FF00070475242D041D2F1200291404140D0400E
:10500000904041407047000062F30F2262F31F425C
:10501000401810F0030308D0C91A1FD3DB0748BF9C
:1050200000F8012D28BF20F8022D130030B41446DB
:105030001546103928BF20E93C00FAD8490728BF97
:1050400020E90C0048BF40F8042D890028BF20F853
:10505000022D48BF00F8012D30BC7047C91818BF99
:1050600000F8012DCB0728BF00F8012D7047000084
:1050700038B5054604F076FDD0F8D800002837D0C2
:1050800000F5856404F5DC500168502930D242688F
:10509000502A2DD2002D02D1C37B002B28D05029BD
:1050A00026D2502A24D214490A78521C0A70017B55
:1050B000002902D00169491C01610568691C502260
:1050C000B1FBF2F202EB8203A1EB03110160426833
:1050D000914201D101210173FFF7D0FE582000FB5E
:1050E0000544002201462046FFF774F9204632BDF0
:1050F000002032BD0000000020190300002101E063
:105100001046491C00F14802137A994202DA1268EB
:10511000002AF5D1704710B5044604F023FDD0F8FD
:10512000D80000F5856041F69C310A58531C0B509D
:10513000A4F84C2010BDF8B505003CD004F012FDD9
:105140000446D4F8D80000F5856000F5DC563068D8
:10515000502830D2706850282DD205F148073868A1
:1051600000280BD0387A002808D02846FFF7C6FF61
:10517000F1694A1CF261A0F84C1003E0F069411C8F
:10518000F161B880D4F8D800002814D0707B0028D2
:1051900011D1B07B00280ED104F0DDFC012802D033
:1051A000F879002807D0707B002804D101207073A3
:1051B000B069401CB061F1BDF0B44FF0004591EA18
:1051C000030F44BF6B40FEF7C1BA00BF841A71EBF6
:1051D000030604D26E40001BB141121973414FF413
:1051E000001C1CEB410F34BF7CEB430684E00C0D2C
:1051F000A4EB1356362E7DDC012E43DC45EAC32397
:1052000043EA525312BFD20292025B08240545EAD8
:10521000C12141EA5051D2EBC020994125D407D198
:10522000B0FA80F610FA06F164D00020203608E0CB
:10523000B1FA81F6B140C6F1200220FA02F2114320
:10524000B0404FEAF474B4EB465434F001064FEA30
:1052500074040AD8D6F50016760D04F00044F04028
:1052600061FA06F25040F1404840C00A40EA41501D
:1052700021F0004128BF5FEA500550F1000044EBE7
:10528000D12137E045EAC323DB0A45EAC121C90A37
:10529000B6F120050EDD42EA0242120CC5F12006ED
:1052A00003FA06F6EB4042EA06056D42984161F1C9
:1052B00000010DE062FA06F5F240554063FA06FC83
:1052C00082EA0C02F3405A406D42904161EB0301C7
:1052D00011F4801F05D1641E620502D06D004041AB
:1052E000494121F48011430875F1004350F1000059
:1052F00041EB0451F0BC70471CEB410F15D223F079
:10530000004352EA43060BD04FEA4C0CBCEB410F72
:1053100004D80C0D661E342EB7DDEBE7801A9941D8
:1053200050EA410608BF0021E4E708BF1CEB430F29
:1053300028BF6FF00001DDE7D2B2203A22BF21FA88
:1053400002F0002170472032D141D04048409140C6
:10535000D140484070470000012100F01F029140F9
:10536000254A400942F820107047002806D5234AF4
:1053700000F00F00801800F8041C7047204A815488
:105380007047204820490860704704F0ECBE04F0E4
:10539000A8BE10B500240AE004F18001204640B206
:1053A000FFF7E3FF204640B2FFF7D6FF641C162C40
:1053B000F2DB04F0F5FF01F0B1FF124805F01CF933
:1053C000012005F042F9C046C04605F0AFF902F0F1
:1053D000A2FA05F0EDFA04F065FE0C480C490160F4
:1053E00000220A601146006841600FF22800BDE803
:1053F0001040FDF701BA000080E100E018ED00E088
:1054000000E400E0000E27077C3C03006CA20300D0
:1054100000F0030053797374656D20626F6F742020
:10542000646F6E65202121210A000000802282F332
:10543000118800BF00BFC1600248407808B980F3FE
:10544000118870472019030000B581B0802282F3D3
:10545000118800BF00BF8368094A33B9507808B982
:1054600080F31188012001B000BD13785B1C13701C
:1054700005F0CBFAFFF702FD002001B000BD00BF30
:105480002019030010B50F4C2178491C2170802190
:1054900081F3118800BF00BFA1688A69024205D16B
:1054A000C86108200874204601F0C5FBA16888691E
:1054B00000228A612178491E2170617809B981F33F
:1054C000118810BD2019030070B400240025264661
:1054D00070C070C018384360C260818270BC704771
:1054E0002DE9F0470E46089F099DDDF828900446F7
:1054F000924698463421FCF707FA1049C4F814A0E4
:10550000207C09780843207484F8299006B16662EB
:10551000E819C008C000002140F8501D4FF080710C
:10552000416407490164C0F84C806FF00201416298
:1055300060602046BDE8F047FFF7F8BCE0A5030037
:10554000036C000030B50D4D2A78521C2A7081B0D2
:105550000124802282F3118800BF00BF8268C368E3
:105560009A4202D205F02EFA0024687808B980F336
:105570001188FFF783FC204601B030BD20190300DD
:1055800000B581B0802282F3118800BF00BF8A6914
:10559000104388610A7C02F0F802082A05D1CA6922
:1055A00002421CBF0846FFF785FC0348407808B953
:1055B00080F3118801B000BD2019030070B50446C6
:1055C0003748384E0568B5B1287A88B16868A04276
:1055D0000ED1012028723078401C3070287A401E8D
:1055E0002872C0B210B9284605F03CFAFFF746FC15
:1055F000ED68002DE8D170BD2B492C4A0A600021CE
:1056000000220B468C46A0E80E101038802181F352
:10561000118800BF00BF22490A68C26008602148A3
:10562000407808B980F31188704730B51D4D0446A5
:105630002878401C287081B0A868217A39B9606048
:1056400001252572FFF71AFC284601B030BD6168BC
:10565000814208D01021204605F01AFA207A00284D
:10566000F8D1A8686060207A451C2572FFF706FC17
:10567000284601B030BD0B490A78521C0A70017AE5
:10568000491E0172C9B2002918BFFFF7F7BB00B568
:1056900081B005F0E7F901B05DF804EBFFF7EEBB70
:1056A00098A3030020190300B8A30300BD55000010
:1056B00000F5E0700268914203D343689A18914262
:1056C00002D380680028F5D17047DFF858070168D9
:1056D00091B94FF4803181604FF4805141604FF0B7
:1056E000FF31C16001610421DFF83C274161C2F84C
:1056F000BC11DFF8381701600120704701F1080381
:1057000013F0070305D001F10803C3F1080303F008
:1057100007035918D21A8161C26042F001034B603D
:10572000511828234B60DFF8FC160969C1617047E6
:105730002DE9F84F064601F1080010F0070008BFF8
:10574000884607D001F10800C0F1080000F007000A
:1057500000EB010802F1080010F0070006D002F18A
:105760000800C0F1080000F0070082181546A5EBFC
:105770000800A0EB030903EB080B43F00300C8F893
:105780000400AB4528BF05F0A1F92879C00758BF30
:1057900005F09CF9B9F1100F38BF05F097F9B06921
:1057A000854209D1F0684844F060C6F818B040F06E
:1057B0000100CBF804006DE1706985420BD1B0683F
:1057C0004844B060C6F814B040F00101CBF80410B2
:1057D00040F80B005EE1686800F00301012940F029
:1057E000AD80C008C0000190C00820283AD2D5F88A
:1057F00008A0EF680090BD4208BF05F067F9554565
:1058000008BF05F063F968680099C008C000B0EBF4
:10581000C10F18BF05F05AF9009806EBC00000F15F
:1058200028018A4507D031698A45C0F08280DAF8BC
:105830000C10A9427DD1574506D1009A306801214C
:1058400091408843306076E02830874205D0306947
:1058500087426ED3B868A8426BD1CAF80C70C7F8FB
:1058600008A068E0EF68D5F818A0AF420CD0A8688F
:105870003169884223D3C168A94204BFB968A942EB
:105880001DD1C760B8601CE005F11400076837B986
:1058900005F110000768A7B101E00846076807F1A5
:1058A00014010A68002A02BF07F110010A68002AE1
:1058B000F3D13169884202D30021016001E005F093
:1058C00005F9BAF1000F36D0E86906EB800000F563
:1058D000987001688D4208D10760A7B9EA697068BD
:1058E000012191408843706025E03069824508D3EA
:1058F000DAF81000A84214BFCAF81470CAF8107081
:1059000001E005F0E3F8B7B13069874211D3C7F879
:1059100018A0296929B1814226BF39618F6105F03C
:10592000D5F8686938B13169884202D378618761F6
:1059300001E005F0CBF801984519814468684008FA
:10594000400068604FEAD90549F00100CBF8040037
:1059500049F80B90202D23D206EBC50000F1280753
:10596000BA46B9F1100F38BF05F0B0F8306820FA28
:1059700005F1C90704D40121A9400843306006E0BD
:10598000B868316988422CBF824605F09FF8C7F895
:1059900008B0CAF80CB0CBF808A0CBF80C7079E0CE
:1059A0005FEA192108BF002023D0B1F5803F28BF4E
:1059B0001F201ED2A1F58070000C00F0080081406D
:1059C000A1F58052120C02F004029140A1F580432F
:1059D0001B0CC0F10E0003F00203801AC01A99409C
:1059E00000EBD130C11D29FA01F202F0010101EBF7
:1059F0004000CBF81C000022CBF81420CBF810207C
:105A000006EB8001726822FA00F3DB0701F598715A
:105A100007D4012303FA00F010437060C1F800B00E
:105A20001DE009681F280EBF00204008C0F11900C2
:105A300009FA00F000E011464A68D208D2004A454F
:105A400014D0C20F01EB820202F1100340001A6869
:105A5000002AF0D1306983421AD3C3F800B0CBF8E2
:105A60001810CBF80CB0CBF808B013E03269886896
:105A7000914228BF90420BD3C0F80CB0C1F808B0D7
:105A8000CBF80800CBF80C100020CBF8180001E090
:105A900005F01CF808F10800BDE8E68F2DE9FA4D85
:105AA0000546DFF8800384B0006808B9FFF70DFEF3
:105AB000DFF870030499806841182F31401E21EAF5
:105AC00000000499814280F0A88105F5D876B1687C
:105AD00039B132688018824280F09F818142C0F0E3
